:040000000CEF00F011
:10000800FACF01F0FBCF02F0E9CF03F036ED0FF0A5
:1000180066EF10F044EC13F098EC12F0000E236E2B
:10002800000E226EE7EC12F0860E496E000E4A6E44
:1000380049C00FF04AC010F0AD0E116EFF0E126EDF
:1000480067EC12F0020E376E49C038F04AC039F03A
:10005800FF0E3B6E3A68000E3D6E000E3C6E010EC0
:100068003E6E020ECCEC09F049C00FF04AC010F009
:10007800E50E116EFF0E126E67EC12F00A0E376E67
:1000880049C038F04AC039F0FF0E3B6E3A68000E9E
:100098003D6E000E3C6E010E3E6E020ECCEC09F079
:1000A8000A0E376E620E386E000E396EFF0E3B6E0A
:1000B8003A68000E3D6E000E3C6E010E3E6E230E39
:1000C800CCEC09F049C00FF04AC010F0EB0E116EED
:1000D800FF0E126E67EC12F00A0E376E49C038F048
:1000E8004AC039F0FF0E3B6E3A68000E3D6E000EB6
:1000F8003C6E010E3E6E320ECCEC09F00A0E376EE5
:10010800640E386E000E396EFF0E3B6E3A68000EB4
:100118003D6E000E3C6E010E3E6E460ECCEC09F0B4
:1001280049C00FF04AC010F0EF0E116EFF0E126EAC
:1001380067EC12F00A0E376E49C038F04AC039F041
:10014800FF0E3B6E3A68000E3D6E000E3C6E010ECF
:100158003E6E500ECCEC09F00A0E376E640E386E07
:10016800000E396EFF0E3B6E3A68000E3D6E000EB3
:100178003C6E010E3E6E640ECCEC09F049C00FF0E7
:100188004AC010F0FD0E116EFF0E126E67EC12F0F1
:100198000A0E376E49C038F04AC039F0FF0E3B6E80
:1001A8003A68000E3D6E000E3C6E010E3E6E780EF3
:1001B800CCEC09F049C00FF04AC010F0C10E116E26
:1001C800FF0E126E67EC12F0140E376E49C038F04D
:1001D8004AC039F0000E3B6E1F0E3A6E000E3D6E9F
:1001E800000E3C6E010E3E6E1E0ECCEC09F0000EA9
:1001F800226E1E0E216E000E246E1B0E236E000E44
:10020800266E3C0E256E000E286E120E276E000E0E
:100218002A6E1F0E296E33EC10F0000E1B6E280E8E
:100228001A6E000E1D6E230E1C6E000E1F6E070E3A
:100238001E6EF80E216E000E206E61EC06F0000EA8
:100248001B6E3C0E1A6E000E1D6E230E1C6E000EE9
:100258001F6E070E1E6EFF0E216EE00E206E61EC03
:1002680006F0000E3A6E500E396E000E3C6E230EEC
:100278003B6E000E3E6E070E3D6E070E406EE00EA2
:100288003F6EEBEC10F01E0E376E5F0E386E000EF0
:10029800396E000E3B6E1F0E3A6E000E3D6E000E5C
:1002A8003C6E020E3E6E640ECCEC09F049C00FF0B5
:1002B8004AC010F0D70E116EFF0E126E67EC12F0E6
:1002C800320E376E49C038F04AC039F0F80E3B6E2E
:1002D8001F0E3A6E000E3D6E000E3C6E010E3E6E15
:1002E8001E0ECCEC09F0000E226E1E0E216E000EC2
:1002F800246E390E236E000E266E3C0E256E000EFF
:10030800286E120E276EF80E2A6E1F0E296E33EC19
:1003180010F0000E3A6E280E396E000E3C6E410E3B
:100328003B6E000E3E6E070E3D6EF80E406E000EE0
:100338003F6EEBEC10F0000E1B6E3C0E1A6E000EBA
:100348001D6E410E1C6E000E1F6E070E1E6EFF0EF8
:10035800216EE00E206E61EC06F0000E1B6E500E52
:100368001A6E000E1D6E410E1C6E000E1F6E070EDB
:100378001E6E070E216EE00E206E61EC06F03C0E3C
:10038800376E5C0E386E000E396EF80E3B6E1F0E1F
:100398003A6E000E3D6E000E3C6E020E3E6E640E0E
:1003A800CCEC09F049C00FF04AC010F0CD0E116E28
:1003B800FF0E126E67EC12F0500E376E49C038F01F
:1003C8004AC039F0070E3B6E3A68000E3D6E000ECB
:1003D8003C6E010E3E6E1E0ECCEC09F0000E226E35
:1003E8001E0E216E000E246E570E236E000E266E12
:1003F8003C0E256E000E286E120E276E070E2A6E12
:10040800296833EC10F0000E3A6E280E396E000E93
:100418003C6E5F0E3B6E000E3E6E070E3D6EF80E94
:10042800406E000E3F6EEBEC10F0000E1B6E3C0EA3
:100438001A6E000E1D6E5F0E1C6E000E1F6E070EEC
:100448001E6EFF0E216EE00E206E61EC06F0000EAF
:100458001B6E500E1A6E000E1D6E5F0E1C6E000E87
:100468001F6E070E1E6E070E216EE00E206E61ECE9
:1004780006F05A0E376EB60E386E000E396E070E3D
:100488003B6E3A68000E3D6E000E3C6E020E3E6EEC
:10049800640ECCEC09F049C00FF04AC010F0DE0E33
:1004A800116EFF0E126E67EC12F06E0E376E49C0B9
:1004B80038F04AC039F0FF0E3B6E3A68000E3D6EC8
:1004C800000E3C6E010E3E6E1E0ECCEC09F0000EC6
:1004D800226E1E0E216E000E246E750E236E000E07
:1004E800266E3C0E256E000E286E120E276EFF0E2D
:1004F8002A6E296833EC10F0000E3A6E280E396E19
:10050800000E3C6E7D0E3B6E000E3E6E070E3D6E7D
:10051800F80E406E000E3F6EEBEC10F0000E1B6EF6
:100528003C0E1A6E000E1D6E7D0E1C6E000E1F6EA8
:10053800070E1E6EFF0E216EE00E206E61EC06F0B7
:10054800000E1B6E500E1A6E000E1D6E7D0E1C6E78
:10055800000E1F6E070E1E6E070E216EE00E206E37
:1005680061EC06F0780E376EB30E386E000E396EF9
:10057800FF0E3B6E3A68000E3D6E000E3C6E020E9A
:100588003E6E640ECCEC09F049C00FF04AC010F082
:10059800F30E116EFF0E126E67EC12F0140E376E2A
:1005A80049C038F04AC039F0000E3B6E1F0E3A6E53
:1005B800000E3D6E000E3C6E010E3E6E030ECCEC3E
:1005C80009F01E0E376EBC0E386E000E396E000E26
:1005D8003B6E1F0E3A6E000E3D6E000E3C6E020E14
:1005E8003E6E020ECCEC09F05A0E376EB90E386E1C
:1005F800000E396E070E3B6E3A68000E3D6E000E17
:100608003C6E020E3E6E020ECCEC09F049C00FF0B3
:100618004AC010F0F70E116EFF0E126E67EC12F062
:10062800500E376E49C038F04AC039F0070E3B6E9D
:100638003A68000E3D6E000E3C6E010E3E6E030ED3
:10064800CCEC09F049C00FF04AC010F0980E116EBA
:10065800FF0E126E67EC12F08C0E376E49C038F040
:100668004AC039F0FF0E3B6E3A68000E3D6E000E30
:100678003C6E010E3E6E010ECCEC09F0950E376E05
:10068800700E386E000E396EFF0E3B6E3A68000E23
:100698003D6E000E3C6E010E3E6E060ECCEC09F06F
:1006A800950E376E6E0E386E000E396EFF0E3B6E6D
:1006B8003A68000E3D6E000E3C6E010E3E6E200E36
:1006C800CCEC09F0950E376E6A0E386E000E396E56
:1006D800FF0E3B6E3A68000E3D6E000E3C6E010E3A
:1006E8003E6E3A0ECCEC09F0950E376E680E386EF9
:1006F800000E396EFF0E3B6E3A68000E3D6E000E1E
:100708003C6E010E3E6E570ECCEC09F0950E376E1E
:100718006C0E386E000E396EFF0E3B6E3A68000E96
:100728003D6E000E3C6E010E3E6E700ECCEC09F074
:1007380012000001A56F0001A5511E0DF350230FF3
:100748000001A66F4150D8A467D0000E3A6E280E5B
:10075800396EA6C03BF03C6A000E3E6E070E3D6E39
:10076800000E406E000E3F6EEBEC10F0000E3A6E7D
:100778003C0E396EA6C03BF03C6A000E3E6E070E7A
:100788003D6E000E406E000E3F6EEBEC10F0000E5A
:100798003A6E500E396EA6C03BF03C6A000E3E6EB3
:1007A800070E3D6E000E406E000E3F6EEBEC10F033
:1007B800000E1B6E280E1A6EA6C01CF01D6A000ED5
:1007C8001F6E070E1E6EF80E216E000E206E61EC75
:1007D80006F0000E1B6E3C0E1A6EA6C01CF01D6AB9
:1007E800000E1F6E070E1E6EFF0E216EE00E206EAD
:1007F80061EC06F0000E1B6E500E1A6EA6C01CF0BF
:100808001D6A000E1F6E070E1E6E070E216EE00E8B
:10081800206E61EC06F000D04104D8A467D0000E29
:100828003A6E280E396EA6C03BF03C6A000E3E6E4A
:10083800070E3D6EF80E406E000E3F6EEBEC10F0AA
:10084800000E3A6E3C0E396EA6C03BF03C6A000EB4
:100858003E6E070E3D6E000E406E000E3F6EEBECD6
:1008680010F0000E3A6E500E396EA6C03BF03C6A8E
:10087800000E3E6E070E3D6E000E406E000E3F6E7F
:10088800EBEC10F0000E1B6E280E1A6EA6C01CF0C2
:100898001D6A000E1F6E070E1E6EF80E216E000EEA
:1008A800206E61EC06F0000E1B6E3C0E1A6EA6C0A0
:1008B8001CF01D6A000E1F6E070E1E6EFF0E216EC5
:1008C800E00E206E61EC06F0000E1B6E500E1A6EE4
:1008D800A6C01CF01D6A000E1F6E070E1E6E070EC6
:1008E800216EE00E206E61EC06F000D0030E411878
:1008F800D8A467D0000E3A6E280E396EA6C03BF019
:100908003C6A000E3E6E070E3D6E000E406E000EF5
:100918003F6EEBEC10F0000E3A6E3C0E396EA6C03E
:100928003BF03C6A000E3E6E070E3D6EFF0E406EB9
:10093800E00E3F6EEBEC10F0000E3A6E500E396E82
:10094800A6C03BF03C6A000E3E6E070E3D6E000EE0
:10095800406E000E3F6EEBEC10F0000E1B6E280E82
:100968001A6EA6C01CF01D6A000E1F6E070E1E6EC2
:10097800F80E216E000E206E61EC06F0000E1B6E64
:100988003C0E1A6EA6C01CF01D6A000E1F6E070EE4
:100998001E6EFF0E216EE00E206E61EC06F0000E5A
:1009A8001B6E500E1A6EA6C01CF01D6A000E1F6E3C
:1009B800070E1E6E070E216EE00E206E61EC06F02B
:1009C80000D0020E4118D8A467D0000E3A6E280E47
:1009D800396EA6C03BF03C6A000E3E6E070E3D6EB7
:1009E800000E406E000E3F6EEBEC10F0000E3A6EFB
:1009F8003C0E396EA6C03BF03C6A000E3E6E070EF8
:100A08003D6E000E406E000E3F6EEBEC10F0000ED7
:100A18003A6E500E396EA6C03BF03C6A000E3E6E30
:100A2800070E3D6E070E406EE00E3F6EEBEC10F0C9
:100A3800000E1B6E280E1A6EA6C01CF01D6A000E52
:100A48001F6E070E1E6EF80E216E000E206E61ECF2
:100A580006F0000E1B6E3C0E1A6EA6C01CF01D6A36
:100A6800000E1F6E070E1E6EFF0E216EE00E206E2A
:100A780061EC06F0000E1B6E500E1A6EA6C01CF03C
:100A88001D6A000E1F6E070E1E6E070E216EE00E09
:100A9800206E61EC06F000D01200000E0001AC6F71
:100AA800D4EC12F00FC0ADF010C0AEF0ADC00FF036
:100AB800AEC010F0000E126E050E116EADEC12F005
:100AC8000FC017F010C018F02EEC12F017C01BF072
:100AD80018C01CF019C01DF0000E1E6E800E1F6E8F
:100AE800440E206ECAEC0AF01BC042F01CC043F052
:100AF8001DC044F042C00FF043C010F044C011F0D4
:100B0800000E126E600E136E400E146E8AEC0DF01D
:100B1800D8B002D0010E01D0000E536E4FC055F070
:100B2800000E80B8010E546E4CC052F0000E80BA10
:100B3800010E516E5350D8A402D04E0E01D0440E6F
:100B48006C6E5550D8A402D0300E01D0310E706EA4
:100B58005250D8A402D0300E01D0310E6A6E5450D3
:100B6800D8A402D0300E01D0310E6E6E5150D8A4E8
:100B780002D0300E01D0310E686E4E50D8A402D08B
:100B8800300E01D0310E646E4D50D8A402D0300E14
:100B980001D0310E666E00D00A0E376E620E386EC6
:100BA800000E396EFF0E3B6E3A68000E3D6E000E69
:100BB8003C6E010E3E6E230ECCEC09F00A0E376E29
:100BC800640E386E000E396EFF0E3B6E3A68000EEA
:100BD8003D6E000E3C6E010E3E6E460ECCEC09F0EA
:100BE8000A0E376E660E386E000E396EFF0E3B6EBB
:100BF8003A68000E3D6E000E3C6E010E3E6E640EAD
:100C0800CCEC09F0950E376E700E386E000E396E0A
:100C1800FF0E3B6E3A68000E3D6E000E3C6E010EF4
:100C28003E6E060ECCEC09F0950E376E6E0E386EE1
:100C3800000E396EFF0E3B6E3A68000E3D6E000ED8
:100C48003C6E010E3E6E200ECCEC09F0950E376E10
:100C58006A0E386E000E396EFF0E3B6E3A68000E53
:100C68003D6E000E3C6E010E3E6E3A0ECCEC09F065
:100C7800950E376E680E386E000E396EFF0E3B6E9D
:100C88003A68000E3D6E000E3C6E010E3E6E570E29
:100C9800CCEC09F0950E376E6C0E386E000E396E7E
:100CA800FF0E3B6E3A68000E3D6E000E3C6E010E64
:100CB8003E6E700ECCEC09F012001EC022F01FC070
:100CC80023F0221E231E224A232A010E2224286EE4
:100CD800000E2320296E000E256E010E246E1EC004
:100CE80022F01FC023F0D89022362336221E231E5E
:100CF800224A232A22C026F023C027F0000E2B6E9A
:100D0800000E2A6E1EC02CF01FC02DF01C501E2491
:100D1800166E20C017F021C018F01A5080EC12F09F
:100D28001E5000081C24166E20C017F021C018F0B1
:100D38001A5080EC12F01CC016F020C017F021C029
:100D480018F01A501E2480EC12F01CC016F020C0B7
:100D580017F021C018F01E5000081A2480EC12F079
:100D680078D029BE0BD02C06D8A02D06020E262638
:100D7800000E272226502826275029222A4A2B2AC5
:100D8800020E2426000E252224502826255029222A
:100D98001C502C24166E20C017F021C018F01A50D1
:100DA8002A2480EC12F01C502C24166E20C017F058
:100DB80021C018F02A5000081A2480EC12F02C5098
:100DC80000081C24166E20C017F021C018F01A5015
:100DD8002A2480EC12F02C5000081C24166E20C027
:100DE80017F021C018F02A5000081A2480EC12F0DD
:100DF8001C502A24166E20C017F021C018F01A5073
:100E08002C2480EC12F01C502A24166E20C017F0F7
:100E180021C018F02C5000081A2480EC12F02A5037
:100E280000081C24166E20C017F021C018F01A50B4
:100E38002C2480EC12F02A5000081C24166E20C0C6
:100E480017F021C018F02C5000081A2480EC12F07A
:100E580000D02C502A5C2B50800A226E2D50800A1C
:100E68002258D8A07ED712000001AC6FB2D041C082
:100E78000FF0106A000E126E0A0E116E20EC0EF0C2
:100E88000F50300F5F6E41C00FF0106A000E126EE7
:100E98000A0E116EBAEC0FF00F50300F606E1E0E76
:100EA800376E5F0E386E000E396E000E3B6E1F0EE9
:100EB8003A6E000E3D6E000E3C6E020E3E6E640EE3
:100EC800CCEC09F095D041C00FF0106A000E126EFC
:100ED8000A0E116E20EC0EF00F50300F5C6E41C000
:100EE8000FF0106A000E126E0A0E116EBAEC0FF0B7
:100EF8000F50300F5D6E3C0E376E5C0E386E000E74
:100F0800396EF80E3B6E1F0E3A6E000E3D6E000EE7
:100F18003C6E020E3E6E640ECCEC09F069D041C006
:100F28000FF0106A000E126E0A0E116E20EC0EF011
:100F38000F50300F0001B66F41C00FF0106A000E5D
:100F4800126E0A0E116EBAEC0FF00F50300F00013E
:100F5800B76F5A0E376EB60E386E000E396E070E22
:100F68003B6E3A68000E3D6E000E3C6E020E3E6E01
:100F7800640ECCEC09F03CD041C00FF0106A000EB2
:100F8800126E0A0E116E20EC0EF00F50300F000199
:100F9800B36F41C00FF0106A000E126E0A0E116E88
:100FA800BAEC0FF00F50300F0001B46F780E376EA7
:100FB800B30E386E000E396EFF0E3B6E3A68000EA7
:100FC8003D6E000E3C6E020E3E6E640ECCEC09F0D7
:100FD8000FD00001AC51000AD8B449D7010AD8B4DF
:100FE80072D7030AD8B49BD7010AD8B4C5D700D0A2
:100FF8001200346E800E3460A6D09F0E2C6401D08F
:10100800A2D03250D8A403D0010E326E00D01F0EE9
:101018002D6404D07E0E2D6403D000D03F0E2D6EBB
:10102800000E366E040E366401D08DD0530E2D603E
:1010380015D0E00E2D240F6E106AFF0E1022000E40
:10104800126E050E116EADEC12F036500F26000E22
:101058001022BD0E0F24F66EFD0E14D0AD0E2D24F9
:101068000F6E106AFF0E1022000E126E050E116E22
:10107800ADEC12F036500F26000E1022BC0E0F24D5
:10108800F66EFE0E1020F76E0800F5CF33F000D094
:10109800000E356E060E356401D053D033A023D030
:1010A8003204D8A40CD02C503524166E2EC017F05C
:1010B8002FC018F03450362480EC12F03ED0355052
:1010C8003202F3502C24216E32C022F032C023F0B9
:1010D8002EC024F02FC025F036503202F3503424AD
:1010E8003BEC11F02AD02E50301804E12F50311863
:1010F800D8B423D03204D8A40CD02C503524166E82
:1011080030C017F031C018F03450362480EC12F09B
:1011180014D035503202F3502C24216E32C022F004
:1011280032C023F030C024F031C025F036503202EE
:10113800F35034243BEC11F000D0352AD8903332E8
:10114800A9D7362A6FD7120025C02DF026C02EF059
:101158002D1E2E1E2D4A2E2A010E2D24336E000E12
:101168002E20346E000E306E010E2F6E25C02DF02D
:1011780026C02EF0D8902D362E362D1E2E1E2D4A26
:101188002E2A2DC031F02EC032F0000E366E000E21
:10119800356E25C037F026C038F067D034BE0BD086
:1011A8003706D8A03806020E3126000E32223150FA
:1011B800332632503422354A362A020E2F26000EA4
:1011C80030222F5033263050342227A025D03750D4
:1011D80000082324166E3750372429242D6E2D2815
:1011E800176E2BC018F02CC019F021503524AFEC25
:1011F8000EF0355000082324166E35503524292466
:101208002D6E2D28176E2BC018F02CC019F0215008
:101218003724AFEC0EF000D027A227D037500008B3
:101228002324166E3750372429242D6E2D28176E47
:101238002BC018F02CC019F0355000082124AFEC51
:101248000EF0355000082324166E35503524292415
:101258002D6E2D28176E2BC018F02CC019F03750A2
:1012680000082124AFEC0EF000D03750355C365022
:10127800800A2D6E3850800A2D58D8A08FD71200BA
:10128800010E5EEC13F0000E166E960E156EC2EC93
:1012980010F0110E5EEC13F0010E166EF40E156EC2
:1012A800C2EC10F0B10E5EEC13F0010E56EC13F028
:1012B8002C0E56EC13F02D0E56EC13F0B20E5EEC1D
:1012C80013F0010E56EC13F02C0E56EC13F02D0E05
:1012D80056EC13F0B30E5EEC13F0010E56EC13F05F
:1012E8002C0E56EC13F02D0E56EC13F0010E56ECA6
:1012F80013F02C0E56EC13F02D0E56EC13F0B40E22
:101308005EEC13F0070E56EC13F0C00E5EEC13F013
:10131800A20E56EC13F0020E56EC13F0840E56ECA7
:1013280013F0C10E5EEC13F0C50E56EC13F0C20EAE
:101338005EEC13F00A0E56EC13F0000E56EC13F0A8
:10134800C30E5EEC13F08A0E56EC13F02A0E56EC20
:1013580013F0C40E5EEC13F08A0E56EC13F0EE0E8A
:1013680056EC13F0C50E5EEC13F00E0E56EC13F0AF
:10137800200E5EEC13F0360E5EEC13F0C80E56EC41
:1013880013F03A0E5EEC13F0050E56EC13F0120053
:101398000001A56FA5C0ABF037C0AAF038C00FF0A8
:1013A80039C010F00FEC12F00FC0A6F010C0A7F073
:1013B800000E0001A96F000EA86F64D05B50D8B46E
:1013C80034D03E50050D0001AB513F6E406AF350DA
:1013D8003F26F450402240BE28D0405004E1810E00
:1013E8003F5CD8A022D0000E0001AB6F3E50070D25
:1013F800F3500001AA25030F0001AA6FA00E0001F7
:10140800AA6504D0A00E0001AA6F00D00001A8515F
:101418003824D96E0001A9513920DA6E200EDE1861
:10142800D8B42CD002D02AD000D0AAC02CF0000109
:10143800A8513824D96E0001A9513920DA6EDF503D
:101448002D6E3AC02EF03BC02FF03CC030F03DC0AE
:1014580031F03EC032F00001AB51FDEC07F03E50D8
:10146800060DF3500001AB250001AB6F800E0001A3
:10147800AB6504D0800E0001AB6F00D00001A84B13
:10148800A92B00D00001A6510001A85D0001A751B9
:101498000001A959D8A092D71200E00E5EEC13F013
:1014A800020E56EC13F01C0E56EC13F0070E56EC19
:1014B80013F0120E56EC13F0370E56EC13F0320EF2
:1014C80056EC13F0290E56EC13F02D0E56EC13F0D3
:1014D800290E56EC13F0250E56EC13F02B0E56EC95
:1014E80013F0390E56EC13F0000E56EC13F0010E03
:1014F80056EC13F0030E56EC13F0100E56EC13F0E6
:10150800E10E5EEC13F0030E56EC13F01D0E56ECD4
:1015180013F0070E56EC13F0060E56EC13F02E0ED1
:1015280056EC13F02C0E56EC13F0290E56EC13F073
:101538002D0E56EC13F02E0E56EC13F02E0E56EC24
:1015480013F0370E56EC13F03F0E56EC13F0000E66
:1015580056EC13F0000E56EC13F0020E56EC13F096
:10156800100E56EC13F0130E5EEC13F0000E166E10
:101578000A0E156EC2EC10F0290E5EEC13F0000E88
:10158800166E640E156EC2EC10F012001DC021F02C
:10159800226A236A1C34213601E322802150286EF6
:1015A8002850D8A402D00ED061D020C021F0226AE1
:1015B800236A1F34213601E322802150296E2950E5
:1015C800D8A407D0000E1B6E000E1C6E000E1D6EF8
:1015D8004DD0000E256E000E266E000E276E295087
:1015E800890F285E1DC029F02050291A800E29165F
:1015F8001C8EFF0E1B16FF0E1C16000E1D161F8ECE
:10160800FF0E1E16FF0E1F16000E2016180E246E53
:1016180000D0D8902536263627361E501B5C1F5022
:101628001C5820501D58D8A007D01E501B5E1F50B4
:101638001C5A20501D5A2580D8901B361C361D3642
:10164800242EE7D700D025C00FF026C010F027C001
:1016580011F028C012F029C013F076EC0CF00FC07E
:101668001BF010C01CF011C01DF000D01200216E3C
:10167800800E216069D09F0E166401D065D0FF0EE0
:101688001B6EFF0E1C6E175021C01DF01E6A1D2612
:10169800000E1E221B501D261C501E221EBE0AD0E4
:1016A8001E5004E1800E1D5CD8A004D02150000813
:1016B800800F176EFF0E1B6EFF0E1C6E185016C0A3
:1016C8001DF01E6A1D26000E1E221B501D261C50D2
:1016D8001E221EBE0BD01E5004E1A00E1D5CD8A019
:1016E80005D016500008A00F186E00D016C012F0D2
:1016F800215017241B6E1B04136E165018241C6EE1
:101708001C04146E215014EC11F01A501F6E19C0ED
:1017180020F08386839818C016F01650D8B413D0DA
:1017280001D011D017C021F02150D8B40AD001D06F
:1017380008D01F503AEC13F020503AEC13F0210671
:10174800F3D71606EAD7838812000001AC6F5BD086
:1017580041C00FF0106A000E126E0A0E116E20ECD6
:101768000EF00F50300F0001BC6F41C00FF0106A2F
:10177800000E126E0A0E116EBAEC0FF00F50300FF9
:101788000001BD6F1E0E376EBC0E386E000E396E2E
:10179800000E3B6E1F0E3A6E000E3D6E000E3C6E44
:1017A800020E3E6E020ECCEC09F036D041C00FF0AE
:1017B800106A000E126E0A0E116E20EC0EF00F5019
:1017C800300F0001B96F41C00FF0106A000E126EA1
:1017D8000A0E116EBAEC0FF00F50300F0001BA6FFD
:1017E8005A0E376EB90E386E000E396E070E3B6E04
:1017F8003A68000E3D6E000E3C6E020E3E6E020E02
:10180800CCEC09F009D00001AC51000AD8B4A0D73B
:10181800020AD8B4CBD700D01200000E466E010ED3
:10182800456E818E440E626E010ECCEC11F0010EF5
:1018380060EC11F0010EA8EC11F0020E84EC11F02E
:101848004F04D8A406D0080E0001AD6F000ED5ECE9
:101858000DF0070E4CEC12F0030E84EC11F0030EA1
:101868004CEC12F0010E84EC11F080AA10D0020E9C
:10187800A8EC11F0080E4CEC12F0030EA8EC11F0D5
:10188800030E4CEC12F0010EA8EC11F000D0020E81
:10189800CCEC11F04C04D8A406D0090E0001AD6FB1
:1018A800020ED5EC0DF0090E4CEC12F0030ECCEC48
:1018B80011F0030E4CEC12F0010ECCEC11F080A8E4
:1018C80010D0020E60EC11F0080E4CEC12F0030E72
:1018D80060EC11F0030E4CEC12F0010E60EC11F00C
:1018E80000D012001250D8B405D00F5010101110AB
:1018F800D8A40ED0000E0F6E000E106E000E116EE2
:1019080053D006D0122AD890113210320F3200D09C
:10191800000E0F14146E000E1014156EFE0E111426
:10192800166E145015101610D8B40ED0EBD70CD074
:10193800122A010E0F26000E1022000E1122D89036
:10194800113210320F3200D0000E0F14146E000E38
:101958001014156EFF0E1114166E14501510161073
:10196800D8B408D0E5D706D01206D8900F3610366E
:10197800113600D010BE04D0020E1260F5D700D088
:1019880012B002D0109E00D0D8901232125011120C
:101998001350D8B402D0118E00D00FC00FF010C071
:1019A80010F011C011F000D0120026EC13F066EC14
:1019B80013F030EC13F0700ED36E0EEC00F0C1ECA7
:1019C80012F000D0D4EC12F00FC0B1F010C0B2F099
:1019D800B1C00FF0B2C010F0000E126E050E116EFD
:1019E800ADEC12F00FC017F010C018F02EEC12F08A
:1019F80017C01BF018C01CF019C01DF0000E1E6E99
:101A0800800E1F6E440E206ECAEC0AF01BC042F016
:101A18001CC043F01DC044F042C00FF043C010F09A
:101A280044C011F0000E126E200E136E400E146E9C
:101A38008AEC0DF0D8B002D0010E01D0000E536E22
:101A48005350D8B403D011EC0CF003D037EC0DF0A0
:101A580000D04E04D8A4B6D7000E4E6E97EC10F006
:101A6800B1D70CEF00F0000E466E000E456E819E59
:101A78004E0E626E020E84EC11F0010ECCEC11F0E9
:101A8800010E60EC11F0010EA8EC11F0060E4CEC02
:101A980012F0030E84EC11F0030E4CEC12F0010E60
:101AA80084EC11F080AA10D0020EA8EC11F0060EFA
:101AB8004CEC12F0030EA8EC11F0030E4CEC12F0F3
:101AC800010EA8EC11F000D0020ECCEC11F0060EBD
:101AD8004CEC12F0030ECCEC11F0030E4CEC12F0AF
:101AE800010ECCEC11F080A810D0020E60EC11F0C1
:101AF800080E4CEC12F0030E60EC11F0030E4CECE7
:101B080012F0010E60EC11F000D0120011AE17D0E7
:101B18000FC015F010C016F011C017F0151E161ED4
:101B2800171E152A000E16221722000E15240F6EF6
:101B3800000E1620106E800E1720116E00D014AE05
:101B480017D012C015F013C016F014C017F0151EE8
:101B5800161E171E152A000E16221722000E15240F
:101B6800126E000E1620136E800E1720146E00D011
:101B7800000E0F1A000E101A800E111A000E121AFB
:101B8800000E131A800E141A12500F5C13501058BE
:101B980014501158D8B002D0D89002D0D88000D0B4
:101BA80012000001AE6F0001AE510001D8A41FD091
:101BB8000001AD050001AF6F0001AF510001D8B4BD
:101BC8000CD001D00AD0AFC041F0000EA9EC0BF048
:101BD800F3EC0EF00001AF07EFD7000E416E000ED8
:101BE800A9EC0BF0F3EC0EF0000E4F6E00D0020ED5
:101BF8000001AE19D8A41FD00001AD050001B06FD7
:101C08000001B0510001D8B40CD001D00AD0B0C046
:101C180041F0020EA9EC0BF0F3EC0EF00001B00756
:101C2800EFD7000E416E020EA9EC0BF0F3EC0EF0AC
:101C3800000E4C6E00D01200000E146E12AE07D0CB
:101C4800116C121ED8B0122A010E146E00D010AEFC
:101C580007D00F6C101ED8B0102A010E141A00D02D
:101C6800000E166E000E156E11501210D8B421D049
:101C7800010E136E05D0D89011361236132A00D0F3
:101C880012BE02D0F8D700D0D890153616361150AB
:101C98000F5C12501058D8A006D011500F5E125089
:101CA800105A158000D0D89012321132132EECD76A
:101CB80000D01450D8B405D0156C161ED8B0162A0A
:101CC80000D015C00FF016C010F000D01200206E22
:101CD800800E20603FD09F0E166401D03BD0FF0ECF
:101CE8001A6EFF0E1B6E175020C01CF01D6A1C26B2
:101CF800000E1D221A501C261B501D221DBE0BD083
:101D08001D5004E1800E1C5CD8A005D020500008AE
:101D1800800F176E00D019501E6E18C01FF016C025
:101D280012F0205017241A6E1A04136E16C014F0FD
:101D3800205014EC11F08386839807D01E503AEC9B
:101D480013F01F503AEC13F000D017061728D8A448
:101D5800F5D783881200206E800E20603FD09F0E3A
:101D6800166401D03BD0FF0E1A6EFF0E1B6E175083
:101D780016C01CF01D6A1C26000E1D221A501C26B7
:101D88001B501D221DBE0BD01D5004E1A00E1C5C73
:101D9800D8A005D016500008A00F176E00D0195013
:101DA8001E6E18C01FF016C012F020C013F0165097
:101DB80017241A6E1A04146E205014EC11F083863E
:101DC800839807D01E503AEC13F01F503AEC13F0EA
:101DD80000D017061728D8A4F5D783881200838E59
:101DE8004DEC13F049C00FF04AC010F0FD0E116E13
:101DF800FF0E126E67EC12F00A0E376E49C038F00B
:101E08004AC039F0FF0E3B6E3A68000E3D6E000E78
:101E18003C6E010E3E6E780ECCEC09F0F5EC12F03B
:101E2800839E49C00FF04AC010F0FB0E116EFF0EE2
:101E3800126E67EC12F00A0E376E49C038F04AC0CD
:101E480039F0FF0E3B6E3A68000E3D6E000E3C6E98
:101E5800010E3E6E780ECCEC09F073EC13F0F5EC45
:101E680012F012000600EACF04F0E1CF05F0E2CF4D
:101E780006F0D9CF07F0DACF08F0F3CF09F0F4CFA6
:101E88000AF0F6CF0BF0F7CF0CF0F8CF0DF0F5CF46
:101E98000EF0F2A203D00EEC13F000D0F0A003D0A5
:101EA80002EC13F000D0F0A203D077EC13F000D0CE
:101EB8000EC0F5FF0DC0F8FF0CC0F7FF0BC0F6FF12
:101EC8000AC0F4FF09C0F3FF08C0DAFF07C0D9FF52
:101ED80006C0E2FF05C0E1FF04C0EAFF03C0E9FF56
:101EE80002C0FBFF01C0FAFF1100838E49C00FF04A
:101EF8004AC010F0FD0E116EFF0E126E67EC12F064
:101F08000A0E376E49C038F04AC039F0FF0E3B6EF2
:101F18003A68000E3D6E000E3C6E010E3E6E780E65
:101F2800CCEC09F0F5EC12F0839E49C00FF04AC0E2
:101F380010F0FB0E116EFF0E126E67EC12F00A0E17
:101F4800376E49C038F04AC039F0FF0E3B6E3A6828
:101F5800000E3D6E000E3C6E010E3E6E780ECCEC0F
:101F680009F0F5EC12F051EC05F01200000E146EB9
:101F780010AE07D00F6C101ED8B0102A010E146EC8
:101F880000D012AE05D0116C121ED8B0122A00D0A3
:101F980011501210D8B41DD0010E136E05D0D89070
:101FA80011361236132A00D012BE02D0F8D700D04C
:101FB80011500F5C12501058D8A005D011500F5E68
:101FC8001250105A00D0D89012321132132EF0D776
:101FD80000D01450D8B405D00F6C101ED8B0102AF9
:101FE80000D00FC00FF010C010F000D01200116E1A
:101FF800000EAC6E000EAB6E11A002D0AC8800D003
:1020080011A203D0AC8CAB8C00D011A402D0AC8E42
:1020180000D011A602D0AB8802D0AB8A00D011B88C
:10202800AC849E9811AA02D0AB8600D011AC02D025
:102038009D8A01D09D9A9E9A11AE02D09D8801D0AA
:102048009D980FC0AFFF1050B06EAC8AAB8E949CB9
:10205800948EACB8ACBE02D0948C00D0120023C0D1
:1020680016F025C017F029C018F02AC019F0215021
:102078006BEC0EF0235027242B6E2B04166E25C014
:1020880017F029C018F02AC019F021506BEC0EF097
:1020980023C016F027C017F029C018F02AC019F07D
:1020A8002150AFEC0EF023C016F027C017F029C05E
:1020B80018F02AC019F0215025242B6E2B04AFEC00
:1020C8000EF0120000EE80F0250EEE6AE806FDE143
:1020D80000EE42F0190EEE6AE806FDE1DA0EF66E41
:1020E800260EF76E000EF86E00EEB3F010EE0CF050
:1020F8000900F5CFEEFFE550E150FAE1340EF66E37
:10210800260EF76E000EF86E00EE5BF010EE17F07C
:102118000900F5CFEEFFE550E150FAE1000EF86E48
:102128000001D9EF0CF0010E06D04E04D8A405D05A
:10213800000E4E6E000E4D6E1DD0010E84EC11F097
:10214800010ECCEC11F0010EA8EC11F0010E60ECC0
:1021580011F079EC0FF0000E84EC11F0000ECCECCD
:1021680011F0000EA8EC11F0000E60EC11F079EC03
:102178000FF000D04D04D8B4D8D7120015C00FF016
:1021880016C010F0000E126EFA0E116EADEC12F0C1
:102198000FC019F010C01AF019C017F01AC018F0C3
:1021A800171E181E174A182AFF0E1724196EFF0E3D
:1021B80018201A6EB80EB16E19C0D6FF1A50D76E15
:1021C800A192B18000D0A1A2FED7B19012003D50DB
:1021D80000083B24166ED8803D34176E3FC018F0B7
:1021E80040C019F03950AFEC0EF039C021F03AC0B8
:1021F80022F03BC023F03CC024F03DC025F03EC097
:1022080026F0000E286E030E276E000E2A6E000EB2
:10221800296E3FC02BF040C02CF0A8EC08F012004B
:10222800156E2A0E5EEC13F0000E56EC13F01550E6
:10223800572456EC13F0000E56EC13F013505724A5
:1022480056EC13F02B0E5EEC13F0000E56EC13F068
:1022580012505A2456EC13F0000E56EC13F014509A
:102268005A2456EC13F02C0E5EEC13F01200296E73
:1022780029C02AF02B6A0ED021C016F023C017F00F
:1022880024C018F025C019F02A50AFEC0EF02A4AE5
:102298002B2A00D0225029C026F0276A2626000EB5
:1022A800272226502A5C2B50800A286E2750800A45
:1022B8002858D8A0E1D712000001A76F010E596E67
:1022C800A7C041F059509DEC03F00AD0829001D08C
:1022D8008280829214D0829001D0828082820FD034
:1022E8000001A751000AD8B4F1D7010AD8B4F0D731
:1022F800030AD8B4F0D7010AD8B4EFD700D0120037
:102308000001A76F000E596EA7C041F059509DEC0F
:1023180003F00AD0819801D08188819A14D08198DD
:1023280001D08188818A0FD00001A751000AD8B452
:10233800F1D7010AD8B4F0D7030AD8B4F0D7010A04
:10234800D8B4EFD700D012000001A76F030E596E62
:10235800A7C041F059509DEC03F00AD0849201D0F7
:102368008482849414D0849201D0848284840FD08F
:102378000001A751000AD8B4F1D7010AD8B4F0D7A0
:10238800030AD8B4F0D7010AD8B4EFD700D01200A6
:102398000001A76F020E596EA7C041F059509DEC7D
:1023A80003F00AD0839001D08380839214D0839065
:1023B80001D0838083820FD00001A751000AD8B4CE
:1023C800F1D7010AD8B4F0D7030AD8B4F0D7010A74
:1023D800D8B4EFD700D012002A0E5EEC13F0000E2E
:1023E80056EC13F0000E56EC13F0000E56EC13F0FA
:1023F8007F0E56EC13F02B0E5EEC13F0000E56EC2D
:1024080013F0000E56EC13F0000E56EC13F09F0E6E
:1024180056EC13F012000FC013F010C014F003D0E4
:10242800134A142A00D013C0D9FF14C0DAFFDF50B2
:10243800D8A4F6D70FC011F010C012F0111E121E4A
:10244800114A122A135011240F6E14501220106EC4
:1024580000D01200000E1A6E18AE07D0176C181EA6
:10246800D8B0182A010E1A6E00D017C00FF018C085
:1024780010F0116A8E0E126E1AC013F076EC0CF082
:102488000FC017F010C018F011C019F000D01200DA
:102498000001AF6FAFC0B0F00001B0510001D8B477
:1024A8000CD001D00AD0B0C041F0595038EC07F038
:1024B80079EC0FF00001B007EFD7000E416E5950CC
:1024C80038EC07F012000FC013F010C014F005D05C
:1024D800134A142A114A122A00D011C0F6FF12C05A
:1024E800F7FF13C0D9FF14C0DAFF0800F5CFDFFFEC
:1024F800DF50D8A4EDD71200196E800E196013D0E2
:102508009F0E166401D00FD016C012F01928136E52
:102518001628146E195014EC11F0185056EC13F0DC
:10252800175056EC13F0120083888396800EC76EFE
:10253800300EC66E44EC09F0F0EC11F051EC0AF0E4
:10254800360E5EEC13F0C00E56EC13F0010E566E0C
:1025580012000F501102F3CF13F0F4CF14F00F5004
:102568001202F350142610501102F350142613C00F
:102578000FF014C010F000D0120030EC13F066EC2D
:1025880013F0700ED36E470E936EF292F090F092A5
:10259800F19CF19AF188F288F086F088F28E1200A8
:1025A800C28200D0C2B2FED7C450126E116AC350A4
:1025B8001124136E000E1220146E13C00FF014C0F5
:1025C80010F000D01200000E166E800E176EA00ECE
:1025D800186E22C019F023C01AF0000E3BEC0BF065
:1025E8001200030ED56EDB0ED66E0B0ED76EF2946C
:1025F800D58E00D0F2A4FED7D59E120045504610C5
:10260800D8B403D0F090010E02D0F090000E4C6EBA
:1026180000D0120045504610D8B403D0F292010EF3
:1026280002D0F292000E4F6E00D01200013030003E
:1026380030300044003000300030003000440030BA
:10264800003000009268470E936E000E946E000EE4
:10265800956E000E966E1200000E106E190E0F6E1B
:102668003C0EFBEC0FF0600ED36E1200106E9E96BF
:10267800C9CF0FF010C0C9FF00D0C7A0FED7120005
:102688008394000E166E640E156EC2EC10F08384EF
:102698001200F90ECB6E050ECA6E4A0EBB6E3C0ECA
:1026A800BA6E1200116E8398838611503AEC13F0BB
:1026B80083881200116E8398839611503AEC13F0B8
:1026C80083881200010EC26E0E0EC16EA90EC06E76
:1026D8001200303000303000303000303000000E52
:0E26E800BA6E81961200F092010E4E6E120034
:10FDBC0000000000000000005F00000007000700CA
:10FDCC00147F147F14242A7F2A12231308646236AA
:10FDDC00495620500008070300001C224100004136
:10FDEC00221C002A1C7F1C2A08083E080800807070
:10FDFC0030000808080808000060600020100804A3
:10FE0C00023E5149453E00427F40007249494946F5
:10FE1C002141494D331814127F1027454545393C73
:10FE2C004A49493141211109073649494936464960
:10FE3C0049291E0000140000004034000000081482
:10FE4C0022411414141414004122140802015909FB
:10FE5C00063E415D594E7C1211127C7F4949493650
:10FE6C003E414141227F4141413E7F494949417FC9
:10FE7C00090909013E414151737F0808087F00417F
:10FE8C007F41002040413F017F081422417F4040C8
:10FE9C0040407F021C027F7F0408107F3E4141419D
:10FEAC003E7F090909063E4151215E7F0919294609
:10FEBC00264949493203017F01033F4040403F1F1F
:10FECC002040201F3F4038403F6314081463030454
:10FEDC007804036159494D43007F414141020408B4
:10FEEC001020004141417F04020102044040404087
:10FEFC0040000307080020545478407F28444438BD
:10FF0C003844444428384444287F38545454180006
:10FF1C00087E090218A4A49C787F08040478004485
:10FF2C007D40002040403D007F1028440000417F70
:10FF3C0040007C047804787C0804047838444444F9
:10FF4C0038FC1824241818242418FC7C08040408F1
:10FF5C00485454542404043F44243C4040207C1C0A
:10FF6C002040201C3C4030403C44281028444C90FD
:10FF7C0090907C4464544C44000836410000007757
:10FF8C000000004136080002010204024E535020CA
:10FF9C004E534C54204557502045574C54204D52ED
:10FFAC0000454345333330314C2046616C6C203274
:10FFBC00312D5333004E4F5254482F534F55544804
:10FFCC0000454153542F57455354004E2F53204C4A
:10FFDC005400452F57204C54004D6F64653A004631
:10FFEC00523A0046533A00504E53005045570020A9
:04FFFC00002A0000D7
:020000040020DA
:08000000FFFFFFFFFFFFFFFF00
:020000040030CA
:0E000000FF08191EFF8281FF0FC00FE00F40A6
:00000001FF
