:040000000CEF00F011
:10000800FACF03F0FBCF04F0E9CF05F03BED0DF09C
:10001800B9EF0CF042AE1CD02D0E0001EB6F7F0E35
:100028004214176E186A000E1A6E0A0E196E2AEC20
:100038000CF01750300F0001EC6F7F0E42141F6E4A
:10004800206A000E226E0A0E216EFAEC0CF01BD00C
:100058002B0E0001EB6F42C017F043C018F0000EE2
:100068001A6E0A0E196E2AEC0CF01750300F0001A8
:10007800EC6F42C01FF043C020F0000E226E0A0E43
:10008800216EFAEC0CF01F50300F0001ED6F00D01C
:1000980045AE29D02D0E0001EF6F44C0FDF045C0DC
:1000A800FEF00001FD1FFE1FFD4BFE2BFDC028F1D9
:1000B800FEC029F128C117F029C118F0000E1A6EE8
:1000C8000A0E196E2AEC0CF01750300F0001F06F71
:1000D80028C11FF029C120F0000E226E0A0E216EE1
:1000E800FAEC0CF01BD02B0E0001EF6F44C017F098
:1000F80045C018F0000E1A6E0A0E196E2AEC0CF0A4
:100108001750300F0001F06F44C01FF045C020F0B9
:10011800000E226E0A0E216EFAEC0CF01F50300F02
:100128000001F16F00D069380F0B300F0001D56F57
:1001380069500F0B300F0001D66F6A380F0B300F64
:100148000001D86F6A500F0B300F0001D96F5D386E
:100158000F0B300F0001DB6F5D500F0B300F0001EC
:10016800DC6F6B380F0B300F0001CC6F6B500F0B2F
:10017800300F0001CD6F67380F0B300F0001CF6FC4
:1001880067500F0B300F0001D06F6F380F0B300F17
:100198000001D26F6F500F0B300F0001D36F500466
:1001A800D8A40BD0E70E116E000E126EED0E136E72
:1001B800FF0E146E6AEC10F00BD0E70E116E000EF5
:1001C800126EF10E136EFF0E146E6AEC10F000D072
:1001D8005AC017F0186A000E1A6E640E196E2AECCF
:1001E8000CF01750300F0001E36F000E1A6E0A0E64
:1001F800196E5AC017F0186A2AEC0CF017C01FF0D5
:1002080018C020F0000E226E0A0E216EFAEC0CF0D7
:100218001F50300F0001E46F5AC01FF0206A000E13
:10022800226E0A0E216EFAEC0CF01F50300F0001FE
:10023800E56F4AC017F04BC018F0030E1A6EE80EAF
:10024800196E2AEC0CF01750300F0001DE6F000E0B
:100258001A6E640E196E4AC017F04BC018F02AECDB
:100268000CF017C01FF018C020F0000E226E0A0E06
:10027800216EFAEC0CF01F50300F0001DF6F000EFA
:100288001A6E0A0E196E4AC017F04BC018F02AEC05
:100298000CF017C01FF018C020F0000E226E0A0ED6
:1002A800216EFAEC0CF01F50300F0001E06F4AC0CD
:1002B8001FF04BC020F0000E226E0A0E216EFAECE1
:1002C8000CF01F50300F0001E16F170E396EEB0E66
:1002D8003A6E000E3B6EFF0E3D6EE00E3C6E000E59
:1002E8003F6E000E3E6E020E406E010E0CEC08F0E2
:1002F800170E396EEF0E3A6E000E3B6EFF0E3D6E16
:10030800E00E3C6E000E3F6E000E3E6E020E406E1A
:10031800460E0CEC08F0340E396ED50E3A6E000E0F
:100328003B6E070E3D6E3C68000E3F6E000E3E6E43
:10033800020E406E0F0E0CEC08F0520E396ECC0E09
:100348003A6E000E3B6E070E3D6EE00E3C6E000EE0
:100358003F6E000E3E6E020E406E0F0E0CEC08F063
:10036800820E396EE70E3A6E000E3B6EF80E3D6E49
:10037800000E3C6E000E3F6E000E3E6E010E406E8B
:100388005F0E0CEC08F0960E396EE30E3A6E000E16
:100398003B6E070E3D6EE00E3C6E000E3F6E000E8B
:1003A8003E6E010E406E0A0E0CEC08F0960E396E89
:1003B800DE0E3A6E000E3B6E070E3D6EE00E3C6E92
:1003C800000E3F6E000E3E6E010E406E5D0E0CEC90
:1003D80008F012001F0E306E000E316E99D1250EF6
:1003E8003818D8B404D03850F4EC11F091D1000E7C
:1003F800376E000E366E000E356E05D035841D4AF8
:100408001E2A01D00BD01DC0F6FF1EC0F7FF080042
:10041800F550300AD8B4F2D701D0F5D71DC0F6FF91
:100428001EC0F7FF0800F55027EC11F0D8A03BD00C
:10043800000E376E000E366E00D036C011F037C091
:1004480012F0000E146E0A0E136EC9EC10F011C0F3
:1004580036F012C037F0D00E2B6EFF0E2C6E1DC07A
:10046800F6FF1EC0F7FF0800F5502D6E2E6A2B50C0
:100478002D262C502E222D5036262E5037221D4A3E
:100488001E2A1DC0F6FF1EC0F7FF0800F55027EC16
:1004980011F0D8A008D0D1D706D048D11BD0358EBE
:1004A80019D036D117D01DC0F6FF1EC0F7FF1D4A60
:1004B8001E2A0800F5CF38F03850000AD8B436D1D3
:1004C800640AD8B407D00D0AD8B404D0110AD8B435
:1004D800E6D71ED135BE15D030C0D9FF31C0DAFFFE
:1004E800DECF33F0DDCF34F0020E3026000E31229D
:1004F80034AE4ED0030E3512336C341ED8B0342AC5
:1005080047D030C0D9FF31C0DAFFDECF33F0DDCFBE
:1005180034F0020E3026000E31223AD0010E386E29
:10052800050E3818D8B43DD001D03BD03850020D54
:10053800040EF324F66EFF0EF420F76E0900F55052
:10054800335C0900F5503458D8A02BD001D029D0FD
:10055800382AE6D726D0010E386E040E3818D8B4DB
:1005680020D001D01ED03850020D0E0EF324F66EA6
:10057800FF0EF420F76E0900F550335C0900F550C2
:100588003458D8A00ED001D00CD0382AE6D709D0DC
:100598003550800B000AD8B4C1D7800AD8B4DBD74D
:1005A80000D036503710D8B40AD035C02BF0030E1F
:1005B8002B16D8B404D03606D8A0370600D0800E43
:1005C80038BE7F0E2B6E3650385C3750800A2B5859
:1005D800D8B007D03850365E000E38BEFF0E375AF6
:1005E80005D0000E376E000E366E00D035A41AD036
:1005F80035C02BF0030E2B16D8B404D02D0EF4EC16
:1006080011F000D036503710D8B426D0300EF4ECA4
:1006180011F03606D8A0370636503710D8B41CD09B
:10062800F5D71AD036503710D8B40CD0200EF4ECC9
:1006380011F03606D8A0370636503710D8B402D095
:10064800F5D700D035C02BF0030E2B16D8B404D044
:100658002D0EF4EC11F000D038C032F053D045D054
:100668003250020D040EF324F66EFF0EF420F76EDE
:100678000900F5CF13F00A00F5CF14F033C011F0DC
:1006880034C012F0BBEC0EF011C018F012C019F013
:10069800000E1B6E0A0E1A6E61EC0FF01850300F28
:1006A800386E2CD033C011F034C012F03250020D25
:1006B8000E0EF324F66EFF0EF420F76E0900F5CF48
:1006C80013F00A00F5CF14F0BBEC0EF011500F0B2D
:1006D8002F6E2F50010DA00EF324F66EFF0EF4209E
:1006E800F76E0800F5CF38F009D03550800B000AB6
:1006F800D8B4B6D7800AD8B4D5D700D03850F4ECDF
:1007080011F000D032063228D8B402D0EED700D08B
:100718001DC0F6FF1EC0F7FF1D4A1E2A0800F5CFB0
:1007280038F03850D8B402D05AD600D01200AFEC06
:1007380011F0B4EC10F0000E256E000E246E68EC7B
:1007480011F0000E4E6E010E4F6E4EC011F04FC0EC
:1007580012F04B0E136EFF0E146E6AEC10F0010EC1
:10076800396E4EC03AF04FC03BF0FF0E3D6E3C680C
:10077800000E3F6E000E3E6E010E406E010E0CEC38
:1007880008F04EC011F04FC012F0D00E136EFF0EDD
:10079800146E6AEC10F00B0E396E4EC03AF04FC072
:1007A8003BF0F80E3D6E1F0E3C6E000E3F6E000EC5
:1007B8003E6E010E406E180E0CEC08F0000E1D6E19
:1007C800280E1C6E000E1F6E170E1E6E000E216E78
:1007D800020E206EFF0E236EE00E226ED4EC05F0A2
:1007E8004EC011F04FC012F0F90E136EFF0E146ECA
:1007F8006AEC10F0170E396E4EC03AF04FC03BF05D
:10080800FF0E3D6EE00E3C6E000E3F6E000E3E6E1B
:10081800020E406E2D0E0CEC08F04EC011F04FC0C9
:1008280012F0F30E136EFF0E146E6AEC10F0000E49
:100838001D6E6E0E1C6E000E1F6E170E1E6E000EC5
:10084800216E020E206EFF0E236EE00E226ED4EC97
:1008580005F0170E396E4EC03AF04FC03BF0FF0E50
:100868003D6EE00E3C6E000E3F6E000E3E6E020EB8
:10087800406E730E0CEC08F04EC011F04FC012F031
:10088800E30E136EFF0E146E6AEC10F0280E396E2C
:100898004EC03AF04FC03BF0000E3D6E1F0E3C6E4E
:1008A800000E3F6E000E3E6E010E406E320E0CECD6
:1008B80008F04EC011F04FC012F0E80E136EFF0E94
:1008C800146E6AEC10F0470E396E4EC03AF04FC005
:1008D8003BF0F80E3D6E000E3C6E000E3F6E000EB3
:1008E8003E6E010E406E320E0CEC08F04EC011F058
:1008F8004FC012F0DD0E136EFF0E146E6AEC10F08E
:10090800780E396E4EC03AF04FC03BF0000E3D6E87
:100918001F0E3C6E000E3F6E000E3E6E010E406EC6
:10092800550E0CEC08F04EC011F04FC012F0FC0E42
:10093800136EFF0E146E6AEC10F08C0E396E4EC0FA
:100948003AF04FC03BF0FF0E3D6E3C68000E3F6E24
:10095800000E3E6E010E406E0C0E0CEC08F04EC000
:1009680011F04FC012F0F50E136EFF0E146E6AEC04
:1009780010F08C0E396E4EC03AF04FC03BF0FF0EAF
:100988003D6E3C68000E3F6E000E3E6E010E406EDE
:100998005F0E0CEC08F0120012EC0FF09BEC03F069
:1009A800010E506E818A84828284320E5A6E5A50A9
:1009B800C9EC0BF000D089EC0EF04AC011F04BC026
:1009C80012F0B3EC0DF05AC01FF0206A23EC0EF0C1
:1009D8004AC011F04BC012F0B3EC0DF05D506D1829
:1009E800D8B45ED05DC06DF04CEC10F014C042F08D
:1009F80015C043F042C011F043C012F0000E146E4F
:100A0800090E136EC9EC10F011C017F012C018F0DF
:100A1800000E1A6E050E196E2AEC0CF0200E172423
:100A2800446E000E1820456ED0EC0FF01FC04AF03F
:100A380020C04BF0160E1D6EFF0E1E6E69C01FF013
:100A4800206A6AC021F0226A5DC023F0246A6BC064
:100A580025F0266A67C027F0286A6FC029F02A6A3D
:100A6800EEEC01F0770E1D6EFF0E1E6E42C01FF0F9
:100A780043C020F044C021F045C022F0EEEC01F064
:100A88008C0E1D6EFF0E1E6E4AC01FF04BC020F06C
:100A98005AC021F0226AEEEC01F00EEC00F000D012
:100AA80048044910D8A487D7000E496E000E486E36
:100AB800B10E1D6EFF0E1E6E51C01FF0206AEEECC7
:100AC80001F0F288F19C5B68000E01012B6F000EAB
:100AD8002A6F01012BBF0AD001012B5120E1150E0D
:100AE80001012A5DD8B01BD001D019D0800E0101B8
:100AF8002A25D96E000E01012B21DA6E5150DE181D
:100B0800D8A408D02AC15BF0000E01012B6F150E86
:100B18002A6F00D001012A4B2B2BDBD700D05B2892
:100B2800D8A407D0610E1D6EFF0E1E6EEEEC01F00C
:100B380042D7FBEC11F0C10E1D6EFF0E1E6E5BC09E
:100B48001FF0206AEEEC01F0050E5B18D8A40BD05C
:100B58005050D8A402D0010E01D0000E506E00D023
:100B680076EC11F000D0060E5B18D8A403D003EC85
:100B780011F000D0070E5B18D8A403D0DDEC10F0FC
:100B880000D0080E5B18D8A416D7340E1D6EFF0EC1
:100B98001E6EEEEC01F056EC0EF00DD70CEF00F0E7
:100BA80020C024F021C025F0241E251E244A252A11
:100BB800010E24242A6E000E25202B6E000E276EAF
:100BC800010E266E20C024F021C025F0D8902436CE
:100BD8002536241E251E244A252A24C028F025C08F
:100BE80029F0000E2D6E000E2C6E20C02EF021C0B4
:100BF8002FF01E502024186E22C019F023C01AF0BE
:100C08001C509CEC10F0205000081E24186E22C0C6
:100C180019F023C01AF01C509CEC10F01EC018F0FC
:100C280022C019F023C01AF01C5020249CEC10F0AC
:100C38001EC018F022C019F023C01AF02050000876
:100C48001C249CEC10F078D02BBE0BD02E06D8A01C
:100C58002F06020E2826000E292228502A2629505F
:100C68002B222C4A2D2A020E2626000E2722265039
:100C78002A2627502B221E502E24186E22C019F027
:100C880023C01AF01C502C249CEC10F01E502E246B
:100C9800186E22C019F023C01AF02C5000081C242A
:100CA8009CEC10F02E5000081E24186E22C019F07B
:100CB80023C01AF01C502C249CEC10F02E50000875
:100CC8001E24186E22C019F023C01AF02C500008F8
:100CD8001C249CEC10F01E502C24186E22C019F015
:100CE80023C01AF01C502E249CEC10F01E502C240B
:100CF800186E22C019F023C01AF02E5000081C24C8
:100D08009CEC10F02C5000081E24186E22C019F01C
:100D180023C01AF01C502E249CEC10F02C50000814
:100D28001E24186E22C019F023C01AF02E50000895
:100D38001C249CEC10F000D02E502C5C2D50800A06
:100D4800246E2F50800A2458D8A07ED71200F29221
:100D58005250D8B4A0D0CE50CFCF01F0026A01C013
:100D680002F0016A0110466E0250476E000ECF6E07
:100D7800000ECE6E90D0000ECF6E000ECE6E9E90FE
:100D8800900ECD6ECD80000E586E000E0001F36FF0
:100D9800000EF46F000EF56F000EF66F010E526E26
:100DA80078D08AD0350E465C210E4758D8A009D095
:100DB8001C0E465C250E4758D8B003D0020E526E62
:100DC8002AD033EC12F027D026D076D0A10E465C7C
:100DD8000F0E4758D8A009D0880E465C130E475806
:100DE800D8B003D0030E526E54D033EC12F051D069
:100DF80050D062D0910E465C010E4758D8A008D05A
:100E0800BC0E465C020E4758D8B002D0040ED7D7A5
:100E180033EC12F000D0F19C4FD0910E465C010EDD
:100E28004758D8A033D0080E465C070E4758D8B0AC
:100E38002DD0D8900001F3350001F36F0001F4358F
:100E48000001F46F0001F5350001F56F0001F6357A
:100E58000001F66FE90E465C030E4758D8A008D08B
:100E6800010E0001F327000EF423F523F62300D02A
:100E7800582A1F0E5864B6D7000E496E010E486EE8
:100E8800F4C051F0F298000E526EACD733EC12F069
:100E980000D0F18C11D05250000AD8B46CD7010A96
:100EA800D8B480D7030AD8B491D7010AD8B4A2D746
:100EB800070AD8B4B2D700D01200366E800E36605A
:100EC800A6D09F0E2E6401D0A2D03450D8A403D04F
:100ED800010E346E00D01F0E2F6404D07E0E2F64D6
:100EE80003D000D03F0E2F6E000E386E040E38640B
:100EF80001D08DD0530E2F6015D0E00E2F24116E27
:100F0800126AFF0E1222000E146E050E136EC9EC43
:100F180010F038501126000E1222290E1124F66EF8
:100F2800FD0E14D0AD0E2F24116E126AFF0E122280
:100F3800000E146E050E136EC9EC10F03850112611
:100F4800000E1222280E1124F66EFE0E1220F76EE5
:100F58000800F5CF35F000D0000E376E060E376466
:100F680001D053D035A023D03404D8A40CD02E50AF
:100F78003724186E30C019F031C01AF036503824B2
:100F88009CEC10F03ED037503402F3502E24236EE0
:100F980034C024F034C025F030C026F031C027F02A
:100FA80038503402F350362487EC0FF02AD03050F2
:100FB800321804E131503318D8B423D03404D8A4FB
:100FC8000CD02E503724186E32C019F033C01AF0E6
:100FD800365038249CEC10F014D037503402F350BB
:100FE8002E24236E34C024F034C025F032C026F0FD
:100FF80033C027F038503402F350362487EC0FF012
:1010080000D0372AD8903532A9D7382A6FD712009E
:101018000101216F21C127F139C026F13AC011F031
:101028003BC012F0EFEC0FF011C022F112C023F117
:10103800000E0101256F000E246F6AD06E50D8B4DF
:101048003AD04050050D010127510001FB6FFC6BA0
:10105800F3500001FB27F4500001FC230001FCBF02
:101068002AD00001FC5105E1810E0001FB5DD8A0EA
:1010780022D0000E0101276F4050070DF3500101E7
:101088002625030F0101266FA00E0101266504D055
:10109800A00E0101266F00D0010124513A24D96E17
:1010A800010125513B20DA6E200EDE18D8B42CD071
:1010B80002D02AD000D026C12EF0010124513A24B2
:1010C800D96E010125513B20DA6EDF502F6E3CC0EE
:1010D80030F03DC031F03EC032F03FC033F040C088
:1010E80034F00101275161EC07F04050060DF35030
:1010F800010127250101276F800E0101276504D012
:10110800800E0101276F00D00101244B252B00D050
:10111800010122510101245D0101235101012559D9
:10112800D8A08CD71200010EECEC11F0000E186E4E
:10113800960E176EE9EC0EF0110EECEC11F0010EA4
:10114800186EF40E176EE9EC0EF0B10EECEC11F01F
:10115800010EE4EC11F02C0EE4EC11F02D0EE4EC91
:1011680011F0B20EECEC11F0010EE4EC11F02C0EC3
:10117800E4EC11F02D0EE4EC11F0B30EECEC11F0F0
:10118800010EE4EC11F02C0EE4EC11F02D0EE4EC61
:1011980011F0010EE4EC11F02C0EE4EC11F02D0E20
:1011A800E4EC11F0B40EECEC11F0070EE4EC11F0E5
:1011B800C00EECEC11F0A20EE4EC11F0020EE4EC1F
:1011C80011F0840EE4EC11F0C10EECEC11F0C50E38
:1011D800E4EC11F0C20EECEC11F00A0EE4EC11F0A4
:1011E800000EE4EC11F0C30EECEC11F08A0EE4EC06
:1011F80011F02A0EE4EC11F0C40EECEC11F08A0E9A
:10120800E4EC11F0EE0EE4EC11F0C50EECEC11F08C
:101218000E0EE4EC11F0200EECEC11F0360EECECB6
:1012280011F0C80EE4EC11F03A0EECEC11F0050EDA
:10123800E4EC11F012001FC023F0246A256A1E3462
:10124800233601E324802350266E2650D8A402D0EA
:101258000ED06CD022C023F0246A256A21342336AC
:1012680001E3248023502B6E2B50D8A407D0000E06
:101278001D6E000E1E6E000E1F6E58D02B507B0F79
:1012880026261FC02BF022502B1A800E2B161E8EDE
:10129800218EFF0E2016FF0E2116000E2216000EBC
:1012A800276E000E286E000E296E070E2A6E00D0DB
:1012B8001DA007D02050272621502822225029225D
:1012C80000D0D8901F321E321D32D89020362136D9
:1012D80022362A2EEDD700D0090E2A6E00D01DA086
:1012E80007D020502726215028222250292200D01A
:1012F800D8901F321E321D32D89029322832273218
:101308002A2EEDD700D027C011F028C012F029C02E
:1013180013F026C014F02BC015F066EC0BF011C0CA
:101328001DF012C01EF013C01FF000D01200E00E16
:10133800ECEC11F0020EE4EC11F01C0EE4EC11F0F0
:10134800070EE4EC11F0120EE4EC11F0370EE4ECA9
:1013580011F0320EE4EC11F0290EE4EC11F02D0E30
:10136800E4EC11F0290EE4EC11F0250EE4EC11F098
:101378002B0EE4EC11F0390EE4EC11F0000EE4EC65
:1013880011F0010EE4EC11F0030EE4EC11F0100E74
:10139800E4EC11F0E10EECEC11F0030EE4EC11F0CA
:1013A8001D0EE4EC11F0070EE4EC11F0060EE4EC6F
:1013B80011F02E0EE4EC11F02C0EE4EC11F0290ED5
:1013C800E4EC11F02D0EE4EC11F02E0EE4EC11F02B
:1013D8002E0EE4EC11F0370EE4EC11F03F0EE4ECC5
:1013E80011F0000EE4EC11F0000EE4EC11F0020E26
:1013F800E4EC11F0100EE4EC11F0130EECEC11F02B
:10140800000E186E0A0E176EE9EC0EF0290EECECC1
:1014180011F0000E186E640E176EE9EC0EF0120053
:1014280013C015F0166A176A1234153601E31680D0
:1014380015501F6E1F50D8A402D039D063D0170E94
:10144800156E11C016F012C017F013C018F0152849
:10145800196E04D0D890183217321632192EFAD7CE
:1014680016501A6E128EFF0E1116FF0E1216000E6F
:10147800131611501B6E12501C6E13501D6E1E6AEF
:101488008E0E1F5E1FAE10D01F50800A8F0FD8B06F
:1014980003D00DD037D000D0D8901E321D321C3268
:1014A8001B321F3EF9D719D0170E1F6411D0000E3A
:1014B800116E000E126E000E136E000E146E22D006
:1014C80007D0D8901B361C361D361E361F0600D096
:1014D8001F50D8B402D0F5D700D01A50D8B409D0CC
:1014E8001E1E1D1E1C1E1B6C000E1C221D221E22F1
:1014F80000D01BC011F01CC012F01DC013F01EC09C
:1015080014F000D012002EC032F0336A346A2D3441
:10151800323601E333803250396E3950D8A402D0C4
:101528000ED061D031C032F0336A346A303432368A
:1015380001E3338032503A6E3A50D8A407D0000EF7
:101548002C6E000E2D6E000E2E6E4DD0000E366ED7
:10155800000E376E000E386E3A50890F395E2EC075
:101568003AF031503A1A800E3A162D8EFF0E2C168C
:10157800FF0E2D16000E2E16308EFF0E2F16FF0EA4
:101588003016000E3116180E356E00D0D89036364B
:10159800373638362F502C5C30502D5831502E5855
:1015A800D8A007D02F502C5E30502D5A31502E5ACB
:1015B8003680D8902C362D362E36352EE7D700D0EB
:1015C80036C011F037C012F038C013F039C014F02B
:1015D8003AC015F066EC0BF011C02CF012C02DF0DB
:1015E80013C02EF000D01200236E800E236069D045
:1015F8009F0E186401D065D0FF0E1D6EFF0E1E6E83
:10160800195023C01FF0206A1F26000E20221D50EB
:101618001F261E50202220BE0AD0205004E1800E32
:101628001F5CD8A004D023500008800F196EFF0E4D
:101638001D6EFF0E1E6E1A5018C01FF0206A1F265E
:10164800000E20221D501F261E50202220BE0BD027
:10165800205004E1A00E1F5CD8A005D01850000847
:10166800A00F1A6E00D018C014F0235019241D6E54
:101678001D04156E18501A241E6E1E04166E235073
:101688003AEC0FF01C50216E1BC022F08386839821
:101698001AC018F01850D8B413D001D011D019C0FE
:1016A80023F02350D8B40AD001D008D021509BECA5
:1016B80011F022509BEC11F02306F3D71806EAD755
:1016C800838812001450D8B405D01150121013108A
:1016D800D8A40ED0000E116E000E126E000E136EFE
:1016E80053D006D0142AD89013321232113200D0B7
:1016F800000E1114166E000E1214176EFE0E13143F
:10170800186E165017101810D8B40ED0EBD70CD08E
:10171800142A010E1126000E1222000E1322D89050
:1017280013321232113200D0000E1114166E000E50
:101738001214176EFF0E1314186E16501710181087
:10174800D8B408D0E5D706D01406D890113612368A
:10175800133600D012BE04D0020E1460F5D700D0A4
:1017680014B002D0129E00D0D89014321450131224
:101778001550D8B402D0138E00D011C011F012C089
:1017880012F013C013F000D012000101246F040EF0
:10179800CB6E070ECA6E000E206E800E216E400EB4
:1017A800226E01012451F0EC10F019C01DF01AC08E
:1017B8001EF01BC01FF01FEC09F01DC02CF01EC04E
:1017C8002DF01FC02EF0000E2F6EA00E306E410EB1
:1017D800316E87EC0AF02CC021F12DC022F12EC009
:1017E80023F121C111F022C112F023C113F014EC2E
:1017F8000AF011C025F112C026F1010124513B6EF7
:101808003C6A010125513B5C3C50800A3D6E010158
:101818002651800A3D58D8B004D00101254B262B0B
:1018280000D025C13BF0030E3B163B38F00B0C09EA
:10183800BD6E25C13BF026C13CF03C343C323B3206
:101848003C343C323B323B50BE6E1200000E1C6EE4
:101858001AAE07D0196C1A1ED8B01A2A010E1C6EBF
:1018680000D018AE07D0176C181ED8B0182A010E71
:101878001C1A00D0000E1E6E000E1D6E19501A1094
:10188800D8B421D0010E1B6E05D0D89019361A365F
:101898001B2A00D01ABE02D0F8D700D0D8901D3627
:1018A8001E361950175C1A501858D8A006D019506F
:1018B800175E1A50185A1D8000D0D8901A32193263
:1018C8001B2EECD700D01C50D8B405D01D6C1E1EA2
:1018D800D8B01E2A00D01DC017F01EC018F000D0C6
:1018E8001200226E800E22603FD09F0E186401D035
:1018F8003BD0FF0E1C6EFF0E1D6E195018C01EF057
:101908001F6A1E26000E1F221C501E261D501F2255
:101918001FBE0BD01F5004E1A00E1E5CD8A005D03E
:1019280018500008A00F196E00D01B50206E1AC066
:1019380021F018C014F022C015F0185019241C6E9C
:101948001C04166E22503AEC0FF08386839807D059
:1019580020509BEC11F021509BEC11F000D019069F
:101968001928D8A4F5D78388120000EEF3F0080EE2
:10197800EE6AE806FDE100EE42F0250EEE6AE806A2
:10198800FDE1700EF66E220EF76E000EF86E01EE97
:1019980000F010EE21F00900F5CFEEFFE550E15020
:1019A800FAE1F20EF66E1A0EF76E000EF86E00EE01
:1019B80080F010EE73F00900F5CFEEFFE550E1502E
:1019C800FAE1440EF66E240EF76E000EF86E00EE85
:1019D80067F010EE09F00900F5CFEEFFE550E15091
:1019E800FAE1000EF86E0001D0EF04F0000E246E4C
:1019F80020AE07D01F6C201ED8B0202A010E246EFE
:101A080000D022AE05D0216C221ED8B0222A00D0E8
:101A180021502210D8B41DD0010E236E05D0D890C5
:101A280021362236232A00D022BE02D0F8D700D091
:101A380021501F5C22502058D8A005D021501F5E8D
:101A48002250205A00D0D89022322132232EF0D7AB
:101A580000D02450D8B405D01F6C201ED8B0202A3E
:101A680000D01FC01FF020C020F000D012000600D8
:101A7800EACF06F0E1CF07F0E2CF08F0D9CF09F0BE
:101A8800DACF0AF0F3CF0BF0F4CF0CF0F6CF0DF06D
:101A9800F7CF0EF0F8CF0FF0F5CF10F09EA003D0DF
:101AA80008EC12F000D0F2A203D0ABEC06F000D0A4
:101AB80010C0F5FF0FC0F8FF0EC0F7FF0DC0F6FF0E
:101AC8000CC0F4FF0BC0F3FF0AC0DAFF09C0D9FF4E
:101AD80008C0E2FF07C0E1FF06C0EAFF05C0E9FF52
:101AE80004C0FBFF03C0FAFF1100A262E22202C297
:101AF800E0A8906898B030187A10385A424A5230A4
:101B0800303A30303A30300030303A30303A3030D5
:101B18000030312F30312F30300030303A30303A09
:101B28003030000002040610121416303735460013
:101B38004F464600300030302F30302F30300030E4
:101B4800303A30303A3030003030303000303030D9
:101B5800004F4646002B3235002B37370000115016
:101B68001210D8A403D0839A839C00D012BE10D040
:101B7800125003E11104D8A00BD012BE06D0080EF3
:101B8800115C070E1258D8B003D0838A839C00D00A
:101B980012BE11D0080E115C070E1258D8A00BD037
:101BA80012BE06D08C0E115C0A0E1258D8B003D0A3
:101BB800838A838C00D012BE09D08C0E115C0A0E69
:101BC8001258D8A003D0839A838C00D01200136EC9
:101BD800000EAC6E000EAB6E13A002D0AC8800D025
:101BE80013A203D0AC8CAB8C00D013A402D0AC8E63
:101BF80000D013A602D0AB8802D0AB8A00D013B8AD
:101C0800AC849E9813AA02D0AB8600D013AC02D045
:101C18009D8A01D09D9A9E9A13AE02D09D8801D0CC
:101C28009D9811C0AFFF1250B06EAC8AAB8E949CD9
:101C3800948EACB8ACBE02D0948C00D012001FC0F9
:101C480017F020C018F0000E1A6E0A0E196E2AEC52
:101C58000CF018BE06D0185013E1080E175CD8B067
:101C68000FD01FC017F020C018F0000E1A6E0A0E11
:101C7800196E2AEC0CF017C022F018C023F005D01A
:101C8800000E236E070E226E00D022C021F02150D4
:101C9800010DB90EF324D96E000EF420DA6EDF5070
:101CA800806E1200680E136E000E146E000E5D6ECC
:101CB800000E6A6E190E696E050E686E040E676E68
:101CC800110E6B6E210E6F6ECAEC11F013501324B7
:101CD8002DEC10F014502DEC10F05D502DEC10F0A0
:101CE8006A502DEC10F069502DEC10F068502DEC76
:101CF80010F067502DEC10F06B502DEC10F06F5079
:101D08002DEC10F0C1EC11F01200680E156E000EEB
:101D1800146ECAEC11F0155015242DEC10F0145067
:101D28002DEC10F090EC11F0D88015342DEC10F05B
:101D3800010EACEC0FF05D6E010EACEC0FF06A6EAC
:101D4800010EACEC0FF0696E010EACEC0FF0686E92
:101D5800010EACEC0FF0676E010EACEC0FF06B6E81
:101D6800000EACEC0FF06F6EC1EC11F01200000E1B
:101D7800176E000E166E13501410D8B421D0010E31
:101D8800156E05D0D89013361436152A00D014BE17
:101D980002D0F8D700D0D890163617361350115CF9
:101DA80014501258D8A006D01350115E1450125A6D
:101DB800168000D0D89014321332152EECD700D0EC
:101DC80016C011F017C012F0120017C011F018C099
:101DD80012F0000E146E7D0E136EC9EC10F011C0D7
:101DE8001BF012C01CF01BC019F01CC01AF0191E01
:101DF8001A1E194A1A2AFF0E19241B6EFF0E1A20E2
:101E08001C6E030ED56E1BC0D6FF1C50D76EF29405
:101E1800D58E00D0F2A4FED7D59E1200A5EC11F005
:101E2800700ED36E0F0EC16E000E926E010E936E81
:101E3800010E946E000E956E000E966E000E806E6A
:101E4800F19E000EB26E030EB16EA00E116E860EDC
:101E5800126E010E136E000E146E13EC12F059EC94
:101E680011F083EC10F0000E506E1200176E2A0E5F
:101E7800ECEC11F0000EE4EC11F017505924E4ECEE
:101E880011F0000EE4EC11F015505924E4EC11F0B7
:101E98002B0EECEC11F0000EE4EC11F014505C2465
:101EA800E4EC11F0000EE4EC11F016505C24E4ECC4
:101EB80011F02C0EECEC11F012001A501B10D8B4D3
:101EC8001DD0010E1C6E05D0D8901A361B361C2A60
:101ED80000D01BBE02D0F8D700D01A50185C1B5097
:101EE8001958D8A005D01A50185E1B50195A00D09E
:101EF800D8901B321A321C2EF0D700D018C018F018
:101F080019C019F012002B6E2BC02CF02D6A0ED0C0
:101F180023C018F025C019F026C01AF027C01BF0FE
:101F28002C5075EC0CF02C4A2D2A00D024502BC0D4
:101F380028F0296A2826000E292228502C5C2D50CA
:101F4800800A2A6E2950800A2A58D8A0E1D71200A0
:101F5800116E2FEC12F0000E126E070E126401D0F3
:101F68000FD002EC12F083A203D0D880133604D02D
:101F780013501324136E00D02BEC12F0122AEDD755
:101F88001150D8B403D0D3EC11F003D018EC12F0F0
:101F980000D0135000D01200B2CF17F0186A000E0C
:101FA8001A6E020E196E2AEC0CF017C021F018C038
:101FB80022F0000EB26E21C011F022C012F0000E05
:101FC800146E3C0E136EC9EC10F011C01FF012C055
:101FD80020F000D0120011C015F012C016F003D086
:101FE800154A162A00D015C0D9FF16C0DAFFDF50EF
:101FF800D8A4F6D711C013F012C014F0131E141E83
:10200800134A142A15501324116E16501420126EF8
:1020180000D012002A0EECEC11F0000EE4EC11F0E6
:10202800000EE4EC11F0000EE4EC11F07F0EE4EC8D
:1020380011F02B0EECEC11F0000EE4EC11F0000E98
:10204800E4EC11F0000EE4EC11F09F0EE4EC11F05A
:102058001200116E000E126E070E126401D011D01C
:1020680011AE03D02FEC12F003D01DEC12F000D00B
:1020780002EC12F02BEC12F011501124116E122AFE
:10208800EBD72FEC12F002EC12F02BEC12F012004E
:10209800480E186EAA0E166ECAEC11F018501824C5
:1020A8002DEC10F016502DEC10F090EC11F0D880BB
:1020B80018342DEC10F0000EACEC0FF0176EC1ECDC
:1020C80011F017C014F0156A00D0120011C015F0F5
:1020D80012C016F005D0154A162A134A142A00D041
:1020E80013C0F6FF14C0F7FF15C0D9FF16C0DAFFFA
:1020F8000800F5CFDFFFDF50D8A4EDD71200F29229
:10210800F19CF288000ECF6E000ECE6E9E909D80E0
:10211800F28CF28E000E496E000E486E000E000121
:10212800F36F000EF46F000EF56F000EF66F1200DD
:102138001B6E800E1B6013D09F0E186401D00FD049
:1021480018C014F01B28156E1828166E1B503AEC90
:102158000FF01A50E4EC11F01950E4EC11F01200F1
:1021680083888396800EC76E300EC66E97EC08F093
:102178000EEC10F09BEC09F0360EECEC11F0C00EF2
:10218800E4EC11F0010E536E120011501302F3CF5C
:1021980015F0F4CF16F011501402F3501626125011
:1021A8001302F350162615C011F016C012F000D015
:1021B8001200640E5A18D8A408D0FBEC11F0FBECFE
:1021C80011F05A50C9EC0BF006D0050E5A265A5099
:1021D800C9EC0BF000D012001C6E1C50116E126A74
:1021E800136A8E0E146E000E156E66EC0BF011C09D
:1021F80019F012C01AF013C01BF000D012005A5088
:10220800D8A408D0FBEC11F0FBEC11F05A50C9EC43
:102218000BF006D0050E5A5E5A50C9EC0BF000D0F0
:102228001200000E126E000E116E12BE08D0600E63
:10223800115C220E1258D8B005D001D003D0114A33
:10224800122AF3D71200136E000E126E3A0E1360A4
:1022580006D02F0E136403D0010E126E00D012C0E8
:1022680011F0113000D0120020454345333330318E
:102278004C205370273231204C31320000000000CE
:1022880000000000000000000000156ECAEC11F00C
:10229800155015242DEC10F013502DEC10F014509F
:1022A8002DEC10F0C1EC11F01200480E166EAC0EB9
:1022B800136E020E146E165049EC11F0EE0E136EEA
:1022C800165083EC11F01200000E186E800E196E75
:1022D800A00E1A6E24C01BF025C01CF0000EF8ECEE
:1022E8000AF012005004D8A403D0DCEC11F000D09E
:1022F8005050D8A403D00EEC12F000D01200146E87
:10230800CAEC11F0145014242DEC10F013502DECDD
:1023180010F0C1EC11F012002BEC12F02FEC12F0BF
:1023280002EC12F01DEC12F02BEC12F01200126EFF
:102338009E96C9CF11F012C0C9FF00D0C7A0FED722
:102348001200000E126E190E116E3C0EEBEC0DF021
:10235800700ED36E12008394000E186E640E176E02
:10236800E9EC0EF083841200F90ECB6E050ECA6EEE
:102378004A0EBB6E3C0EBA6E12002BEC12F01DEC2E
:1023880012F002EC12F02FEC12F012002FEC12F007
:1023980002EC12F01DEC12F02BEC12F012001DEC06
:1023A80012F002EC12F02BEC12F02FEC12F01200EB
:1023B800010E506E5A50C9EC0BF0818A84821200CB
:1023C800136E8398838613509BEC11F08388120058
:1023D800136E8398839613509BEC11F08388120038
:1023E800116E00D0ACA2FED711C0ADFF1200B8EC40
:1023F80011F015EC11F027EC12F012009580060E82
:10240800E82EFED700D01200000E526EF19CCD903F
:102418009E901200000E506E819A8492120002EC77
:1024280012F02FEC12F0120002EC12F02BEC12F06A
:1024380012008392959200D000D01200040302018A
:10244800054BFF010600000EBA6E819612008390BC
:10245800959000D01200958200D000D01200000E96
:06246800526ECD9012003F
:10FD280000000000000000005F000000070007005E
:10FD3800147F147F14242A7F2A122313086462363E
:10FD4800495620500008070300001C2241000041CA
:10FD5800221C002A1C7F1C2A08083E080800807004
:10FD68003000080808080800006060002010080437
:10FD7800023E5149453E00427F400072494949468A
:10FD88002141494D331814127F1027454545393C08
:10FD98004A494931412111090736494949364649F5
:10FDA80049291E0000140000004034000000081417
:10FDB8002241141414141400412214080201590990
:10FDC800063E415D594E7C1211127C7F49494936E5
:10FDD8003E414141227F4141413E7F494949417F5E
:10FDE800090909013E414151737F0808087F004114
:10FDF8007F41002040413F017F081422417F40405D
:10FE080040407F021C027F7F0408107F3E41414131
:10FE18003E7F090909063E4151215E7F091929469D
:10FE2800264949493203017F01033F4040403F1FB3
:10FE38002040201F3F4038403F63140814630304E8
:10FE48007804036159494D43007F41414102040848
:10FE58001020004141417F0402010204404040401B
:10FE680040000307080020545478407F2844443851
:10FE78003844444428384444287F3854545418009B
:10FE8800087E090218A4A49C787F0804047800441A
:10FE98007D40002040403D007F1028440000417F05
:10FEA80040007C047804787C08040478384444448E
:10FEB80038FC1824241818242418FC7C0804040886
:10FEC800485454542404043F44243C4040207C1C9F
:10FED8002040201C3C4030403C44281028444C9092
:10FEE80090907C4464544C440008364100000077EC
:10FEF80000000041360800020102040201000A0065
:10FF08006400E803102701001000000100102530EC
:10FF180032783A253032783A253032782025303216
:10FF2800782F253032782F25303278000D0A204E70
:10FF380065772054696D652053657421200D0A206A
:10FF48000D0A00454345333330314C2053707269F4
:10FF58006E672032312D53310043616E6E6F74200D
:10FF680066696E6420627574746F6E200D0A0020D5
:10FF780054656D70203D2025642043203D20256474
:10FF88002046200052504D203D20256420206463E7
:10FF9800203D2025640D0A003031323334353637A0
:10FFA8003839616263646566004E45435F436F6438
:10FFB80065203D2025780D0A00627574746F6E20E7
:10FFC8003D202564200D0A0054656D7065726174CA
:10FFD8007572653A00202046414E0054696D6500EF
:10FFE80044617465004F4E20004F46460052504D04
:08FFF80000432F004443000008
:020000040020DA
:08000000FFFFFFFFFFFFFFFF00
:020000040030CA
:0E000000FF08191EFF8281FF0FC00FE00F40A6
:00000001FF
