:0400000098EF7FF006
:10FF30000001A2EF7FF0010EC26E0E0EC16EA90E7F
:10FF4000C06E12009BEC7FF0000E936E00D0B1ECFF
:10FF50007FF00150076E0750C4EC7FF0F8D700EF38
:10FF600000F0C28200D0C2B2FED7C450046E036A51
:10FF7000C3500324056E000E0420066E05C001F078
:10FF800006C002F000D01200016E0A0E8A6E000E4A
:10FF9000056E050E046E04500510D8B413D001D0C0
:10FFA00011D001C002F0036A02500310D8B406D089
:10FFB00001D004D00206D8A00306F6D70406D8A0C4
:10FFC0000506E9D7050E8A6E000E056E050E046E55
:10FFD00004500510D8B413D001D011D001C002F0E4
:10FFE000036A02500310D8B406D001D004D0020630
:10FFF000D8A00306F6D70406D8A00506E9D7120054
:020000040020DA
:08000000FFFFFFFFFFFFFFFF00
:020000040030CA
:0E000000FF08191EFF8381FF0FC00FE00F40A5
:00000001FF
