:04000000C3EF7FF0DB
:10FF86000001C6EF7FF0000E946E000E956E0F0E08
:10FF9600C16E00D0E4EC7FF0FDD700EF00F0000E5C
:10FFA600026E000E016E02BE08D0680E015C420EA3
:10FFB6000258D8B005D001D003D0014A022AF3D79F
:10FFC6001200070E036E000E056E000E046E05BECF
:10FFD60008D0055011E1080E045CD8B00DD001D050
:10FFE6000BD004C08BFF03C08CFFD2EC7FF003065E
:0AFFF600044A052AECD700D01200DF
:020000040020DA
:08000000FFFFFFFFFFFFFFFF00
:020000040030CA
:0E000000FF08191EFF8281FF0FC00FE00F40A6
:00000001FF
