:0400000013EF6EF09C
:10D96000000EBA6E81961200010EC26E0E0EC16ECE
:10D97000A90EC06E1200036E839883960350DDECEF
:10D980006CF083881200036E839883860350DDEC6D
:10D990006CF083881200F90ECB6E050ECA6E4A0E2B
:10D9A000BB6E3C0EBA6E12008394000E086E640EBD
:10D9B000076E31EC6FF083841200026E9E96C9CF21
:10D9C00001F002C0C9FF00D0C7A0FED712009268C4
:10D9D000470E936E000E946E000E956E000E966EBE
:10D9E0001200000E026E190E016E3C0E8DEC6FF0EF
:10D9F000600ED36E1200838ECBEC6CF006EC6DF0F3
:10DA0000839EB0EC6CF006EC6DF01200030ED56E48
:10DA1000DB0ED66E0B0ED76EF294D58E00D0F2A42C
:10DA2000FED7D59E1200000E086E800E096EA00E65
:10DA30000A6E14C00BF015C00CF0000E6DEC73F004
:02DA40001200D2
:10DA430001303000303000303000303000303000F2
:10DA530030300044003000300030003000440030EB
:10DA6300003000C28200D0C2B2FED7C450046E039D
:10DA73006AC3500324056E000E0420066E05C00120
:10DA8300F006C002F000D0120001500302F3CF05EC
:10DA9300F0F4CF06F001500402F3500626025003BF
:10DAA30002F350062605C001F006C002F000D012B2
:10DAB3000083888396800EC76E300EC66E34EC7575
:10DAC300F0F4EC6DF0BBEC74F0360EBBEC6CF0C014
:10DAD3000EC3EC6CF0010E776E12003D6E3DC03E3E
:10DAE300F03E50D8B40BD001D009D03EC03AF07A02
:10DAF3005003EC77F041EC70F03E06F2D7000E3A9B
:10DB03006E7A5003EC77F012000B6E800E0B6013ED
:10DB1300D09F0E086401D00FD008C004F00B280575
:10DB23006E0828066E0B50E1EC6EF00A50C3EC6CE5
:10DB3300F00950C3EC6CF0120001C005F002C006FE
:10DB4300F005D0054A062A034A042A00D003C0F68A
:10DB5300FF04C0F7FF05C0D9FF06C0DAFF0800F5D0
:10DB6300CFDFFFDF50D8A4EDD71200000E0C6E0AF2
:10DB7300AE07D0096C0A1ED8B00A2A010E0C6E003B
:10DB8300D009C001F00AC002F0036A8E0E046E0CC5
:10DB9300C005F00AEC73F001C009F002C00AF003FB
:10DBA300C00BF000D0120001C005F002C006F00364
:10DBB300D0054A062A00D005C0D9FF06C0DAFFDF28
:10DBC30050D8A4F6D701C003F002C004F0031E042A
:10DBD3001E034A042A05500324016E065004200242
:10DBE3006E00D012002A0EBBEC6CF0000EC3EC6C7E
:10DBF300F0000EC3EC6CF0000EC3EC6CF07F0EC3B0
:10DC0300EC6CF02B0EBBEC6CF0000EC3EC6CF00074
:10DC13000EC3EC6CF0000EC3EC6CF09F0EC3EC6C07
:10DC2300F0120000EE80F01F0EEE6AE806FDE10040
:10DC3300EE65F0170EEE6AE806FDE1430EF66EDAC6
:10DC43000EF76E000EF86E00EE42F010EE23F009B0
:10DC530000F5CFEEFFE550E150FAE1000EF86E005B
:10DC630001F3EF71F0366E020E7A6E36C033F07A3E
:10DC7300509EEC79F00AD0839001D0838083921375
:10DC8300D0839001D0838083820ED03650000AD88F
:10DC9300B4F2D7010AD8B4F1D7030AD8B4F1D70143
:10DCA3000AD8B4F0D700D01200366E030E7A6E365F
:10DCB300C033F07A509EEC79F00AD0849201D0847C
:10DCC30082849413D0849201D0848284840ED036CB
:10DCD30050000AD8B4F2D7010AD8B4F1D7030AD84E
:10DCE300B4F1D7010AD8B4F0D700D01200366E00D1
:10DCF3000E7A6E36C033F07A509EEC79F00AD081FA
:10DD03009801D08188819A13D0819801D08188812C
:10DD13008A0ED03650000AD8B4F2D7010AD8B4F12B
:10DD2300D7030AD8B4F1D7010AD8B4F0D700D01278
:10DD330000366E010E7A6E36C033F07A509EEC795F
:10DD4300F00AD0829001D08280829213D082900117
:10DD5300D0828082820ED03650000AD8B4F2D70126
:10DD63000AD8B4F1D7030AD8B4F1D7010AD8B4F06A
:10DD7300D700D012001B6E1BC01CF01D6A0ED013FF
:10DD8300C008F015C009F016C00AF017C00BF01C4C
:10DD93005082EC70F01C4A1D2A00D014501BC0188E
:10DDA300F0196A1826000E192218501C5C1D5080A9
:10DDB3000A1A6E1950800A1A58D8A0E1D712000720
:10DDC3006E2A0EBBEC6CF0000EC3EC6CF0075078BF
:10DDD30024C3EC6CF0000EC3EC6CF005507824C344
:10DDE300EC6CF02B0EBBEC6CF0000EC3EC6CF0048F
:10DDF300507B24C3EC6CF0000EC3EC6CF006507B3C
:10DE030024C3EC6CF02C0EBBEC6CF012002F500012
:10DE1300082D24086ED8802F34096E31C00AF032E1
:10DE2300C00BF02B5082EC70F02BC013F02CC014FD
:10DE3300F02DC015F02EC016F02FC017F030C0180B
:10DE4300F0000E1A6E030E196E000E1C6E000E1BF0
:10DE53006E31C01DF032C01EF0BCEC75F01200072D
:10DE6300C001F008C002F0000E046EFA0E036E4605
:10DE7300EC6DF001C00BF002C00CF00BC009F00C0C
:10DE8300C00AF0091E0A1E094A0A2AFF0E09240BBA
:10DE93006EFF0E0A200C6EB80EB16E0BC0D6FF0CCF
:10DEA30050D76EA192B18000D0A1A2FED7B190123B
:10DEB3000015C008F017C009F01BC00AF01CC00B06
:10DEC300F01350C6EC70F0155019241D6E1D040894
:10DED3006E17C009F01BC00AF01CC00BF01350C62C
:10DEE300EC70F015C008F019C009F01BC00AF01C53
:10DEF300C00BF0135082EC70F015C008F019C00984
:10DF0300F01BC00AF01CC00BF0135017241D6E1D2C
:10DF13000482EC70F01200036E000EAC6E000EABC8
:10DF23006E03A002D0AC8800D003A203D0AC8CABAC
:10DF33008C00D003A402D0AC8E00D003A602D0ABD9
:10DF43008802D0AB8A00D003B8AC849E9803AA029F
:10DF5300D0AB8600D003AC02D09D8A01D09D9A9E9F
:10DF63009A03AE02D09D8801D09D9801C0AFFF02F5
:10DF730050B06EAC8AAB8E949C948EACB8ACBE029F
:10DF8300D0948C00D012003D6E3D50D8A419D03CE3
:10DF9300043E6E3E50D8B40BD001D009D03EC03AF7
:10DFA300F0000EA8EC72F0FBEC6CF03E06F2D7002A
:10DFB3000E3A6E000EA8EC72F0FBEC6CF081900050
:10DFC300D0020E3D18D8A419D03C043F6E3F50D860
:10DFD300B40BD001D009D03FC03AF0020EA8EC72C6
:10DFE300F0FBEC6CF03F06F2D7000E3A6E020EA87F
:10DFF300EC72F0FBEC6CF0819200D01200000E0684
:10E003006E02AE07D0016C021ED8B0022A010E06C2
:10E013006E00D004AE05D0036C041ED8B0042A00F1
:10E02300D003500410D8B41DD0010E056E05D0D80E
:10E033009003360436052A00D004BE02D0F8D70078
:10E04300D00350015C04500258D8A005D0035001FE
:10E053005E0450025A00D0D89004320332052EF0E9
:10E06300D700D00650D8B405D0016C021ED8B00238
:10E073002A00D001C001F002C002F000D0120083D8
:10E083008E6CC001F06DC002F0FD0E036EFF0E0436
:10E093006E9EEC6DF00A0E296E6CC02AF06DC02BDB
:10E0A300F0FF0E2D6E2C68000E2F6E000E2E6E01EB
:10E0B3000E306E780EDBEC73F006EC6DF0839E6C25
:10E0C300C001F06DC002F0FB0E036EFF0E046E9EE6
:10E0D300EC6DF00A0E296E6CC02AF06DC02BF0FFB8
:10E0E3000E2D6E2C68000E2F6E000E2E6E010E305C
:10E0F3006E780EDBEC73F006EC6DF099EC78F012B1
:10E1030000126E800E12603FD09F0E086401D03B58
:10E11300D0FF0E0C6EFF0E0D6E095008C00EF00FEF
:10E123006A0E26000E0F220C500E260D500F220FE2
:10E13300BE0BD00F5004E1A00E0E5CD8A005D00892
:10E14300500008A00F096E00D00B50106E0AC011CA
:10E15300F008C004F012C005F0085009240C6E0C3E
:10E1630004066E1250E1EC6EF08386839807D0109C
:10E1730050DDEC6CF01150DDEC6CF000D0090609B9
:10E1830028D8A4F5D783881200126E800E12603F40
:10E19300D09F0E086401D03BD0FF0E0C6EFF0E0D16
:10E1A3006E095012C00EF00F6A0E26000E0F220CDD
:10E1B300500E260D500F220FBE0BD00F5004E180DE
:10E1C3000E0E5CD8A005D012500008800F096E0017
:10E1D300D00B50106E0AC011F008C004F0125009A1
:10E1E300240C6E0C04056E08C006F01250E1EC6EB0
:10E1F300F08386839807D01050DDEC6CF01150DD6E
:10E20300EC6CF000D009060928D8A4F5D78388124E
:10E2130000000E066E04AE07D0036C041ED8B004D3
:10E223002A010E066E00D002AE07D0016C021ED882
:10E23300B0022A010E061A00D0000E086E000E0767
:10E243006E03500410D8B421D0010E056E05D0D84A
:10E253009003360436052A00D004BE02D0F8D70056
:10E26300D0D890073608360350015C04500258D8C2
:10E27300A006D00350015E0450025A078000D0D894
:10E283009004320332052EECD700D00650D8B405E3
:10E29300D0076C081ED8B0082A00D007C001F008C8
:10E2A300C002F000D0120003AE17D001C007F00285
:10E2B300C008F003C009F0071E081E091E072A0044
:10E2C3000E08220922000E0724016E000E08200208
:10E2D3006E800E0920036E00D006AE17D004C0076F
:10E2E300F005C008F006C009F0071E081E091E0746
:10E2F3002A000E08220922000E0724046E000E08CD
:10E3030020056E800E0920066E00D0000E011A0053
:10E313000E021A800E031A000E041A000E051A804C
:10E323000E061A0450015C0550025806500358D8D3
:10E33300B002D0D89002D0D88000D01200000E696D
:10E343006E000E686E819E4E0E556E020E78EC6E58
:10E35300F0010E34EC6EF0010E9AEC6EF0010E56E5
:10E36300EC6EF0060E6FEC6DF0030E78EC6EF003BE
:10E373000E6FEC6DF0010E78EC6EF080AA10D002F7
:10E383000E56EC6EF0060E6FEC6DF0030E56EC6E4F
:10E39300F0030E6FEC6DF0010E56EC6EF000D00240
:10E3A3000E34EC6EF0060E6FEC6DF0030E34EC6E73
:10E3B300F0030E6FEC6DF0010E34EC6EF080A810DC
:10E3C300D0020E9AEC6EF0080E6FEC6DF0030E9A0D
:10E3D300EC6EF0030E6FEC6DF0010E9AEC6EF00034
:10E3E300D01200E7EC6CF0B4EC6CF0F1EC6CF07074
:10E3F3000ED36E4FEC7BF000D033EC6DF001C040D8
:10E40300F002C041F040C001F041C002F0000E0430
:10E413006E050E036E46EC6DF001C009F002C00AF2
:10E42300F0B7EC6DF009C00DF00AC00EF00BC00F91
:10E43300F0000E106E800E116E440E126E4AEC74D4
:10E44300F00DC065F00EC066F00FC067F065C00147
:10E45300F066C002F067C003F0000E046E200E05E4
:10E463006E400E066E55EC71F0D8B002D0010E016D
:10E47300D0000E746E7450D8B403D047EC72F0BC65
:10E48300D7A0EC71F0B9D700EF00F0000E696E0170
:10E493000E686E818E440E556E010E34EC6EF001E3
:10E4A3000E9AEC6EF0010E56EC6EF0020E78EC6EE6
:10E4B300F081A005D0080E3C6E000EC5EC6FF0078E
:10E4C3000E6FEC6DF0030E78EC6EF0030E6FEC6DD7
:10E4D300F0010E78EC6EF080AA10D0020E56EC6EAE
:10E4E300F0080E6FEC6DF0030E56EC6EF0030E6F3A
:10E4F300EC6DF0010E56EC6EF000D0020E34EC6EB3
:10E50300F081A205D0090E3C6E020EC5EC6FF00936
:10E513000E6FEC6DF0030E34EC6EF0030E6FEC6DCA
:10E52300F0010E34EC6EF080A810D0020E9AEC6E5F
:10E53300F0080E6FEC6DF0030E9AEC6EF0030E6FA5
:10E54300EC6DF0010E9AEC6EF000D012003B6E57AA
:10E55300D03AC001F0026A000E046E0A0E036E0A7E
:10E56300EC71F00150300F526E3AC001F0026A00B4
:10E573000E046E0A0E036E00EC70F00150300F5360
:10E583006E1E0E296E520E2A6E000E2B6E000E2D7D
:10E593006E1F0E2C6E000E2F6E000E2E6E020E30AE
:10E5A3006E020EDBEC73F033D03AC001F0026A0066
:10E5B3000E046E0A0E036E0AEC71F00150300F4F19
:10E5C3006E3AC001F0026A000E046E0A0E036E007A
:10E5D300EC70F00150300F506E5A0E296E4F0E2A18
:10E5E3006E000E2B6E070E2D6E2C68000E2F6E0024
:10E5F3000E2E6E020E306E020EDBEC73F008D03B73
:10E6030050000AD8B4A5D7020AD8B4CED700D01286
:10E61300000450D8B405D0015002100310D8A40E42
:10E62300D0000E016E000E026E000E036E53D00674
:10E63300D0042AD89003320232013200D0000E01F6
:10E6430014066E000E0214076EFE0E0314086E0607
:10E653005007100810D8B40ED0EBD70CD0042A0101
:10E663000E0126000E0222000E0322D8900332026E
:10E6730032013200D0000E0114066E000E021407A0
:10E683006EFF0E0314086E065007100810D8B40866
:10E69300D0E5D706D00406D89001360236033600FB
:10E6A300D002BE04D0020E0460F5D700D004B0023D
:10E6B300D0029E00D0D8900432045003120550D8E3
:10E6C300B402D0038E00D001C001F002C002F003F7
:10E6D300C003F000D01200136E800E136069D09F48
:10E6E3000E086401D065D0FF0E0D6EFF0E0E6E098D
:10E6F3005013C00FF0106A0F26000E10220D500F9A
:10E70300260E50102210BE0AD0105004E1800E0FC6
:10E713005CD8A004D013500008800F096EFF0E0DC3
:10E723006EFF0E0E6E0A5008C00FF0106A0F26001F
:10E733000E10220D500F260E50102210BE0BD010BB
:10E743005004E1A00E0F5CD8A005D008500008A02B
:10E753000F0A6E00D008C004F0135009240D6E0D8B
:10E7630004056E08500A240E6E0E04066E1350E163
:10E77300EC6EF00C50116E0BC012F0838683980A76
:10E78300C008F00850D8B413D001D011D009C01379
:10E79300F01350D8B40AD001D008D01150DDEC6C7E
:10E7A300F01250DDEC6CF01306F3D70806EAD783BA
:10E7B300881200356E35C039F029C038F02AC001FF
:10E7C300F02BC002F0D5EC6DF001C033F002C03481
:10E7D300F0000E376E000E366E54D04250D8B42C73
:10E7E300D03050050D3950316E326AF3503126F472
:10E7F30050322232BE21D0325004E1810E315CD836
:10E80300A01BD0000E396E3050070DF3503824038F
:10E813000F386EA00E386403D0A00E386E00D036C9
:10E82300502A24D96E37502B20DA6E200EDE18D8EA
:10E83300B425D002D023D000D038C01EF036502AE1
:10E8430024D96E37502B20DA6EDF501F6E2CC02078
:10E85300F02DC021F02EC022F02FC023F030C024B1
:10E86300F0395058EC76F03050060DF35039243916
:10E873006E800E396403D0800E396E00D0364A376D
:10E883002A00D03350365C34503758D8A0A6D7125C
:10E89300000FC013F0146A156A0E34133601E31423
:10E8A3008013501A6E1A50D8A402D00ED061D01221
:10E8B300C013F0146A156A1134133601E31480137C
:10E8C300501B6E1B50D8A407D0000E0D6E000E0E09
:10E8D3006E000E0F6E4DD0000E176E000E186E00F8
:10E8E3000E196E1B50890F1A5E0FC01BF012501BBE
:10E8F3001A800E1B160E8EFF0E0D16FF0E0E16003F
:10E903000E0F16118EFF0E1016FF0E1116000E12AB
:10E9130016180E166E00D0D8901736183619361002
:10E92300500D5C11500E5812500F58D8A007D0103C
:10E93300500D5E11500E5A12500F5A1780D8900D79
:10E94300360E360F36162EE7D700D017C001F01853
:10E95300C002F019C003F01AC004F01BC005F00A8E
:10E96300EC73F001C00DF002C00EF003C00FF00015
:10E97300D01200E00EBBEC6CF0020EC3EC6CF01C8A
:10E983000EC3EC6CF0070EC3EC6CF0120EC3EC6C10
:10E99300F0370EC3EC6CF0320EC3EC6CF0290EC3EF
:10E9A300EC6CF02D0EC3EC6CF0290EC3EC6CF0256F
:10E9B3000EC3EC6CF02B0EC3EC6CF0390EC3EC6C95
:10E9C300F0000EC3EC6CF0010EC3EC6CF0030EC34D
:10E9D300EC6CF0100EC3EC6CF0E10EBBEC6CF003CE
:10E9E3000EC3EC6CF01D0EC3EC6CF0070EC3EC6CA5
:10E9F300F0060EC3EC6CF02E0EC3EC6CF02C0EC3C1
:10EA0300EC6CF0290EC3EC6CF02D0EC3EC6CF02E05
:10EA13000EC3EC6CF02E0EC3EC6CF0370EC3EC6C33
:10EA2300F03F0EC3EC6CF0000EC3EC6CF0000EC3B1
:10EA3300EC6CF0020EC3EC6CF0100EC3EC6CF01334
:10EA43000EBBEC6CF0000E086E0A0E076E31EC6F15
:10EA5300F0290EBBEC6CF0000E086E640E076E31ED
:10EA6300EC6FF01200010EBBEC6CF0000E086E961A
:10EA73000E076E31EC6FF0110EBBEC6CF0010E085B
:10EA83006EF40E076E31EC6FF0B10EBBEC6CF0015F
:10EA93000EC3EC6CF02C0EC3EC6CF02D0EC3EC6CBF
:10EAA300F0B20EBBEC6CF0010EC3EC6CF02C0EC399
:10EAB300EC6CF02D0EC3EC6CF0B30EBBEC6CF00100
:10EAC3000EC3EC6CF02C0EC3EC6CF02D0EC3EC6C8F
:10EAD300F0010EC3EC6CF02C0EC3EC6CF02D0EC3E6
:10EAE300EC6CF0B40EBBEC6CF0070EC3EC6CF0C036
:10EAF3000EBBEC6CF0A20EC3EC6CF0020EC3EC6C1C
:10EB0300F0840EC3EC6CF0C10EBBEC6CF0C50EC30D
:10EB1300EC6CF0C20EBBEC6CF00A0EC3EC6CF000B4
:10EB23000EC3EC6CF0C30EBBEC6CF08A0EC3EC6C42
:10EB3300F02A0EC3EC6CF0C40EBBEC6CF08A0EC36F
:10EB4300EC6CF0EE0EC3EC6CF0C50EBBEC6CF00E8F
:10EB53000EC3EC6CF0200EBBEC6CF0360EBBEC6C11
:10EB6300F0C80EC3EC6CF03A0EBBEC6CF0050EC3B0
:10EB7300EC6CF0120017C01FF018C020F01F1E200D
:10EB83001E1F4A202A010E1F24256E000E20202658
:10EB93006E000E226E010E216E17C01FF018C020EA
:10EBA300F0D8901F3620361F1E201E1F4A202A1F12
:10EBB300C023F020C024F0000E286E000E276E172D
:10EBC300C029F018C02AF067D026BE0BD02906D87A
:10EBD300A02A06020E2326000E24222350252624D3
:10EBE300502622274A282A020E2126000E222221FD
:10EBF3005025262250262219A025D0295000081579
:10EC030024086E295029241B241F6E1F28096E1DFA
:10EC1300C00AF01EC00BF01350272482EC70F027BB
:10EC23005000081524086E275027241B241F6E1F2D
:10EC330028096E1DC00AF01EC00BF0135029248250
:10EC4300EC70F000D019A227D02950000815240831
:10EC53006E295029241B241F6E1F28096E1DC00A0C
:10EC6300F01EC00BF027500008132482EC70F0272D
:10EC73005000081524086E275027241B241F6E1FDD
:10EC830028096E1DC00AF01EC00BF029500008139E
:10EC93002482EC70F000D02950275C2850800A1F92
:10ECA3006E2A50800A1F58D8A08FD71200266E8074
:10ECB3000E2660A6D09F0E1E6401D0A2D02450D889
:10ECC300A403D0010E246E00D01F0E1F6404D07E57
:10ECD3000E1F6403D000D03F0E1F6E000E286E047B
:10ECE3000E286401D08DD0530E1F6015D0E00E1F87
:10ECF30024016E026AFF0E0222000E046E050E034B
:10ED03006E46EC6DF028500126000E0222BD0E0166
:10ED130024F66EFD0E14D0AD0E1F24016E026AFFA1
:10ED23000E0222000E046E050E036E46EC6DF028F3
:10ED3300500126000E0222BC0E0124F66EFE0E02C6
:10ED430020F76E0800F5CF25F000D0000E276E06E1
:10ED53000E276401D053D025A023D02404D8A40CBB
:10ED6300D01E502724086E20C009F021C00AF026C7
:10ED730050282486EC6DF03ED027502402F3501E19
:10ED830024136E24C014F024C015F020C016F02103
:10ED9300C017F028502402F3502624BCEC6EF02A4E
:10EDA300D02050221804E121502318D8B423D024B2
:10EDB30004D8A40CD01E502724086E22C009F023C7
:10EDC300C00AF02650282486EC6DF014D027502476
:10EDD30002F3501E24136E24C014F024C015F02235
:10EDE300C016F023C017F028502402F3502624BC89
:10EDF300EC6EF000D0272AD8902532A9D7282A6FA5
:10EE0300D712003B6EAED03AC001F0026A000E0486
:10EE13006E0A0E036E0AEC71F00150300F4C6E3A1D
:10EE2300C001F0026A000E046E0A0E036E00EC705D
:10EE3300F00150300F4D6E1E0E296E4C0E2A6E00DF
:10EE43000E2B6E000E2D6E1F0E2C6E000E2F6E00FD
:10EE53000E2E6E020E306E640EDBEC73F090D03A21
:10EE6300C001F0026A000E046E0A0E036E0AEC7112
:10EE7300F00150300F496E3AC001F0026A000E04EF
:10EE83006E0A0E036E00EC70F00150300F4A6E3CB8
:10EE93000E296E490E2A6E000E2B6EF80E2D6E1F74
:10EEA3000E2C6E000E2F6E000E2E6E020E306E6450
:10EEB3000EDBEC73F064D03AC001F0026A000E047A
:10EEC3006E0A0E036E0AEC71F00150300F466E3A73
:10EED300C001F0026A000E046E0A0E036E00EC70AD
:10EEE300F00150300F476E5A0E296E460E2A6E00FF
:10EEF3000E2B6E070E2D6E2C68000E2F6E000E2E3D
:10EF03006E020E306E640EDBEC73F039D03AC00142
:10EF1300F0026A000E046E0A0E036E0AEC71F00131
:10EF230050300F436E3AC001F0026A000E046E0ABD
:10EF33000E036E00EC70F00150300F446E780E2912
:10EF43006E430E2A6E000E2B6EFF0E2D6E2C680084
:10EF53000E2F6E000E2E6E020E306E640EDBEC73FF
:10EF6300F00ED03B50000AD8B44ED7010AD8B4777C
:10EF7300D7030AD8B4A0D7010AD8B4C8D700D0128F
:10EF83000010C014F011C015F0141E151E144A15FC
:10EF93002A010E14241A6E000E15201B6E000E1784
:10EFA3006E010E166E10C014F011C015F0D8901437
:10EFB300361536141E151E144A152A14C018F015DA
:10EFC300C019F0000E1D6E000E1C6E10C01EF01155
:10EFD300C01FF00E501024086E12C009F013C00AAF
:10EFE300F00C5086EC6DF0105000080E24086E12E1
:10EFF300C009F013C00AF00C5086EC6DF00EC00887
:10F00300F012C009F013C00AF00C50102486EC6D06
:10F01300F00EC008F012C009F013C00AF01050003F
:10F02300080C2486EC6DF078D01BBE0BD01E06D8DE
:10F03300A01F06020E1826000E192218501A2619B0
:10F04300501B221C4A1D2A020E1626000E172216DA
:10F05300501A2617501B220E501E24086E12C00988
:10F06300F013C00AF00C501C2486EC6DF00E501EF9
:10F0730024086E12C009F013C00AF01C5000080CDB
:10F083002486EC6DF01E5000080E24086E12C00991
:10F09300F013C00AF00C501C2486EC6DF01E5000D7
:10F0A300080E24086E12C009F013C00AF01C5000A9
:10F0B300080C2486EC6DF00E501C24086E12C00957
:10F0C300F013C00AF00C501E2486EC6DF00E501C99
:10F0D30024086E12C009F013C00AF01E5000080C79
:10F0E3002486EC6DF01C5000080E24086E12C00933
:10F0F300F013C00AF00C501E2486EC6DF01C500077
:10F10300080E24086E12C009F013C00AF01E500046
:10F11300080C2486EC6DF000D01E501C5C1D508042
:10F123000A146E1F50800A1458D8A07ED71200000C
:10F133000E3A6E33EC6DF001C03BF002C03CF03B85
:10F14300C001F03CC002F0000E046E050E036E46D3
:10F15300EC6DF001C009F002C00AF0B7EC6DF009E4
:10F16300C00DF00AC00EF00BC00FF0000E106E8041
:10F173000E116E440E126E4AEC74F00DC065F00E63
:10F18300C066F00FC067F065C001F066C002F067AB
:10F19300C003F0000E046E600E056E400E066E5541
:10F1A300EC71F0D8B002D0010E01D0000E746E00E5
:10F1B3000E81B0010E766E000E80B8010E756E00E2
:10F1C3000E81B2010E736E000E80BA010E726E7460
:10F1D30050D8A402D04E0E01D0440E5F6E7650D8A4
:10F1E300A402D0300E01D0310E636E7350D8A40246
:10F1F300D0300E01D0310E5D6E7550D8A402D030E0
:10F203000E01D0310E616E7250D8A402D0300E01BF
:10F21300D0310E5B6E00D00A0E296E550E2A6E0099
:10F223000E2B6EFF0E2D6E2C68000E2F6E000E2E11
:10F233006E010E306E230EDBEC73F00A0E296E574F
:10F243000E2A6E000E2B6EFF0E2D6E2C68000E2FF5
:10F253006E000E2E6E010E306E460EDBEC73F00A5E
:10F263000E296E590E2A6E000E2B6EFF0E2D6E2C7C
:10F2730068000E2F6E000E2E6E010E306E640EDBD4
:10F28300EC73F0950E296E630E2A6E000E2B6EFF43
:10F293000E2D6E2C68000E2F6E000E2E6E010E309A
:10F2A3006E060EDBEC73F0950E296E610E2A6E006E
:10F2B3000E2B6EFF0E2D6E2C68000E2F6E000E2E81
:10F2C3006E010E306E200EDBEC73F0950E296E5D31
:10F2D3000E2A6E000E2B6EFF0E2D6E2C68000E2F65
:10F2E3006E000E2E6E010E306E3A0EDBEC73F0954F
:10F2F3000E296E5B0E2A6E000E2B6EFF0E2D6E2CEA
:10F3030068000E2F6E000E2E6E010E306E570EDB50
:10F31300EC73F0950E296E5F0E2A6E000E2B6EFFB6
:10F323000E2D6E2C68000E2F6E000E2E6E010E3009
:10F333006E700EDBEC73F01200346E34501E0DF35E
:10F3430050230F356E3350D8A467D0000E2C6E288F
:10F353000E2B6E35C02DF02E6A000E306E070E2F69
:10F363006E000E326E000E316E08EC6FF0000E2C44
:10F373006E3C0E2B6E35C02DF02E6A000E306E07DC
:10F383000E2F6E000E326E000E316E08EC6FF00021
:10F393000E2C6E500E2B6E35C02DF02E6A000E30E3
:10F3A3006E070E2F6E000E326E000E316E08EC6F7C
:10F3B300F0000E0D6E280E0C6E35C00EF00F6A00B5
:10F3C3000E116E070E106EF80E136E000E126EC243
:10F3D300EC77F0000E0D6E3C0E0C6E35C00EF00F88
:10F3E3006A000E116E070E106EFF0E136EE00E1202
:10F3F3006EC2EC77F0000E0D6E500E0C6E35C00E23
:10F40300F00F6A000E116E070E106E070E136EE0FA
:10F413000E126EC2EC77F000D03304D8A467D0008C
:10F423000E2C6E280E2B6E35C02DF02E6A000E307A
:10F433006E070E2F6EF80E326E000E316E08EC6FF3
:10F44300F0000E2C6E3C0E2B6E35C02DF02E6A0094
:10F453000E306E070E2F6E000E326E000E316E08E8
:10F46300EC6FF0000E2C6E500E2B6E35C02DF02E6F
:10F473006A000E306E070E2F6E000E326E000E31D4
:10F483006E08EC6FF0000E0D6E280E0C6E35C00E7C
:10F49300F00F6A000E116E070E106EF80E136E0059
:10F4A3000E126EC2EC77F0000E0D6E3C0E0C6E3534
:10F4B300C00EF00F6A000E116E070E106EFF0E13D2
:10F4C3006EE00E126EC2EC77F0000E0D6E500E0C55
:10F4D3006E35C00EF00F6A000E116E070E106E0728
:10F4E3000E136EE00E126EC2EC77F000D0030E33F3
:10F4F30018D8A467D0000E2C6E280E2B6E35C02DA5
:10F50300F02E6A000E306E070E2F6E000E326E0064
:10F513000E316E08EC6FF0000E2C6E3C0E2B6E3528
:10F52300C02DF02E6A000E306E070E2F6EFF0E32C6
:10F533006EE00E316E08EC6FF0000E2C6E500E2B49
:10F543006E35C02DF02E6A000E306E070E2F6E0042
:10F553000E326E000E316E08EC6FF0000E0D6E2849
:10F563000E0C6E35C00EF00F6A000E116E070E10F2
:10F573006EF80E136E000E126EC2EC77F0000E0DD5
:10F583006E3C0E0C6E35C00EF00F6A000E116E0746
:10F593000E106EFF0E136EE00E126EC2EC77F000CB
:10F5A3000E0D6E500E0C6E35C00EF00F6A000E116C
:10F5B3006E070E106E070E136EE00E126EC2EC771E
:10F5C300F000D0020E3318D8A467D0000E2C6E289A
:10F5D3000E2B6E35C02DF02E6A000E306E070E2FE7
:10F5E3006E000E326E000E316E08EC6FF0000E2CC2
:10F5F3006E3C0E2B6E35C02DF02E6A000E306E075A
:10F603000E2F6E000E326E000E316E08EC6FF0009E
:10F613000E2C6E500E2B6E35C02DF02E6A000E3060
:10F623006E070E2F6E070E326EE00E316E08EC6F12
:10F63300F0000E0D6E280E0C6E35C00EF00F6A0032
:10F643000E116E070E106EF80E136E000E126EC2C0
:10F65300EC77F0000E0D6E3C0E0C6E35C00EF00F05
:10F663006A000E116E070E106EFF0E136EE00E127F
:10F673006EC2EC77F0000E0D6E500E0C6E35C00EA0
:10F68300F00F6A000E116E070E106E070E136EE078
:10F693000E126EC2EC77F000D01200D4EC6CF05A6C
:10F6A300EC6DF0000E156E000E146E13EC6DF08011
:10F6B3000E6C6E000E6D6E6CC001F06DC002F0AD8D
:10F6C3000E036EFF0E046E9EEC6DF0020E296E6C3F
:10F6D300C02AF06DC02BF0FF0E2D6E2C68000E2F8C
:10F6E3006E000E2E6E010E306E020EDBEC73F06CAC
:10F6F300C001F06DC002F0E50E036EFF0E046E9EB6
:10F70300EC6DF00A0E296E6CC02AF06DC02BF0FF71
:10F713000E2D6E2C68000E2F6E000E2E6E010E3015
:10F723006E020EDBEC73F00A0E296E550E2A6E0084
:10F733000E2B6EFF0E2D6E2C68000E2F6E000E2EFC
:10F743006E010E306E230EDBEC73F06CC001F06DB6
:10F75300C002F0EB0E036EFF0E046E9EEC6DF00A1A
:10F763000E296E6CC02AF06DC02BF0FF0E2D6E2C8F
:10F7730068000E2F6E000E2E6E010E306E320EDB01
:10F78300EC73F00A0E296E570E2A6E000E2B6EFFD5
:10F793000E2D6E2C68000E2F6E000E2E6E010E3095
:10F7A3006E460EDBEC73F06CC001F06DC002F0EF3F
:10F7B3000E036EFF0E046E9EEC6DF00A0E296E6C46
:10F7C300C02AF06DC02BF0FF0E2D6E2C68000E2F9B
:10F7D3006E000E2E6E010E306E500EDBEC73F00ACF
:10F7E3000E296E570E2A6E000E2B6EFF0E2D6E2CF9
:10F7F30068000E2F6E000E2E6E010E306E640EDB4F
:10F80300EC73F06CC001F06DC002F0FD0E036EFFEF
:10F813000E046E9EEC6DF00A0E296E6CC02AF06D1C
:10F82300C02BF0FF0E2D6E2C68000E2F6E000E2ED7
:10F833006E010E306E780EDBEC73F06CC001F06D70
:10F84300C002F0C10E036EFF0E046E9EEC6DF01449
:10F853000E296E6CC02AF06DC02BF0000E2D6E1FAA
:10F863000E2C6E000E2F6E000E2E6E010E306E1ECD
:10F873000EDBEC73F0000E146E1E0E136E000E16EC
:10F883006E1B0E156E000E186E3C0E176E000E1AD0
:10F893006E120E196E000E1C6E1F0E1B6E5AEC6F4D
:10F8A300F0000E0D6E280E0C6E000E0F6E230E0E62
:10F8B3006E000E116E070E106EF80E136E000E1210
:10F8C3006EC2EC77F0000E0D6E3C0E0C6E000E0F48
:10F8D3006E230E0E6E000E116E070E106EFF0E13CA
:10F8E3006EE00E126EC2EC77F0000E2C6E500E2BF3
:10F8F3006E000E2E6E230E2D6E000E306E070E2F31
:10F903006E070E326EE00E316E08EC6FF01E0E299C
:10F913006E4C0E2A6E000E2B6E000E2D6E1F0E2CDB
:10F923006E000E2F6E000E2E6E020E306E640EDB16
:10F93300EC73F06CC001F06DC002F0D70E036EFFE4
:10F943000E046E9EEC6DF0320E296E6CC02AF06DC3
:10F95300C02BF0F80E2D6E1F0E2C6E000E2F6E00B6
:10F963000E2E6E010E306E1E0EDBEC73F0000E14C5
:10F973006E1E0E136E000E166E390E156E000E18E7
:10F983006E3C0E176E000E1A6E120E196EF80E1CD8
:10F993006E1F0E1B6E5AEC6FF0000E2C6E280E2B92
:10F9A3006E000E2E6E410E2D6E000E306E070E2F62
:10F9B3006EF80E326E000E316E08EC6FF0000E0D15
:10F9C3006E3C0E0C6E000E0F6E410E0E6E000E118D
:10F9D3006E070E106EFF0E136EE00E126EC2EC7702
:10F9E300F0000E0D6E500E0C6E000E0F6E410E0EDB
:10F9F3006E000E116E070E106E070E136EE00E12E0
:10FA03006EC2EC77F03C0E296E490E2A6E000E2B67
:10FA13006EF80E2D6E1F0E2C6E000E2F6E000E2E26
:10FA23006E020E306E640EDBEC73F06CC001F06D91
:10FA3300C002F0CD0E036EFF0E046E9EEC6DF0500F
:10FA43000E296E6CC02AF06DC02BF0070E2D6E2CA4
:10FA530068000E2F6E000E2E6E010E306E1E0EDB32
:10FA6300EC73F0000E146E1E0E136E000E166E571E
:10FA73000E156E000E186E3C0E176E000E1A6E12E7
:10FA83000E196E070E1C6E1B685AEC6FF0000E2CDD
:10FA93006E280E2B6E000E2E6E5F0E2D6E000E3036
:10FAA3006E070E2F6EF80E326E000E316E08EC6F7D
:10FAB300F0000E0D6E3C0E0C6E000E0F6E5F0E0E00
:10FAC3006E000E116E070E106EFF0E136EE00E1217
:10FAD3006EC2EC77F0000E0D6E500E0C6E000E0F22
:10FAE3006E5F0E0E6E000E116E070E106E070E1374
:10FAF3006EE00E126EC2EC77F05A0E296E460E2A95
:10FB03006E000E2B6E070E2D6E2C68000E2F6E00EE
:10FB13000E2E6E020E306E640EDBEC73F06CC001C1
:10FB2300F06DC002F0DE0E036EFF0E046E9EEC6DF0
:10FB3300F06E0E296E6CC02AF06DC02BF0FF0E2DF7
:10FB43006E2C68000E2F6E000E2E6E010E306E1E90
:10FB53000EDBEC73F0000E146E1E0E136E000E1609
:10FB63006E750E156E000E186E3C0E176E000E1A93
:10FB73006E120E196EFF0E1C6E1B685AEC6FF000AE
:10FB83000E2C6E280E2B6E000E2E6E7D0E2D6E002B
:10FB93000E306E070E2F6EF80E326E000E316E08A9
:10FBA300EC6FF0000E0D6E3C0E0C6E000E0F6E7DB2
:10FBB3000E0E6E000E116E070E106EFF0E136EE02A
:10FBC3000E126EC2EC77F0000E0D6E500E0C6E002E
:10FBD3000E0F6E7D0E0E6E000E116E070E106E0769
:10FBE3000E136EE00E126EC2EC77F0780E296E43A0
:10FBF3000E2A6E000E2B6EFF0E2D6E2C68000E2F3C
:10FC03006E000E2E6E020E306E640EDBEC73F06C23
:10FC1300C001F06DC002F0F30E036EFF0E046E9E82
:10FC2300EC6DF0140E296E6CC02AF06DC02BF00041
:10FC33000E2D6E1F0E2C6E000E2F6E000E2E6E01FB
:10FC43000E306E030EDBEC73F01E0E296E520E2A7D
:10FC53006E000E2B6E000E2D6E1F0E2C6E000E2FDF
:10FC63006E000E2E6E020E306E020EDBEC73F05A37
:10FC73000E296E4F0E2A6E000E2B6E070E2D6E2C64
:10FC830068000E2F6E000E2E6E020E306E020EDB1B
:10FC9300EC73F06CC001F06DC002F0F70E036EFF61
:10FCA3000E046E9EEC6DF0500E296E6CC02AF06D42
:10FCB300C02BF0070E2D6E2C68000E2F6E000E2E3B
:10FCC3006E010E306E030EDBEC73F06CC001F06D51
:10FCD300C002F0980E036EFF0E046E9EEC6DF08C66
:10FCE3000E296E6CC02AF06DC02BF0FF0E2D6E2C0A
:10FCF30068000E2F6E000E2E6E010E306E010EDBAD
:10FD0300EC73F0950E296E630E2A6E000E2B6EFFB8
:10FD13000E2D6E2C68000E2F6E000E2E6E010E300F
:10FD23006E060EDBEC73F0950E296E610E2A6E00E3
:10FD33000E2B6EFF0E2D6E2C68000E2F6E000E2EF6
:10FD43006E010E306E200EDBEC73F0950E296E5DA6
:10FD53000E2A6E000E2B6EFF0E2D6E2C68000E2FDA
:10FD63006E000E2E6E010E306E3A0EDBEC73F095C4
:10FD73000E296E5B0E2A6E000E2B6EFF0E2D6E2C5F
:10FD830068000E2F6E000E2E6E010E306E570EDBC6
:10FD9300EC73F0950E296E5F0E2A6E000E2B6EFF2C
:10FDA3000E2D6E2C68000E2F6E000E2E6E010E307F
:10FDB3006E700EDBEC73F012000000000000000018
:10FDC300005F00000007000700147F147F14242A3B
:10FDD3007F2A12231308646236495620500008070D
:10FDE3000300001C2241000041221C002A1C7F1C2E
:10FDF3002A08083E08080080703000080808080830
:10FE0300000060600020100804023E5149453E0096
:10FE1300427F400072494949462141494D331814F4
:10FE2300127F1027454545393C4A49493141211143
:10FE330009073649494936464949291E0000140035
:10FE43000000403400000008142241141414141458
:10FE5300004122140802015909063E415D594E7CB6
:10FE63001211127C7F494949363E414141227F416B
:10FE730041413E7F494949417F090909013E4141C9
:10FE830051737F0808087F00417F41002040413FB4
:10FE9300017F081422417F404040407F021C027FC3
:10FEA3007F0408107F3E4141413E7F090909063E18
:10FEB3004151215E7F0919294626494949320301E7
:10FEC3007F01033F4040403F1F2040201F3F4038F9
:10FED300403F631408146303047804036159494DD4
:10FEE30043007F4141410204081020004141417F0A
:10FEF3000402010204404040404000030708002080
:10FF0300545478407F28444438384444442838447F
:10FF130044287F385454541800087E090218A4A4B6
:10FF23009C787F0804047800447D40002040403DD5
:10FF3300007F1028440000417F40007C047804784F
:10FF43007C080404783844444438FC1824241818E2
:10FF5300242418FC7C08040408485454542404043E
:10FF63003F44243C4040207C1C2040201C3C40302B
:10FF7300403C44281028444C9090907C4464544C5A
:10FF830044000836410000007700000041360800B5
:10FF930002010204024E5350204E534C5420455745
:10FFA300502045574C54204D520045434533333080
:10FFB300314C2046616C6C2032312D5333004E4F4F
:10FFC3005254482F534F55544800454153542F57CB
:10FFD300455354004E2F53204C5400452F57204C6B
:10FFE30054004D6F64653A0046523A0046533A0056
:0DFFF300504E53005045570020002A0000DA
:020000040001F9
:01000000FF00
:020000040020DA
:08000000FFFFFFFFFFFFFFFF00
:020000040030CA
:0E000000FF08191EFF8281FF0FC00FE00F40A6
:00000001FF
