:04000000C7EF7AF0DC
:10F4E0001B0EC16EA90EC06E1200016E0150040DFC
:10F4F000F328C26E1200000E026E190E016E3C0E51
:10F50000FAEC7AF0600ED36E120001004F00120088
:10F5100006004C00240020000F00000004000D50E5
:10F520000E100F10D8B406D0000E0D1A000E0E1AD1
:10F53000800E0F1A0DC00DF00EC00EF00FC00FF0B0
:10F5400012000C6E0C50016E026A036A8E0E046E7D
:10F55000000E056EC3EC7CF001C009F002C00AF099
:10F5600003C00BF000D01200C28200D0C2B2FED79E
:10F57000C450046E036AC3500324056E000E0420B9
:10F58000066E05C001F006C002F000D01200716ADC
:10F59000706A0A0EF66EF50EF76E000EF86E00EE4B
:10F5A0005CF010EE14F00900F5CFEEFFE550E150ED
:10F5B000FAE1000186EF7EF0000E0C6E0AAE07D075
:10F5C000096C0A1ED8B00A2A010E0C6E00D009C0C0
:10F5D00001F00AC002F0036A8E0E046E0CC005F042
:10F5E000C3EC7CF001C009F002C00AF003C00BF0CC
:10F5F00000D01200036E000EAC6E000EAB6E03A0C6
:10F6000002D0AC8800D003A203D0AC8CAB8C00D06D
:10F6100003A402D0AC8E00D003A602D0AB8802D0E7
:10F62000AB8A00D003B8AC849E9803AA02D0AB8604
:10F6300000D003AC02D09D8A01D09D9A9E9A03AE61
:10F6400002D09D8801D09D9801C0AFFF0250B06EDE
:10F65000AC8AAB8E949C948EACB8ACBE02D0948C29
:10F6600000D01200015002100310D8A409D004C029
:10F67000D9FF05C0DAFF000EDE6E000EDD6E2ED063
:10F6800003507F0B066E076AD8900636073604C013
:10F69000D9FF05C0DAFF06C0DEFF07C0DDFF02AEFE
:10F6A00003D0066A062A01D0066A065004C0D9FFB4
:10F6B00005C0DAFFDE12000EDD1204C0D9FF05C05E
:10F6C000DAFF820EDE26FF0EDD2203800382038432
:10F6D00003860388038A039C029E00D01200000E5A
:10F6E000346E8E0E336E2EAE12D02E1E2D1E2C1E9C
:10F6F0002B6C000E2C222D222E22010E346E07D0F0
:10F70000D8902E322D322C322B32332A00D0000EDC
:10F710002B142F6E000E2C14306E000E2D14316E33
:10F72000FF0E2E14326E2F50301031103210D8A42C
:10F73000E7D72BC001F02CC002F02DC003F033C07E
:10F7400004F034C005F0C3EC7CF001C02BF002C023
:10F750002CF003C02DF000D01200000E306E2CAE45
:10F7600007D02B6C2C1ED8B02C2A010E306E00D086
:10F770002EAE05D02D6C2E1ED8B02E2A00D02D50C6
:10F780002E10D8B41DD0010E2F6E05D0D8902D3676
:10F790002E362F2A00D02EBE02D0F8D700D02D5002
:10F7A0002B5C2E502C58D8A005D02D502B5E2E50FF
:10F7B0002C5A00D0D8902E322D322F2EF0D700D0D8
:10F7C0003050D8B405D02B6C2C1ED8B02C2A00D0C9
:10F7D0002BC02BF02CC02CF000D0120035C001F053
:10F7E00036C002F037C003F03B0E046E000E056E0B
:10F7F00032EC7BF03CAE07D0000E356E000E366E5C
:10F80000000E376E2CD03C5004E1150E3B5CD8A0A6
:10F8100007D035C035F036C036F037C037F01FD0CE
:10F8200035C01CF036C01DF037C01EF097EC7DF0DF
:10F830001CC02BF01DC02CF01EC02DF01FC02EF0E0
:10F840006FEC7BF02BC038F02CC039F02DC03AF0B3
:10F8500038C035F039C036F03AC037F000D0120069
:10F860003DC035F03EC036F03FC037F0EEEC7BF0E7
:10F8700035C00DF036C00EF037C00FF08FEC7AF0C7
:10F880000DC010F00EC011F00FC012F03DC013F00B
:10F890003EC014F03FC015F01EEC7FF010C040F0E9
:10F8A00011C041F012C042F03DC010F03EC011F056
:10F8B0003FC012F040C013F041C014F042C015F038
:10F8C0001EEC7FF010C03DF011C03EF012C03FF0C2
:10F8D0003DC035F03EC036F03FC037F0EEEC7BF077
:10F8E00035C03DF036C03EF037C03FF000D01200CA
:10F8F000000E306E2EAE07D02D6C2E1ED8B02E2AE4
:10F90000010E306E00D02CAE07D02B6C2C1ED8B060
:10F910002C2A010E301A00D0000E326E000E316E0D
:10F920002D502E10D8B421D0010E2F6E05D0D890B6
:10F930002D362E362F2A00D02EBE02D0F8D700D07A
:10F94000D890313632362D502B5C2E502C58D8A002
:10F9500006D02D502B5E2E502C5A318000D0D890DE
:10F960002E322D322F2EECD700D03050D8B405D007
:10F97000316C321ED8B0322A00D031C02BF032C0E8
:10F980002CF000D012000450D8B405D00150021061
:10F990000310D8A40ED0000E016E000E026E000EF1
:10F9A000036E53D006D0042AD890033202320132BB
:10F9B00000D0000E0114066E000E0214076EFE0E3B
:10F9C0000314086E065007100810D8B40ED0EBD7F9
:10F9D0000CD0042A010E0126000E0222000E032282
:10F9E000D89003320232013200D0000E0114066EAC
:10F9F000000E0214076EFF0E0314086E0650071067
:10FA00000810D8B408D0E5D706D00406D89001363F
:10FA10000236033600D002BE04D0020E0460F5D7D1
:10FA200000D004B002D0029E00D0D890043204501E
:10FA300003120550D8B402D0038E00D001C001F0EB
:10FA400002C002F003C003F000D0120045C049F02C
:10FA50004A6A4B6A4434493601E34A804950506E41
:10FA60005050D8A402D00ED061D048C049F04A6AA4
:10FA70004B6A4734493601E34A804950516E515030
:10FA8000D8A407D0000E436E000E446E000E456EE3
:10FA90004DD0000E4D6E000E4E6E000E4F6E51504A
:10FAA000890F505E45C051F04850511A800E5116D2
:10FAB000448EFF0E4316FF0E4416000E4516478E69
:10FAC000FF0E4616FF0E4716000E4816180E4C6E17
:10FAD00000D0D8904D364E364F364650435C475096
:10FAE000445848504558D8A007D04650435E475028
:10FAF000445A4850455A4D80D8904336443645368E
:10FB00004C2EE7D700D04DC001F04EC002F04FC0E0
:10FB100003F050C004F051C005F0C3EC7CF001C00C
:10FB200043F002C044F003C045F000D012001EC0F4
:10FB300020F0216A226A1D34203601E32180205002
:10FB40002A6E2A50D8A402D039D063D0170E206E66
:10FB50001CC021F01DC022F01EC023F02028246EFE
:10FB600004D0D890233222322132242EFAD72150C9
:10FB7000256E1D8EFF0E1C16FF0E1D16000E1E1686
:10FB80001C50266E1D50276E1E50286E296A8E0E40
:10FB90002A5E2AAE10D02A50800A8F0FD8B003D028
:10FBA0000DD037D000D0D8902932283227322632D3
:10FBB0002A3EF9D719D0170E2A6411D0000E1C6EF8
:10FBC000000E1D6E000E1E6E000E1F6E22D007D09E
:10FBD000D89026362736283629362A0600D02A50CD
:10FBE000D8B402D0F5D700D02550D8B409D0291EFA
:10FBF000281E271E266C000E27222822292200D02C
:10FC000026C01CF027C01DF028C01EF029C01FF020
:10FC100000D012000FC013F0146A156A0E341336A8
:10FC200001E314801350166E1650D8A402D00ED0E3
:10FC30006CD012C013F0146A156A1134133601E344
:10FC4000148013501B6E1B50D8A407D0000E0D6EED
:10FC5000000E0E6E000E0F6E58D01B507B0F162636
:10FC60000FC01BF012501B1A800E1B160E8E118E29
:10FC7000FF0E1016FF0E1116000E1216000E176E54
:10FC8000000E186E000E196E070E1A6E00D00DA031
:10FC900007D010501726115018221250192200D0E8
:10FCA000D8900F320E320D32D890103611361236EF
:10FCB0001A2EEDD700D0090E1A6E00D00DA007D075
:10FCC00010501726115018221250192200D0D89027
:10FCD0000F320E320D32D8901932183217321A2ED6
:10FCE000EDD700D017C001F018C002F019C003F022
:10FCF00016C004F01BC005F0C3EC7CF001C00DF091
:10FD000002C00EF003C00FF000D0120070EC7AF0C9
:10FD10007BEC7AF00F0E926E000E936E000E946ED6
:10FD2000000E956E000E966E000E816E82688368DE
:10FD3000846880D0000E75EC7AF0B4EC7AF001C0E3
:10FD400056F002C057F056C009F057C00AF0DCEC7C
:10FD50007AF009C00DF00AC00EF00BC00FF0000ED3
:10FD6000106E800E116E400E126E0AEC7EF00DC009
:10FD700053F00EC054F00FC055F053C03DF054C0C6
:10FD80003EF055C03FF030EC7CF03DC043F03EC04B
:10FD900044F03FC045F0000E466EC80E476E420E5E
:10FDA000486E26EC7DF043C059F044C05AF045C07F
:10FDB0005BF059C01CF05AC01DF05BC01EF097EC00
:10FDC0007DF01CC02BF01DC02CF0000E2E6E0A0E14
:10FDD0002D6EADEC7BF02B50586E59C013F05AC00D
:10FDE00014F05BC015F05850A1EC7AF009C00DF08A
:10FDF0000AC00EF00BC00FF08FEC7AF00DC010F0BF
:10FE00000EC011F00FC012F01EEC7FF010C01CF0FD
:10FE100011C01DF012C01EF097EC7DF01CC02BF03D
:10FE20001DC02CF0000E2E6E0A0E2D6E78EC7CF0AC
:10FE30002B50526E839E7ED700EF00F012C016F05A
:10FE4000176A186A1134163601E3178016501B6EB4
:10FE500015C016F0176A186A1434163601E31780B5
:10FE600016501A6E1B50D8B40BD01A501B5CD8B069
:10FE70000ED01B5000081A24166E180E166407D0F8
:10FE800013C010F014C011F015C012F0B8D01A5001
:10FE9000D8B40BD01B501A5CD8B00ED01A50000842
:10FEA0001B24166E180E166407D010C010F011C077
:10FEB00011F012C012F0A3D0060E196E12AE02D0CD
:10FEC000198E00D015BE198C118EFF0E1016FF0E64
:10FED0001116000E1216148EFF0E1316FF0E1416B6
:10FEE000000E15161A501B5CD8B01ED0D8901336D1
:10FEF000143615361A061B501A18D8B40FD0190626
:10FF000019C016F0070E1616D8B408D0EFD706D0D1
:10FF1000D8901232113210321B2A00D01A501B18FE
:10FF2000D8B424D0F5D722D01B501A5CD8B01ED03C
:10FF3000D8901036113612361B061B501A18D8B43A
:10FF40000FD0190619C016F0070E1616D8B408D02F
:10FF5000EFD706D0D8901532143213321A2A00D0B7
:10FF60001A501B18D8B402D0F5D700D019AE0CD057
:10FF7000FF0E101AFF0E111AFF0E121A010E102694
:10FF8000000E1122000E122219AC0DD0FF0E131A12
:10FF9000FF0E141AFF0E151A010E1326000E14225E
:10FFA000000E152200D0000E196E105013261150AD
:10FFB00014221250152215AE0FD0FF0E131AFF0E89
:10FFC000141AFF0E151A010E1326000E1422000E2D
:10FFD0001522010E196E00D013C001F014C002F0FA
:10FFE00015C003F01BC004F019C005F0C3EC7CF091
:10FFF00001C010F002C011F003C012F000D01200D6
:020000040020DA
:08000000FFFFFFFFFFFFFFFF00
:020000040030CA
:0E000000FF08191EFF8381FF0FC00FE00F40A5
:00000001FF
