:040000000CEF00F011
:10000800FACF1FF0FBCF20F0E9CF21F00BED1EF067
:10001800DBEF1FF00001ECAF26D02D0E0001C36FFF
:100028000001EC517F0B0008800F01017A6F7AC143
:100038006BF101016C6B000E01016E6F0A0E6D6FA2
:10004800BEEC19F001016B51300F0001C46F7AC189
:1000580067F10101686B000E01016A6F0A0E696F92
:1000680073EC1CF01ED02B0E0001C36FECC06BF1BB
:10007800EDC06CF1000E01016E6F0A0E6D6FBEECE3
:1000880019F001016B51300F0001C46FECC067F12A
:10009800EDC068F1000E01016A6F0A0E696F73EC1A
:1000A8001CF001016751300F0001C56F00D035AE5B
:1000B80036D02D0E0001C76F7F0E34140101746F06
:1000C800000E35140101756F0101741F751F744B03
:1000D800752B800E010174250101786F000E010156
:1000E80075210101796F78C16BF179C16CF1000E4E
:1000F80001016E6F0A0E6D6FBEEC19F001016B51B4
:10010800300F0001C86F78C167F179C168F1000E3E
:1001180001016A6F0A0E696F73EC1CF01ED02B0E7A
:100128000001C76F34C06BF135C06CF1000E0101DE
:100138006E6F0A0E6D6FBEEC19F001016B51300F36
:100148000001C86F34C067F135C068F1000E0101C5
:100158006A6F0A0E696F73EC1CF001016751300F6A
:100168000001C96F00D000018A390F0B300F000160
:10017800996F00018A510F0B300F00019A6F00012F
:100188008B390F0B300F00019C6F00018B510F0B47
:10019800300F00019D6F0001F5390F0B300F000182
:1001A8009F6F0001F5510F0B300F0001A06F000188
:1001B8008C390F0B300F0001906F00018C510F0B21
:1001C800300F0001916F000188390F0B300F0001CB
:1001D800936F000188510F0B300F0001946F0001DD
:1001E8008F390F0B300F0001966F00018F510F0BE5
:1001F800300F0001976F50380F0B300F0101346F2B
:1002080050500F0B300F0101356F51380F0B300F65
:100218000101376F51500F0B300F0101386F523801
:100228000F0B300F01013A6F52500F0B300F0101C5
:100238003B6F0001EA050001EB11D8A40FD0B70EFF
:100248000001CD6F000E0001CE6FE90E0001CF6FE7
:10025800FF0E0001D06F61EC24F00FD0B70E000143
:10026800CD6F000E0001CE6FED0E0001CF6FFF0EB7
:100278000001D06F61EC24F000D057C06BF1010190
:100288006C6B000E01016E6F640E6D6FBEEC19F0A1
:1002980001016B51300F0001A86F000E01016A6F58
:1002A800640E696F57C067F10101686B73EC1CF04D
:1002B80067C16BF168C16CF1000E01016E6F0A0E27
:1002C8006D6FBEEC19F001016B51300F0001A96F81
:1002D80057C067F10101686B000E01016A6F0A0ED1
:1002E800696F73EC1CF001016751300F0001AA6FB0
:1002F8004504D8A40FD0BF0E0001CD6F000E000139
:10030800CE6FE90E0001CF6FFF0E0001D06F61ECD8
:1003180024F00FD0BF0E0001CD6F000E0001CE6F8C
:10032800ED0E0001CF6FFF0E0001D06F61EC24F0DD
:1003380000D081B802D0310E01D0300E0001CB6F51
:1003480000D055C06BF101016C6B000E01016E6F9E
:10035800640E6D6FBEEC19F001016B51300F000196
:10036800BB6F000E01016A6F640E696F55C067F1BB
:100378000101686B73EC1CF067C16BF168C16CF12B
:10038800000E01016E6F0A0E6D6FBEEC19F00101CF
:100398006B51300F0001BC6F000E01016A6F640ED3
:1003A800696F55C067F10101686B73EC1CF067C198
:1003B80076F168C177F176C167F177C168F1000E0F
:1003C80001016A6F0A0E696F73EC1CF00101675135
:1003D800300F0001BD6F31C058F132C059F133C040
:1003E8005AF17FEC14F001015851300F0001A26F4F
:1003F800000E0001DC6F200E0001DD6F410E0001D0
:10040800DE6F31C0D9F032C0DAF033C0DBF0F8EC7F
:100418000FF0D9C058F1DAC059F1DBC05AF17FECBE
:1004280014F058C167F159C168F1000E01016A6FF3
:100438000A0E696F73EC1CF001016751300F00015F
:10044800A46F000E0001DC6FC80E0001DD6F420EC4
:100458000001DE6F31C0D9F032C0DAF033C0DBF012
:10046800F8EC0FF0D9C058F1DAC059F1DBC05AF1F5
:100478007FEC14F058C167F159C168F1000E010111
:100488006A6F0A0E696F73EC1CF001016751300F37
:100498000001A56FF0C06BF1F1C06CF1030E010112
:1004A8006E6FE80E6D6FBEEC19F001016B51300FE5
:1004B8000001AD6F030E01016A6FE80E696FF0C0AD
:1004C80067F1F1C068F173EC1CF067C16BF168C1AA
:1004D8006CF1000E01016E6F640E6D6FBEEC19F0C9
:1004E80001016B51300F0001AE6F000E01016A6F00
:1004F800640E696FF0C067F1F1C068F173EC1CF02D
:1005080067C16BF168C16CF1000E01016E6F0A0ED4
:100518006D6FBEEC19F001016B51300F0001AF6F28
:10052800F0C067F1F1C068F1000E01016A6F0A0EB0
:10053800696F73EC1CF001016751300F0001B06F57
:10054800170E0101636FC30E0101646F000E0101F4
:10055800656FFF0E0101676FE00E666F000E010107
:10056800696F000E686F020E01016A6F010E18ECC8
:1005780015F0170E0101636FC70E0101646F000EBD
:100588000101656FFF0E0101676FE00E666F000ED7
:100598000101696F000E686F020E01016A6F460E55
:1005A80018EC15F0340E0101636F990E0101646FA8
:1005B800000E0101656F070E0101676F6669000E85
:1005C8000101696F000E686F020E01016A6F0F0E5C
:1005D80018EC15F0520E0101636F900E0101646F63
:1005E800000E0101656F070E0101676FE00E666F6F
:1005F800000E0101696F000E686F020E01016A6F3B
:100608000F0E18EC15F06E0E0101636F340E010128
:10061800646F010E0101656F070E0101676F66695E
:10062800000E0101696F000E686F010E01016A6F0B
:100638000A0E18EC15F06E0E0101636FB70E01017A
:10064800646F000E0101656F070E0101676F66692F
:10065800000E0101696F000E686F010E01016A6FDB
:100668005F0E18EC15F0820E0101636FA80E0101F0
:10067800646F000E0101656FF80E0101676F000ECF
:10068800666F000E0101696F000E686F010E0101AF
:100698006A6F230E18EC15F0820E0101636FBF0E0E
:1006A8000101646F000E0101656FF80E0101676FAB
:1006B800000E666F000E0101696F000E686F010E73
:1006C80001016A6F5F0E18EC15F0960E0101636F59
:1006D800BB0E0101646F000E0101656F070E010179
:1006E800676FE00E666F000E0101696F000E686F9C
:1006F800010E01016A6F0A0E18EC15F0960E010141
:10070800636FCB0E0101646F000E0101656F070E68
:100718000101676FE00E666F000E0101696F000E40
:10072800686F010E01016A6F230E18EC15F0960E22
:100738000101636FA20E0101646F000E0101656F74
:10074800070E0101676FE00E666F000E0101696F09
:10075800000E686F010E01016A6F320E18EC15F079
:10076800960E0101636FAD0E0101646F000E010169
:10077800656F070E0101676FE00E666F000E0101DD
:10078800696F000E686F010E01016A6F5D0E18EC4B
:1007980015F012004EEC26F0DBEC24F0000E000100
:1007A800E16F000EE06F67EC25F042C0CDF043C06A
:1007B800CEF0D50E0001CF6FFE0E0001D06F61ECB8
:1007C80024F0010E0101636F42C064F143C065F17A
:1007D800FF0E0101676F6669000E0101696F000E67
:1007E800686F010E01016A6F010E18EC15F042C026
:1007F800CDF043C0CEF06E0E0001CF6FFF0E0001AA
:10080800D06F61EC24F00B0E0101636F42C064F1FC
:1008180043C065F1F80E0101676F1F0E666F000E89
:100828000101696F000E686F010E01016A6F180EF1
:1008380018EC15F0000E0001D96F280ED86F000EC5
:100848000001DB6F170EDA6F000E0001DD6F020E7C
:10085800DC6FFF0E0001DF6FE00EDE6F9BEC09F02E
:1008680042C0CDF043C0CEF0F50E0001CF6FFF0EB1
:100878000001D06F61EC24F0170E0101636F42C0D4
:1008880064F143C065F1FF0E0101676FE00E666F0A
:10089800000E0101696F000E686F020E01016A6F98
:1008A8002D0E18EC15F042C0CDF043C0CEF0EF0E7F
:1008B8000001CF6FFF0E0001D06F61EC24F0000E35
:1008C8000001D96F6E0ED86F000E0001DB6F170E96
:1008D800DA6F000E0001DD6F020EDC6FFF0E000103
:1008E800DF6FE00EDE6F9BEC09F0170E0101636FFE
:1008F80042C064F143C065F1FF0E0101676FE00E6D
:10090800666F000E0101696F000E686F020E01012B
:100918006A6F730E18EC15F042C0CDF043C0CEF0EC
:10092800B00E0001CF6FFF0E0001D06F61EC24F014
:10093800280E0101636F42C064F143C065F1000EE7
:100948000101676F1F0E666F000E0101696F000ECF
:10095800686F010E01016A6F320E18EC15F042C083
:10096800CDF043C0CEF0DF0E0001CF6FFF0E0001C7
:10097800D06F61EC24F0470E0101636F42C064F14F
:1009880043C065F1F80E0101676F000E666F000E37
:100998000101696F000E686F010E01016A6F320E66
:1009A80018EC15F042C0CDF043C0CEF0AA0E0001FD
:1009B800CF6FFF0E0001D06F61EC24F0640E0101CF
:1009C800636F42C064F143C065F1FF0E0101676FB8
:1009D800E00E666F000E0101696F000E686F010E70
:1009E80001016A6F040E18EC15F042C0CDF043C047
:1009F800CEF0BF0E0001CF6FFF0E0001D06F61EC8B
:100A080024F0640E0101636F42C064F143C065F1D4
:100A1800FF0E0101676FE00E666F000E0101696F3E
:100A2800000E686F010E01016A6F4D0E18EC15F08B
:100A380042C0CDF043C0CEF07B0E0001CF6FFF0E59
:100A48000001D06F61EC24F0780E0101636F42C0A1
:100A580064F143C065F1000E0101676F1F0E666FF8
:100A6800000E0101696F000E686F010E01016A6FC7
:100A7800060E18EC15F042C0CDF043C0CEF0D80EEB
:100A88000001CF6FFF0E0001D06F61EC24F0780EEB
:100A98000101636F42C064F143C065F1000E0101BA
:100AA800676F1F0E666F000E0101696F000E686F99
:100AB800010E01016A6F550E18EC15F042C0CDF019
:100AC80043C0CEF0F80E0001CF6FFF0E0001D06FCB
:100AD80061EC24F08C0E0101636F42C064F143C0E5
:100AE80065F1FF0E0101676F6669000E0101696F0C
:100AF800000E686F010E01016A6F0C0E18EC15F0FC
:100B080042C0CDF043C0CEF0FB0E0001CF6FFF0E08
:100B18000001D06F61EC24F08C0E0101636F42C0BC
:100B280064F143C065F1FF0E0101676F6669000E4D
:100B38000101696F000E686F010E01016A6F210ED5
:100B480018EC15F042C0CDF043C0CEF0E40E000121
:100B5800CF6FFF0E0001D06F61EC24F08C0E010105
:100B6800636F42C064F143C065F1FF0E0101676F16
:100B78006669000E0101696F000E686F010E0101C0
:100B88006A6F320E18EC15F042C0CDF043C0CEF0BB
:100B9800F10E0001CF6FFF0E0001D06F61EC24F061
:100BA8008C0E0101636F42C064F143C065F1FF0E12
:100BB8000101676F6669000E0101696F000E686FB9
:100BC800010E01016A6F5F0E18EC15F01200DB0EC2
:100BD80001015D6F000E01015E6FEBD1250E010171
:100BE8006519D8B405D001016551BDEC26F0E1D1F5
:100BF800000E0101646F000E636F000E0101626F49
:100C080007D0010162850001D94BDA2B01D00BD046
:100C1800D9C0F6FFDAC0F7FF0800F550300AD8B49B
:100C2800F0D701D0F5D7D9C0F6FFDAC0F7FF080032
:100C3800F550C4EC24F0D8A04AD0000E0101646F2E
:100C4800000E636F00D063C1CDF064C1CEF0000E1A
:100C58000001D06F0A0ECF6F45EC24F0CDC063F1D0
:100C6800CEC064F1D00E0101586FFF0E0101596F1B
:100C7800D9C0F6FFDAC0F7FF0800F55001015A6F36
:100C88005B6B0101585101015A27010159510101BA
:100C98005B2301015A510101632701015B510101E5
:100CA80064230001D94BDA2BD9C0F6FFDAC0F7FF6D
:100CB8000800F550C4EC24F0D8A009D0C4D707D058
:100CC80088D11ED00101628F1BD073D119D0D9C031
:100CD800F6FFDAC0F7FF0001D94BDA2B0800F5CF91
:100CE80065F101016551000AD8B473D1640AD8B41A
:100CF80007D00D0AD8B404D0110AD8B4E3D759D113
:100D0800010162BF19D05DC1D9FF5EC1DAFFDECF34
:100D180060F1DDCF61F1020E01015D27000E5E2357
:100D2800010161AF5DD0030E010162130101606D25
:100D3800611FD8B0612B54D05DC1D9FF5EC1DAFF05
:100D4800DECF60F1DDCF61F1020E01015D27000EFB
:100D58005E2346D0010E0101656F050E010165197C
:100D6800D8B448D001D046D001016551020D560EC5
:100D7800F324F66EFE0EF420F76E0900F55001011B
:100D8800605D0900F55001016159D8A033D001D048
:100D980031D00101652BE1D72DD0010E0101656F1E
:100DA800040E01016519D8B425D001D023D0010162
:100DB8006551020D600EF324F66EFE0EF420F76EF8
:100DC8000900F5500101605D0900F5500101615904
:100DD800D8A010D001D00ED00101652BE1D70AD0E0
:100DE80001016251800B000AD8B4B4D7800AD8B484
:100DF800D4D700D00101635101016411D8B40CD0DB
:100E080062C158F1030E01015817D8B405D0010189
:100E18006307D8A0640700D0800E010165BF7F0E6C
:100E28000101586F010163510101655D01016451C0
:100E3800800A01015859D8B00BD001016551010150
:100E4800635F000E010165BFFF0E0101645B06D000
:100E5800000E0101646F000E636F00D0010162A5EE
:100E680020D062C158F1030E01015817D8B404D03C
:100E78002D0EBDEC26F000D0010163510101641173
:100E8800D8B42FD0300EBDEC26F001016307D8A0EE
:100E980064070101635101016411D8B422D0F2D76B
:100EA80020D00101635101016411D8B40FD0200E84
:100EB800BDEC26F001016307D8A064070101635166
:100EC80001016411D8B402D0F2D700D062C158F140
:100ED800030E01015817D8B404D02D0EBDEC26F02E
:100EE80000D065C15FF15DD04DD001015F51020DA9
:100EF800560EF324F66EFE0EF420F76E0900F5CFB9
:100F0800CFF00A00F5CFD0F060C1CDF061C1CEF0CE
:100F180021EC1FF0CDC0D4F0CEC0D5F0000E0001FA
:100F2800D76F0A0ED66FEFEC20F00001D451300FC6
:100F38000101656F31D060C1CDF061C1CEF0010112
:100F48005F51020D600EF324F66EFE0EF420F76E6C
:100F58000900F5CFCFF00A00F5CFD0F021EC1FF053
:100F68000001CD510F0B01015C6F01015C51010DB6
:100F78003D0EF324F66EFF0EF420F76E0800F5CF51
:100F880065F10AD001016251800B000AD8B4ADD7CF
:100F9800800AD8B4D0D700D001016551BDEC26F045
:100FA80000D001015F0701015F29D8B402D0EAD758
:100FB80000D0D9C0F6FFDAC0F7FF0001D94BDA2B11
:100FC8000800F5CF65F101016551D8B402D006D605
:100FD80000D012000F0E166E000E176E99D1250E56
:100FE8001E18D8B404D01E50E1EC26F091D1000EA2
:100FF8001D6E000E1C6E000E1B6E05D01B840D4A64
:101008000E2A01D00BD00DC0F6FF0EC0F7FF080066
:10101800F550300AD8B4F2D701D0F5D70DC0F6FF95
:101028000EC0F7FF0800F55078EC25F0D8A03BD0AB
:10103800000E1D6E000E1C6E00D01CC001F01DC0FD
:1010480002F0000E046E0A0E036E41EC25F001C09A
:101058001CF002C01DF0D00E116EFF0E126E0DC0F6
:10106800F6FF0EC0F7FF0800F550136E146A115012
:1010780013261250142213501C2614501D220D4AF8
:101088000E2A0DC0F6FF0EC0F7FF0800F55078ECE9
:1010980025F0D8A008D0D1D706D048D11BD01B8EB8
:1010A80019D036D117D00DC0F6FF0EC0F7FF0D4A84
:1010B8000E2A0800F5CF1EF01E50000AD8B436D10B
:1010C800640AD8B407D00D0AD8B404D0110AD8B429
:1010D800E6D71ED11BBE15D016C0D9FF17C0DAFF40
:1010E800DECF19F0DDCF1AF0020E1626000E1722F9
:1010F8001AAE4ED0030E1B12196C1A1ED8B01A2A3B
:1011080047D016C0D9FF17C0DAFFDECF19F0DDCF00
:101118001AF0020E1626000E17223AD0010E1E6E85
:10112800050E1E18D8B43DD001D03BD01E50020D7C
:10113800560EF324F66EFE0EF420F76E0900F550F5
:10114800195C0900F5501A58D8A02BD001D029D025
:101158001E2AE6D726D0010E1E6E040E1E18D8B41D
:1011680020D001D01ED01E50020D600EF324F66E62
:10117800FE0EF420F76E0900F550195C0900F550D1
:101188001A58D8A00ED001D00CD01E2AE6D709D004
:101198001B50800B000AD8B4C1D7800AD8B4DBD75B
:1011A80000D01C501D10D8B40AD01BC011F0030E7B
:1011B8001116D8B404D01C06D8A01D0600D0800E85
:1011C8001EBE7F0E116E1C501E5C1D50800A1158E9
:1011D800D8B007D01E501C5E000E1EBEFF0E1D5A52
:1011E80005D0000E1D6E000E1C6E00D01BA41AD078
:1011F8001BC011F0030E1116D8B404D02D0EE1EC6B
:1012080026F000D01C501D10D8B426D0300EE1ECCA
:1012180026F01C06D8A01D061C501D10D8B41CD0E2
:10122800F5D71AD01C501D10D8B40CD0200EE1EC04
:1012380026F01C06D8A01D061C501D10D8B402D0DC
:10124800F5D700D01BC011F0030E1116D8B404D086
:101258002D0EE1EC26F000D01EC018F053D045D07A
:101268001850020D560EF324F66EFE0EF420F76E9B
:101278000900F5CF03F00A00F5CF04F019C001F01A
:101288001AC002F0E5EC21F001C008F002C009F034
:10129800000E0B6E0A0E0A6E36EC23F00850300F63
:1012A8001E6E2CD019C001F01AC002F01850020DA1
:1012B800600EF324F66EFE0EF420F76E0900F5CFEB
:1012C80003F00A00F5CF04F0E5EC21F001500F0B14
:1012D800156E1550010D3D0EF324F66EFF0EF42029
:1012E800F76E0800F5CF1EF009D01B50800B000ADE
:1012F800D8B4B6D7800AD8B4D5D700D01E50E1EC00
:1013080026F000D018061828D8B402D0EED700D09E
:101318000DC0F6FF0EC0F7FF0D4A0E2A0800F5CFE4
:101328001EF01E50D8B402D05AD600D01200DCC02D
:10133800E0F0DDC0E1F00001E01FE11FE04BE12B30
:10134800010E0001E02501015C6F000E0001E121A2
:1013580001015D6F000E0101596F010E586FDCC06D
:10136800E0F0DDC0E1F0D8900001E037E13700019E
:10137800E01FE11FE04BE12BE0C05AF1E1C05BF157
:10138800000E01015F6F000E5E6FDCC060F1DDC012
:1013980061F10001DA510001DC250001D46FDEC0E3
:1013A800D5F0DFC0D6F00001D851C7EC23F000011A
:1013B800DC5100080001DA250001D46FDEC0D5F049
:1013C800DFC0D6F00001D851C7EC23F0DAC0D4F062
:1013D800DEC0D5F0DFC0D6F00001D8510001DC2511
:1013E800C7EC23F0DAC0D4F0DEC0D5F0DFC0D6F009
:1013F8000001DC5100080001D825C7EC23F0ADD06E
:1014080001015DBF11D001016007D8A06107020E7C
:1014180001015A27000E5B2301015A5101015C2783
:1014280001015B5101015D2301015E4B5F2B020E3F
:1014380001015827000E59230101585101015C2769
:101448000101595101015D230001DA5101016025B3
:101458000001D46FDEC0D5F0DFC0D6F00001D8514E
:1014680001015E25C7EC23F00001DA510101602576
:101478000001D46FDEC0D5F0DFC0D6F001015E51A7
:1014880000080001D825C7EC23F0010160510008CD
:101498000001DA250001D46FDEC0D5F0DFC0D6F038
:1014A8000001D85101015E25C7EC23F0010160510C
:1014B80000080001DA250001D46FDEC0D5F0DFC0D6
:1014C800D6F001015E5100080001D825C7EC23F0D1
:1014D8000001DA5101015E250001D46FDEC0D5F0AC
:1014E800DFC0D6F00001D85101016025C7EC23F018
:1014F8000001DA5101015E250001D46FDEC0D5F08C
:10150800DFC0D6F00101605100080001D825C7EC02
:1015180023F001015E5100080001DA250001D46FB3
:10152800DEC0D5F0DFC0D6F00001D851010160253A
:10153800C7EC23F001015E5100080001DA25000123
:10154800D46FDEC0D5F0DFC0D6F0010160510008CD
:101558000001D825C7EC23F000D00101605101013A
:101568005E5D01015F51800A0001E06F0101615178
:10157800800A0001E059D8A043D712000101586F32
:10158800240E01015A6F1E0E0101596F05D1010188
:101598005951440F0001DF6F190E0001E06F020E70
:1015A8000001E16F000E0001E36F000EE26F010120
:1015B8005A51020DF3500E0F25EC21F0440E000194
:1015C800DF6F190E0001E06F020E0001E16F000EDF
:1015D8000001E36F000EE26F01015A51020DF35052
:1015E8000E0F25EC21F0440E0001DF6F190E0001EB
:1015F800E06F020E0001E16F070E0001E36FE26980
:101608000E0E25EC21F0DDD0440E0001DF6F190E1F
:101618000001E06F020E0001E16F000E0001E36FB0
:10162800000EE26F0E0E25EC21F0440E0001DF6F74
:10163800190E0001E06F020E0001E16F070E0001B4
:10164800E36FE26901015A510E0F25EC21F0B9D080
:10165800440E0001DF6F190E0001E06F020E000159
:10166800E16F000E0001E36F000EE26F01015A51B5
:101678000E0F25EC21F0440E0001DF6F190E00015A
:10168800E06F020E0001E16F070E0001E36FE269EF
:1016980001015A51020DF3500E0F25EC21F091D0A3
:1016A800440E0001DF6F190E0001E06F020E000109
:1016B800E16F000E0001E36F000EE26F01015A5165
:1016C800020DF3500E0F25EC21F001015951440F82
:1016D8000001DF6F190E0001E06F020E0001E16FDB
:1016E800070E0001E36FE2690E0E25EC21F069D0C8
:1016F80001015951440F0001DF6F190E0001E06F1D
:10170800020E0001E16F000E0001E36F000EE26FB0
:101718000E0E25EC21F001015951440F0001DF6F35
:10172800190E0001E06F020E0001E16F070E0001C3
:10173800E36FE26901015A510E0F25EC21F041D007
:1017480001015951440F0001DF6F190E0001E06FCC
:10175800020E0001E16F000E0001E36F000EE26F60
:1017680001015A510E0F25EC21F001015951440F86
:101778000001DF6F190E0001E06F020E0001E16F3A
:10178800070E0001E36FE26901015A51020DF3509F
:101798000E0F25EC21F015D001015851000AD8B4DC
:1017A800F6D6010AD8B430D7030AD8B451D7010AFB
:1017B800D8B476D7070AD8B49BD7010AD8B4C0D70B
:1017C80000D012000101586F240E01015A6F1E0E3D
:1017D8000101596F01D1440E0001DF6F190E00019C
:1017E800E06F020E0001E16F000E0001E36F000ED2
:1017F800E26F01015A510E0F25EC21F0440E000151
:10180800DF6F190E0001E06F020E0001E16F070E95
:101818000001E36FE2690E0E25EC21F0F2D0440ED0
:101828000001DF6F190E0001E06F020E0001E16F89
:10183800000E0001E36F000EE26F01015A51020D24
:10184800F3500E0F25EC21F0440E0001DF6F190E46
:101858000001E06F020E0001E16F070E0001E36F67
:10186800E26901015A510E0F25EC21F0CAD0440E4D
:101878000001DF6F190E0001E06F020E0001E16F39
:10188800000E0001E36F000EE26F0E0E25EC21F052
:1018980001015951440F0001DF6F190E0001E06F7B
:1018A800020E0001E16F000E0001E36F000EE26F0F
:1018B8000E0E25EC21F0440E0001DF6F190E000119
:1018C800E06F020E0001E16F070E0001E36FE269AD
:1018D80001015A51020DF3500E0F25EC21F091D061
:1018E80001015951440F0001DF6F190E0001E06F2B
:1018F800020E0001E16F000E0001E36F000EE26FBF
:1019080001015A510E0F25EC21F001015951440FE4
:101918000001DF6F190E0001E06F020E0001E16F98
:10192800070E0001E36FE2690E0E25EC21F069D085
:1019380001015951440F0001DF6F190E0001E06FDA
:10194800020E0001E16F000E0001E36F000EE26F6E
:1019580001015A51020DF3500E0F25EC21F001013F
:101968005951440F0001DF6F190E0001E06F020E9C
:101978000001E16F070E0001E36FE26901015A51AE
:101988000E0F25EC21F03DD0440E0001DF6F190E3B
:101998000001E06F020E0001E16F000E0001E36F2D
:1019A800000EE26F0E0E25EC21F001015951440F93
:1019B8000001DF6F190E0001E06F020E0001E16FF8
:1019C800070E0001E36FE26901015A51020DF3505D
:1019D8000E0F25EC21F015D001015851000AD8B49A
:1019E800FAD6010AD8B41BD7030AD8B440D7010ADB
:1019F800D8B476D7070AD8B49BD7010AD8B4C4D7C5
:101A080000D01200A0EC1FF0CEEC03F0B9EC20F0EF
:101A180097EC22F000018D6900D062EC1FF0F0C055
:101A2800CDF0F1C0CEF0C2EC1DF00001F55100017F
:101A38008D19D8B4B4D0F5C08DF0A5EC23F073C1DE
:101A4800F0F074C1F1F04DEC20F067C131F068C1DD
:101A580032F069C133F05CEC23F0D0C0ECF0D1C0B7
:101A6800EDF00001ECAF1DD0ECC07CF1EDC07DF1D4
:101A780001017C1F7D1F7C4B7D2B800E01017C2783
:101A8800000E7D237F0E01017C17000E7D170101DA
:101A98007C1F7D1F7C4B7D2B7CC1ECF07DC1EDF064
:101AA80000D0ECC0CDF0EDC0CEF0000E0001D06F3C
:101AB800090ECF6F45EC24F0CDC06BF1CEC06CF1B0
:101AC800000E01016E6F050E6D6FBEEC19F0200E51
:101AD80001016B25346E000E01016C21356E890EF3
:101AE8000001D96FFE0E0001DA6F8AC0DBF0000139
:101AF800DC6B8BC0DDF00001DE6BF5C0DFF00001B0
:101B0800E06B8CC0E1F00001E26B88C0E3F00001FB
:101B1800E46B8FC0E5F00001E66BEBEC05F0000E1E
:101B28000001D96FFF0E0001DA6FECC0DBF0EDC0E9
:101B3800DCF034C0DDF035C0DEF0EBEC05F0A70ECC
:101B48000001D96FFE0E0001DA6F81A804D00101EF
:101B58007C6B7C2B02D001017C6B01017C51000164
:101B6800DB6FDC6B45C0DDF00001DE6BEBEC05F0F4
:101B7800290E0001D96FFF0E0001DA6FF0C0DBF00B
:101B8800F1C0DCF055C0DDF00001DE6BEBEC05F0D8
:101B980094EC24F052EC11F00EEC00F000D0CDECF7
:101BA8001CF0E806D8A42CD0000E3F6E000E3E6E46
:101BB80017D00AEC26F0E6EC17F022D00AEC26F053
:101BC8008DEC1AF01DD00AEC26F074EC1DF018D03C
:101BD8000AEC26F06CEC26F013D016EC26F010D0A8
:101BE8000001F451000AD8B4E4D7010AD8B4E6D702
:101BF800030AD8B4E8D7070AD8B4EAD7EED700D092
:101C08000001F205D8A409D7000E0001F26F000107
:101C1800EA510001EB11D8A402D0010E01D0000E48
:101C28000001EA6FEB6BF9D60CEF00F0FBC06BF12B
:101C380001016C6B000E01016E6F0A0E6D6FBEEC38
:101C480019F001016B51300F01014F6FFBC067F1B3
:101C58000101686B000E01016A6F0A0E696F73EC6F
:101C68001CF001016751300F0101506FFCC06BF18E
:101C780001016C6B000E01016E6F0A0E6D6FBEECF8
:101C880019F001016B51300F0101526FFCC067F16F
:101C98000101686B000E01016A6F0A0E696F73EC2F
:101CA8001CF001016751300F0101536FFEC06BF149
:101CB80001016C6B000E01016E6F0A0E6D6FBEECB8
:101CC80019F001016B51300F0101556FFEC067F12A
:101CD8000101686B000E01016A6F0A0E696F73ECEF
:101CE8001CF001016751300F0101566FFDC06BF107
:101CF80001016C6B000E01016E6F0A0E6D6FBEEC78
:101D080019F001016B51300F0101466FFDC067F1F9
:101D18000101686B000E01016A6F0A0E696F73ECAE
:101D28001CF001016751300F0101476FF9C06BF1D9
:101D380001016C6B000E01016E6F0A0E6D6FBEEC37
:101D480019F001016B51300F0101496FF9C067F1BA
:101D58000101686B000E01016A6F0A0E696F73EC6E
:101D68001CF001016751300F01014A6FFFC06BF190
:101D780001016C6B000E01016E6F0A0E6D6FBEECF7
:101D880019F001016B51300F01014C6FFFC067F171
:101D98000101686B000E01016A6F0A0E696F73EC2E
:101DA8001CF001016751300F01014D6F340E010124
:101DB800636F4F0E0101646F010E0101656F070E1D
:101DC8000101676F6669000E0101696F000E686F97
:101DD800020E01016A6F0F0E18EC15F0520E010188
:101DE800636F460E0101646F010E0101656F070EF6
:101DF8000101676FE00E666F000E0101696F000E4A
:101E0800686F020E01016A6F0F0E18EC15F01200D0
:101E18000101606F800E01016061E5D09F0E010134
:101E2800586501D0E0D001015E510101D8A404D069
:101E3800010E01015E6F00D01F0E0101596505D02A
:101E48007E0E0101596504D000D03F0E0101596F83
:101E5800000E0101626F040E0101626501D0C3D05A
:101E6800530E010159611DD0E00E010159250001F1
:101E7800CD6F0001CE6BFF0ECE23000E0001D06F98
:101E8800050ECF6F45EC24F0010162510001CD270A
:101E9800000E0001CE237B0E0001CD25F66EFC0E50
:101EA8001CD0AD0E010159250001CD6F0001CE6B8C
:101EB800FF0ECE23000E0001D06F050ECF6F45EC4C
:101EC80024F0010162510001CD27000E0001CE234C
:101ED8007A0E0001CD25F66EFD0E0001CE21F76EBB
:101EE8000800F5CF5FF100D0000E0101616F060E0A
:101EF8000101616501D074D001015FA130D00101F9
:101F08005E05D8A411D001015851010161250001D5
:101F1800D46F5AC1D5F05BC1D6F0010160510101FF
:101F28006225C7EC23F056D00101615101015E031F
:101F3800F350010158250001DF6F5EC1E0F05EC17A
:101F4800E1F05AC1E2F05BC1E3F001016251010125
:101F58005E03F3500101602525EC21F03BD001011F
:101F68005A5101015C1906E101015B5101015D193A
:101F7800D8B430D001015E05D8A411D00101585160
:101F8800010161250001D46F5CC1D5F05DC1D6F0B7
:101F98000101605101016225C7EC23F01BD001014A
:101FA800615101015E03F350010158250001DF6F03
:101FB8005EC1E0F05EC1E1F05CC1E2F05DC1E3F05A
:101FC8000101625101015E03F3500101602525EC16
:101FD80021F000D00101612B0101D8905F3387D730
:101FE8000101622B38D71200DBC0DFF00001E06B83
:101FF800E16B0001DA350001DF3701E3E081000120
:10200800DF510001E26F0001E251D8A402D014D0E0
:1020180098D0DEC0DFF00001E06BE16B0001DD3538
:102028000001DF3701E3E0810001DF510001E76FC4
:102038000001E751D8A40AD0000E0001D96F000EA4
:102048000001DA6F000E0001DB6F7BD00001E75161
:102058007B0F0001E227DBC0E7F00001DE51000141
:10206800E71B800E0001E7170001DA8F0001DD8F02
:10207800FF0E0001DC17FF0E0001DD17000E000146
:10208800DE17000E0001E36F000E0001E46F000E82
:102098000001E56F070E0001E66F00D00001D9A12D
:1020A8000DD00001DC510001E3270001DD510001E2
:1020B800E4230001DE510001E52300D00001D8909F
:1020C800DB33DA33D9330001D890DC37DD37DE373C
:1020D8000001E62FE3D700D0090E0001E66F00D01B
:1020E8000001D9A10DD00001DC510001E327000156
:1020F800DD510001E4230001DE510001E52300D099
:102108000001D890DB33DA33D9330001D890E533B6
:10211800E433E3330001E62FE3D700D0E3C0CDF08A
:10212800E4C0CEF0E5C0CFF0E2C0D0F0E7C0D1F017
:102138003FEC16F0CDC0D9F0CEC0DAF0CFC0DBF05E
:1021480000D01200F2924B50D8B496D0CE50CFCFD8
:1021580001F0026A01C002F0016A0110386E0250F3
:10216800396E000ECF6E000ECE6E86D0000ECF6E8A
:10217800000ECE6E9E90900ECD6ECD80000E536EEA
:10218800000E2D6E000E2E6E000E2F6E000E306E9D
:10219800010E4B6E6FD081D0350E385C210E395848
:1021A800D8A009D01C0E385C250E3958D8B003D0F9
:1021B800020E4B6E2AD019EC27F027D026D06DD00E
:1021C800A10E385C0F0E3958D8A009D0880E385C9B
:1021D800130E3958D8B003D0030E4B6E4BD019EC00
:1021E80027F048D047D059D0910E385C010E3958A5
:1021F800D8A008D0BC0E385C020E3958D8B002D02E
:10220800040ED7D719EC27F000D0F19C46D0910ED8
:10221800385C010E3958D8A02AD0080E385C070E51
:102228003958D8B024D0D8902D342D6E2E342E6E37
:102238002F342F6E3034306EE90E385C030E395867
:10224800D8A007D0010E2D26000E2E222F223022D4
:1022580000D0532A1F0E5364BFD7000E3F6E010EE5
:102268003E6E2EC04AF0F298000E4B6EB5D719ECB0
:1022780027F000D0F18C11D04B50000AD8B476D793
:10228800010AD8B489D7030AD8B49AD7010AD8B4AE
:10229800ABD7070AD8B4BBD700D012003A503B10CE
:1022A800D8A416D00001EA510001EB11D8A410D02F
:1022B800B9EC20F0000E3B6E000E3A6E000EA9EC51
:1022C80025F009EC27F0000E376E000E366E00D0B0
:1022D8003A503B10D8A411D00001EA050001EB11D7
:1022E800D8A40BD083EC20F0000E3B6E010E3A6EA2
:1022F800000E376E000E366E00D03A043B10D8A49C
:1023080016D00001EA510001EB11D8A410D0B9ECA5
:1023180020F0000E3B6E000E3A6E000EA9EC25F080
:1023280009EC27F0000E376E000E366E00D03A0426
:102338003B10D8A456D00001EA050001EB11D8A43F
:1023480050D081B807D0000E376E010E366E75EC8E
:1023580026F000D036043710D8A443D03C50A9EC5E
:1023680025F03C4A3D2A3DBE0BD03D5004E1080E05
:102378003C5CD8A005D0000E3D6E000E3C6E00D02F
:102388004DEC20F067C131F068C132F069C133F01B
:10239800000E0001CD6F400E0001CE6F400E00010F
:1023A800CF6F31C0D0F032C0D1F033C0D2F026ECBC
:1023B8001AF00001D8B015D0000E376E000E366E38
:1023C800000E3D6E000E3C6E3C50A9EC25F009EC69
:1023D80027F05550E2EC18F0000E3B6E000E3A6EF6
:1023E80000D01200000E0001E16F000EE06F67ECF4
:1023F80025F042C0CDF043C0CEF0EB0E0001CF6F08
:10240800FE0E0001D06F61EC24F0010E0101636F34
:1024180042C064F143C065F1FF0E0101676F666950
:10242800000E0101696F000E686F010E01016A6FED
:10243800010E18EC15F042C0CDF043C0CEF0880E66
:102448000001CF6FFF0E0001D06F61EC24F0100E79
:102458000101636F42C064F143C065F1F80E0101E8
:10246800676F1F0E666F000E0101696F000E686FBF
:10247800020E01016A6F040E18EC15F042C0CDF08F
:1024880043C0CEF0B00E0001CF6FFF0E0001D06F39
:1024980061EC24F0280E0101636F42C064F143C06F
:1024A80065F1000E0101676F1F0E666F000E0101D6
:1024B800696F000E686F010E01016A6F320E18EC29
:1024C80015F0440E0001DF6F190E0001E06F020ED7
:1024D8000001E16F070E0001E36FE2690E0E25ECC3
:1024E80021F042C0CDF043C0CEF0DF0E0001CF6F27
:1024F800FF0E0001D06F61EC24F0470E0101636FFD
:1025080042C064F143C065F1F80E0101676F000E27
:10251800666F000E0101696F000E686F010E010100
:102528006A6F320E18EC15F01200000E0001E16F10
:10253800000EE06F67EC25F042C0CDF043C0CEF04E
:10254800150E0001CF6FFF0E0001D06F61EC24F073
:10255800010E0101636F42C064F143C065F1FF0ED3
:102568000101676F6669000E0101696F000E686FEF
:10257800010E01016A6F010E18EC15F042C0CDF092
:1025880043C0CEF0C80E0001CF6FFF0E0001D06F20
:1025980061EC24F00B0E0101636F42C064F143C08B
:1025A80065F1F80E0101676F1F0E666F000E0101DD
:1025B800696F000E686F020E01016A6F060E18EC53
:1025C80015F042C0CDF043C0CEF0D00E0001CF6F61
:1025D800FF0E0001D06F61EC24F01A0E0101636F49
:1025E80042C064F143C065F1F80E0101676F1F0E28
:1025F800666F000E0101696F000E686F020E01011F
:102608006A6F060E18EC15F042C0CDF043C0CEF04C
:10261800B00E0001CF6FFF0E0001D06F61EC24F007
:10262800280E0101636F42C064F143C065F1000EDA
:102638000101676F1F0E666F000E0101696F000EC2
:10264800686F010E01016A6F320E18EC15F0440E26
:102658000001DF6F190E0001E06F020E0001E16F4B
:10266800070E0001E36FE2690E0E25EC21F012005F
:102678000001DF6F800E0001DF619BD09F0E00011B
:10268800D46501D096D0FF0E0001D96FFF0E00016E
:10269800DA6F0001D551DFC0DBF00001DC6B00010F
:1026A800DB27000EDC230001D9510001DB270001E4
:1026B800DA510001DC230001DCBF0ED00001DC513F
:1026C80005E1800E0001DB5DD8A006D00001DF51D6
:1026D8000008800F0001D56FFF0E0001D96FFF0EB3
:1026E8000001DA6F0001D651D4C0DBF00001DC6BC9
:1026F8000001DB27000EDC230001D9510001DB2794
:102708000001DA510001DC230001DCBF0FD0000119
:10271800DC5105E1A00E0001DB5DD8A007D0000167
:10272800D4510008A00F0001D66F00D0D4C0D0F05B
:102738000001DF510001D5250001D96F0001D9053D
:102748000001D16F0001D4510001D6250001DA6FD4
:102758000001DA050001D26F0001DF516BEC22F0B5
:102768000001D8510001DD6FD7C0DEF08386839861
:10277800D6C0D4F00001D4510001D8B419D001D08A
:1027880017D0D5C0DFF00001DF510001D8B40DD05B
:1027980001D00BD00001DD512DEC26F00001DE51F7
:1027A8002DEC26F00001DF07EED70001D407E2D7B1
:1027B800838812005AC15EF101015F6B606B0101F1
:1027C800593501015E3701E35F8101015E51010165
:1027D800656F01016551D8A402D014D08BD05DC1BA
:1027E8005EF101015F6B606B01015C3501015E37D1
:1027F80001E35F8101015E510101666F01016651CC
:10280800D8A40AD0000E0101586F000E0101596FBB
:10281800000E01015A6F6ED0000E0101626F000EAA
:102828000101636F000E0101646F01016651890F98
:102838000101655F5AC166F101015D510101661B25
:10284800800E010166170101598FFF0E010158170B
:10285800FF0E01015917000E01015A1701015C8F83
:10286800FF0E01015B17FF0E01015C17000E01014D
:102878005D17180E0101616F00D00101D890623711
:102888006337643701015B510101585D01015C51F7
:102898000101595901015D5101015A59D8A00ED0C1
:1028A80001015B510101585F01015C510101595B54
:1028B80001015D5101015A5B010162810101D8905A
:1028C800583759375A370101612FD7D700D062C11D
:1028D800CDF063C1CEF064C1CFF065C1D0F066C160
:1028E800D1F03FEC16F0CDC058F1CEC059F1CFC0B1
:1028F8005AF100D012005AC15CF101015D6B5E6BA8
:102908000101593501015C3701E35D8101015C5129
:102918000101666F01016651D8A402D051D083D05D
:10292800170E01015C6F58C15DF159C15EF15AC1C2
:102938005FF101015C290101606F05D00101D890A8
:102948005F335E335D330101602FF8D701015D51BC
:102958000101616F0101598FFF0E01015817FF0E28
:1029680001015917000E01015A17010158510101BF
:10297800626F010159510101636F01015A5101014F
:10298800646F0101656B8E0E0101665F010166AF20
:1029980013D001016651800A8F0FD8B003D010D030
:1029A80042D000D00101D890653364336333623379
:1029B8000101663FF7D71FD0170E0101666514D0D5
:1029C800000E0101586F000E596F000E5A6F000E6D
:1029D8005B6F29D009D00101D8906237633764371B
:1029E80065370101660700D0010166510101D8B4BD
:1029F80002D0F1D700D0010161510101D8B40AD049
:102A08000101651F641F631F626D000E6323642349
:102A1800652300D062C158F163C159F164C15AF10C
:102A280065C15BF100D0120001016D6F6DC173F1DA
:102A380063C172F164C1CDF065C1CEF0C2EC22F081
:102A4800CDC06EF1CEC06FF1000E0101716F000EA6
:102A5800706F74D000018E510001D8B43ED00101CE
:102A68006A51050D0101735101016B6F6C6BF350D5
:102A780001016B27F45001016C2301016CBF2DD0BB
:102A880001016C5105E1810E01016B5DD8A025D0D3
:102A9800000E0101736F01016A51070DF350010126
:102AA8007225030F0101726FA00E0101726504D037
:102AB800A00E0101726F00D001017051010164255F
:102AC800D96E0101715101016521DA6E200EDE18FF
:102AD800D8B430D002D02ED000D072C158F1010144
:102AE800705101016425D96E0101715101016521FF
:102AF800DA6EDF500101596F66C15AF167C15BF1A7
:102B080068C15CF169C15DF16AC15EF1010173518F
:102B18000CEC0FF001016A51060DF3500101732509
:102B28000101736F800E0101736504D0800E0101ED
:102B3800736F00D00101704B712B00D001016E51F1
:102B48000101705D01016F5101017159D8A082D74F
:102B58001200000E0001E16F000EE06F67EC25F037
:102B680042C0CDF043C0CEF0D60E0001CF6FFE0EAE
:102B78000001D06F61EC24F0010E0101636F42C0C7
:102B880064F143C065F1FF0E0101676F6669000ECD
:102B98000101696F000E686F010E01016A6F010E75
:102BA80018EC15F042C0CDF043C0CEF0940E0001F1
:102BB800CF6FFF0E0001D06F61EC24F01A0E0101F7
:102BC800636F42C064F143C065F1FF0E0101676F96
:102BD800E00E666F000E0101696F000E686F020E4D
:102BE80001016A6F010E18EC15F042C0CDF043C028
:102BF800CEF0B50E0001CF6FFF0E0001D06F61EC73
:102C080024F0290E0101636F42C064F143C065F1ED
:102C1800FF0E0101676FE00E666F000E0101696F1C
:102C2800000E686F020E01016A6F010E18EC15F0B4
:102C380042C0CDF043C0CEF05E0E0001CF6FFF0E54
:102C48000001D06F61EC24F03C0E0101636F42C0BB
:102C580064F143C065F1070E0101676F6669000EF4
:102C68000101696F000E686F010E01016A6F0F0E96
:102C780018EC15F012000001D0510001D8B408D0AA
:102C88000001CD510001CE110001CF11D8A413D0FD
:102C9800000E0001CD6F000E0001CE6F000E000186
:102CA800CF6F78D008D00001D02B0001D890CF3357
:102CB800CE33CD3300D0000E0001CD150001D26F08
:102CC800000E0001CE150001D36FFE0E0001CF15D6
:102CD8000001D46F0001D2510001D3110001D411B9
:102CE800D8B413D0E0D711D00001D02B010E0001C9
:102CF800CD27000E0001CE23000E0001CF230001D6
:102D0800D890CF33CE33CD3300D0000E0001CD158F
:102D18000001D26F000E0001CE150001D36FFF0E27
:102D28000001CF150001D46F0001D2510001D31169
:102D38000001D411D8B40AD0D7D708D00001D007E1
:102D48000001D890CD37CE37CF3700D00001CEBFA5
:102D580005D0020E0001D061F1D700D00001D0B13A
:102D680003D00001CE9F00D00001D890D0330001DD
:102D7800D0510001CF130001D1510001D8B403D0C4
:102D88000001CF8F00D0CDC0CDF0CEC0CEF0CFC0E7
:102D9800CFF000D012009F0E0001D96FFF0E000186
:102DA800DA6FF6C0DBF00001DC6BF7C0DDF0000184
:102DB800DE6BF8C0DFF00001E06BEBEC05F0F6C06D
:102DC8006BF101016C6B000E01016E6F0A0E6D6FE5
:102DD800BEEC19F001016B51300F01013D6FF6C0D7
:102DE80067F10101686B000E01016A6F0A0E696FD5
:102DF80073EC1CF001016751300F01013E6FF7C001
:102E08006BF101016C6B000E01016E6F0A0E6D6FA4
:102E1800BEEC19F001016B51300F0101406FF7C092
:102E280067F10101686B000E01016A6F0A0E696F94
:102E380073EC1CF001016751300F0101416FF8C0BC
:102E48006BF101016C6B000E01016E6F0A0E6D6F64
:102E5800BEEC19F001016B51300F0101436FF8C04E
:102E680067F10101686B000E01016A6F0A0E696F54
:102E780073EC1CF001016751300F0101446F340EEF
:102E88000101636F3D0E0101646F010E0101656F61
:102E9800070E0101676F6669000E0101696F000E78
:102EA800686F020E01016A6F0F0E18EC15F0120020
:102EB800010E62EC26F0000E0001D46F960ED36F5F
:102EC80087EC21F0110E62EC26F0010E0001D46FA0
:102ED800F40ED36F87EC21F0B10E62EC26F0010EF0
:102EE80058EC26F02C0E58EC26F02D0E58EC26F057
:102EF800B20E62EC26F0010E58EC26F02C0E58ECBF
:102F080026F02D0E58EC26F0B30E62EC26F0010EDA
:102F180058EC26F02C0E58EC26F02D0E58EC26F026
:102F2800010E58EC26F02C0E58EC26F02D0E58EC1D
:102F380026F0B40E62EC26F0070E58EC26F0C00E10
:102F480062EC26F0A20E58EC26F0020E58EC26F0A1
:102F5800840E58EC26F0C10E62EC26F0C50E58EC33
:102F680026F0C20E62EC26F00A0E58EC26F0000E8F
:102F780058EC26F0C30E62EC26F08A0E58EC26F0C8
:102F88002A0E58EC26F0C40E62EC26F08A0E58EC95
:102F980026F0EE0E58EC26F0C50E62EC26F00E0E6A
:102FA80058EC26F0200E62EC26F0360E62EC26F085
:102FB800C80E58EC26F03A0E62EC26F0050E58ECD6
:102FC80026F01200000E0001F36F62EC1FF0000102
:102FD800F55127EC24F00001FE6F00018B5127EC1E
:102FE80024F00001FC6F00018A5127EC24F0000155
:102FF800FB6F0001885127EC24F00001F96F0001F4
:103008008C5127EC24F00001FD6F00018F5127EC53
:1030180024F00001FF6FF6EC11F01AEC0EF0010E2F
:10302800496E4DD0CDEC1CF0E806D8A448D0020E6D
:103038000001F46541D0090E0001F4613DD00AECAD
:1030480026F0030E0001F419D8A403D089EC25F06A
:1030580000D0030E0001F419D8A403D089EC25F0A0
:1030680000D0040E0001F419D8A403D099EC25F07F
:1030780000D0050E0001F419D8A403D07EEC26F088
:1030880000D0060E0001F419D8A403D021EC1DF0DD
:1030980000D0070E0001F419D8A403D018EC1CF0D6
:1030A80000D0080E0001F419D8A403D0C5EC26F00E
:1030B80000D00001F46903D016EC26F000D04904D2
:1030C800D8B4B0D71200E00E62EC26F0020E58EC2D
:1030D80026F01C0E58EC26F0070E58EC26F0120EBF
:1030E80058EC26F0370E58EC26F0320E58EC26F045
:1030F800290E58EC26F02D0E58EC26F0290E58EC27
:1031080026F0250E58EC26F02B0E58EC26F0390E3A
:1031180058EC26F0000E58EC26F0010E58EC26F07C
:10312800030E58EC26F0100E58EC26F0E10E62EC77
:1031380026F0030E58EC26F01D0E58EC26F0070E6C
:1031480058EC26F0060E58EC26F02E0E58EC26F019
:103158002C0E58EC26F0290E58EC26F02D0E58ECC3
:1031680026F02E0E58EC26F02E0E58EC26F0370ED0
:1031780058EC26F03F0E58EC26F0000E58EC26F0DE
:10318800000E58EC26F0020E58EC26F0100E58EC03
:1031980026F0130E62EC26F0000E0001D46F0A0E22
:1031A800D36F87EC21F0290E62EC26F0000E0001A7
:1031B800D46F640ED36F87EC21F0120001016D6F9C
:1031C800040ECB6E070ECA6E000E0001DC6F800E77
:1031D8000001DD6F400E0001DE6F01016D51ACECA6
:1031E80024F0D5C0D9F0D6C0DAF0D7C0DBF0F8ECBF
:1031F8000FF0D9C058F1DAC059F1DBC05AF1000E0E
:1032080001015B6FA00E01015C6F410E01015D6F52
:10321800DEEC13F058C16AF159C16BF15AC16CF177
:103228006AC158F16BC159F16CC15AF17FEC14F0C5
:1032380058C16EF159C16FF101016D510101676FFC
:10324800686B01016E510101675D01016851800AD7
:103258000101696F01016F51800A01016959D8B0F4
:1032680004D001016E4B6F2B00D06EC167F1030EC5
:103278000101671701016739F00B0C09BD6E6EC1BA
:1032880067F16FC168F1010168356833673301017F
:1032980068356833673301016751BE6E1200680EE6
:1032A8000001D66F070E0001D36F0E0E0001D46F18
:1032B800D4C0D0F00001D65108EC24F00001D56F3D
:1032C8000001D551010B0001D56F0001D551250929
:1032D8000001D56FD4C0CFF0D5C0D0F00001D651D1
:1032E80019EC25F0ABEC26F00001D651D62510ECF0
:1032F80023F00001D35110EC23F043EC26F0D880E2
:103308000001D63510EC23F0010EB7EC21F0526E17
:10331800010EB7EC21F0516E010EB7EC21F0506EA2
:10332800000EB7EC21F04F6E52507F0B526E515089
:103338007F0B516E50507F0B506E4F5080094F6E6F
:10334800ABEC26F00001D651D62510EC23F0000195
:10335800D35110EC23F0525010EC23F0515010ECE4
:1033680023F0505010EC23F04F5010EC23F0A2EC57
:1033780026F01200000E0101706F01016EAF09D036
:1033880001016D6D6E1FD8B06E2B010E0101706FBB
:1033980000D001016CAF09D001016B6D6C1FD8B072
:1033A8006C2B010E0101701B00D0000E0101726F21
:1033B800000E716F01016D5101016E11D8B431D049
:1033C800010E01016F6F07D00101D8906D376E377C
:1033D80001016F2B00D001016EBF02D0F5D700D0DC
:1033E8000101D8907137723701016D5101016B5D90
:1033F80001016E5101016C59D8A00BD001016D512A
:1034080001016B5F01016E5101016C5B010171816A
:1034180000D00101D8906E336D3301016F2FE0D7D2
:1034280000D0010170510101D8B406D00101716DBD
:10343800721FD8B0722B00D071C16BF172C16CF1E0
:1034480000D012000001CFAF1ED0CDC0D3F0CEC047
:10345800D4F0CFC0D5F00001D31FD41FD51FD32B74
:10346800000ED423D523000E0001D3250001CD6F13
:10347800000E0001D4210001CE6F800E0001D5217D
:103488000001CF6F00D00001D2AF1ED0D0C0D3F062
:10349800D1C0D4F0D2C0D5F00001D31FD41FD51F9E
:1034A800D32B000ED423D523000E0001D325000111
:1034B800D06F000E0001D4210001D16F800E0001F1
:1034C800D5210001D26F00D0000E0001CD1B000EE7
:1034D8000001CE1B800E0001CF1B000E0001D01B87
:1034E800000E0001D11B800E0001D21B0001D0513B
:1034F8000001CD5D0001D1510001CE590001D2512A
:103508000001CF59D8B002D0D89002D0D88000D0CE
:103518001200000E4C6E010E476E97EC22F05250CE
:1035280027EC24F0526E515027EC24F0516E505085
:1035380027EC24F0506E52C0F8F051C0F7F050C09C
:10354800F6F099EC12F0CFEC16F045D0CDEC1CF06B
:10355800E806D8A440D0020E0001F46539D0090E5F
:103568000001F46135D00AEC26F0030E0001F419CD
:10357800D8A403D0F2EC25F000D0040E0001F41911
:10358800D8A403D0FEEC25F000D0050E0001F419F4
:10359800D8A403D022EC26F000D0060E0001F419BE
:1035A800D8A403D03FEC22F000D0070E0001F41994
:1035B800D8A403D057EC21F000D0080E0001F4196C
:1035C800D8A403D0D3EC26F000D00001F46903D0CE
:1035D80016EC26F000D04704D8B4B8D71200680E0D
:1035E80001017A6F000E01017B6F0001FE5115EC9D
:1035F80020F0010173510001F56F0001FC5115EC39
:1036080020F00101735100018B6F0001FB5115EC93
:1036180020F00101735100018A6F010E0001896FCA
:103628000001F95115EC20F0010173510001886F78
:103638000001FD5115EC20F00101735100018C6F60
:103648000001FF5115EC20F00101735100018F6F4B
:10365800ABEC26F001017A517A2510EC23F0010138
:103668007B5110EC23F00001F55110EC23F0000120
:103678008B5110EC23F000018A5110EC23F000016B
:10368800895110EC23F00001885110EC23F000015F
:103698008C5110EC23F000018F5110EC23F0A2ECB8
:1036A80026F01200FAC06BF101016C6B000E0101EB
:1036B8006E6F640E6D6FBEEC19F001016B51010164
:1036C800746F000E01016A6F640E696FFAC067F1CA
:1036D8000101686B73EC1CF067C16BF168C16CF198
:1036E800000E01016E6F0A0E6D6FBEEC19F001013C
:1036F8006B510101756FFAC067F10101686B000E2B
:1037080001016A6F0A0E696F73EC1CF001016751C1
:103718000101766F01017451300F0001B26F010190
:103728007551300F0001B36F01017651300F000160
:10373800B46F4A0E0101636FB20E0101646F000E8F
:103748000101656FF80E0101676F000E666F000ECC
:103758000101696F000E686F020E01016A6F280E81
:1037680018EC15F012000001DE6F800E0001DE611A
:103778005AD09F0E0001D46501D055D0FF0E00012C
:10378800D86FFF0E0001D96F0001D551D4C0DAF00F
:103798000001DB6B0001DA27000EDB230001D851A2
:1037A8000001DA270001D9510001DB230001DBBF4A
:1037B8000FD00001DB5105E1A00E0001DA5DD8A0B1
:1037C80007D00001D4510008A00F0001D56F00D028
:1037D8000001D7510001DC6FD6C0DDF0D4C0D0F0B5
:1037E800DEC0D1F00001D4510001D5250001D86F09
:1037F8000001D8050001D26F0001DE516BEC22F008
:103808008386839809D00001DC512DEC26F0000155
:10381800DD512DEC26F000D00001D5070001D52997
:10382800D8A4F1D78388120042D00001FB2B180ED0
:103838000001FB19D8A450D0000E0001FB6F4CD03A
:103848000001FC2B3C0E0001FC19D8A445D0000E49
:103858000001FC6F41D00001FE2B3C0E0001FE1957
:10386800D8A43AD0000E0001FE6F36D00001FD2B1F
:103878000C0E0001FD19D8A42FD0000E0001FD6F19
:103888002BD00001F92B1F0E0001F919D8A424D060
:10389800000E0001F96F20D00001FF2B640E00011B
:1038A800FF19D8A419D0000E0001FF6F15D0000130
:1038B800F351000AD8B4B9D7010AD8B4C1D7030A5A
:1038C800D8B4C9D7010AD8B4D1D7070AD8B4D9D738
:1038D800010AD8B4E1D700D01AEC0EF01200000E9D
:1038E8000001E96F010168AF09D00101676D681F28
:1038F800D8B0682B010E0001E96F00D001016AAF52
:1039080006D00101696D6A1FD8B06A2B00D0010189
:10391800695101016A11D8B42BD0010E0001E86F7A
:1039280007D00101D89069376A370001E82B00D029
:1039380001016ABF02D0F5D700D001016951010128
:10394800675D01016A5101016859D8A009D00101D8
:1039580069510101675F01016A510101685B00D08B
:103968000101D8906A3369330001E82FE6D700D007
:103978000001E9510001D8B406D00101676D681F44
:10398800D8B0682B00D067C167F168C168F100D072
:1039980012003E043F10D8A44FD0000E3F6E000E18
:1039A8003E6E4E0E0001D96FFF0E0001DA6F4AC05D
:1039B800DBF00001DC6BEBEC05F0F288F19C000118
:1039C800F469000E0001E96F000EE86F0001E9BF1D
:1039D8000AD00001E95120E1150E0001E85DD8B0D8
:1039E8001BD001D019D01F0E0001E825D96E010E99
:1039F8000001E921DA6E4A50DE18D8A408D0E8C0E0
:103A0800F4F0000E0001E96F150EE86F00D0000118
:103A1800E84BE92BDBD700D00001F429D8A40AD061
:103A2800BF0E0001D96FFE0E0001DA6FEBEC05F056
:103A3800000E02D0010E00D012003AD00001FB5156
:103A4800D8A404D0170E0001FB6F47D00001FB0774
:103A580044D00001FC51D8A404D03B0E0001FC6FF7
:103A68003CD00001FC0739D00001FE51D8A404D095
:103A78003B0E0001FE6F31D00001FE072ED0000181
:103A8800FD51D8A404D00C0E0001FD6F26D0000112
:103A9800FD0723D00001F951D8A404D01F0E00015E
:103AA800F96F1BD00001F90718D00001FF0715D0E6
:103AB8000001F351000AD8B4C1D7010AD8B4C9D754
:103AC800030AD8B4D1D7010AD8B4D9D7070AD8B4C9
:103AD800E1D7010AD8B4E9D700D01AEC0EF01200E9
:103AE800010E486E57C0FAF0ADEC15F056EC1BF01D
:103AF80041D0010E0101776F000E0101786FCDEC06
:103B08001CF0010177197811D8A434D0000E3F6E4B
:103B1800000E3E6E040E0001F46529D0090E000166
:103B2800F46125D00AEC26F0050E0001F419D8A49A
:103B380003D087EC26F000D0060E0001F419D8A4B3
:103B480003D0E5EC25F000D0070E0001F419D8A445
:103B580003D0D8EC25F000D0080E0001F419D8A441
:103B680003D0CCEC26F000D00001F46903D016ECA9
:103B780026F000D04804D8B4BCD712000001CD51BB
:103B88000001CE11D8A403D0839A839C00D00001F1
:103B9800CEBF15D00001CE5104E10001CD05D8A05B
:103BA8000ED00001CEBF08D0080E0001CD5D070E73
:103BB8000001CE59D8B003D0838A839C00D000017D
:103BC800CEBF16D0080E0001CD5D070E0001CE59FC
:103BD800D8A00ED00001CEBF08D08C0E0001CD5D5C
:103BE8000A0E0001CE59D8B003D0838A838C00D046
:103BF8000001CEBF0BD08C0E0001CD5D0A0E000176
:103C0800CE59D8A003D0839A838C00D01200060026
:103C1800EACF22F0E1CF23F0E2CF24F0D9CF25F08C
:103C2800DACF26F0F3CF27F0F4CF28F0F6CF29F03B
:103C3800F7CF2AF0F8CF2BF0F5CF2CF09EA003D0C9
:103C4800F4EC26F000D0F2A203D0A6EC10F000D0DD
:103C5800F0A003D015EC27F000D0F0A203D0C9ECF7
:103C680025F000D02CC0F5FF2BC0F8FF2AC0F7FFC5
:103C780029C0F6FF28C0F4FF27C0F3FF26C0DAFFEB
:103C880025C0D9FF24C0E2FF23C0E1FF22C0EAFF1C
:103C980021C0E9FF20C0FBFF1FC0FAFF110000018F
:103CA800CD510001CF5D0001D051800A0001D16FD4
:103CB8000001CE51800A0001D159D8B006D0000EBB
:103CC8000001CE6F000E2AD030D0CDC0D1F0CEC0CA
:103CD800D2F00001D11FD21FD14BD22B0001CF51FE
:103CE8000001D1270001D0510001D223D890000152
:103CF800D1350001D36F0001D2350001D46F000126
:103D0800D4BF0ED00001D45105E1650E0001D35D8A
:103D1800D8A006D0000E0001CE6F640ECD6F05D07E
:103D2800D3C0CDF0D4C0CEF000D0120062EC1FF0AA
:103D380088C04FF0680E01017A6F070E01017B6F92
:103D48000001F65115EC20F001017351506E00018D
:103D5800F75115EC20F001017351516E0001F85133
:103D680015EC20F001017351526E52507F0B526EC8
:103D780051507F0B516E50507F0B506E4F50800941
:103D88004F6EABEC26F001017A517A2510EC23F046
:103D980001017B5110EC23F0525010EC23F05150EC
:103DA80010EC23F0505010EC23F04F5010EC23F09F
:103DB800A2EC26F012000001CF6F000EAC6E000ED0
:103DC800AB6E0001CFA102D0AC8800D00001CFA318
:103DD80003D0AC8CAB8C00D00001CFA502D0AC8E48
:103DE80000D00001CFA702D0AB8802D0AB8A00D0A8
:103DF8000001CFB9AC849E980001CFAB02D0AB864E
:103E080000D00001CFAD02D09D8A01D09D9A9E9A24
:103E18000001CFAF02D09D8801D09D98CDC0AFFFE3
:103E28000001CE51B06EAC8AAB8E949C948EACB827
:103E3800ACBE02D0948C00D01200000E0001D36FEB
:103E4800000ED26F0001CF510001D011D8B431D08B
:103E5800010E0001D16F07D00001D890CF37D037BD
:103E68000001D12B00D00001D0BF02D0F5D700D07F
:103E78000001D890D237D3370001CF510001CD5D72
:103E88000001D0510001CE59D8A00BD00001CF516C
:103E98000001CD5F0001D0510001CE5B0001D2814D
:103EA80000D00001D890D033CF330001D12FE0D714
:103EB80000D0D2C0CDF0D3C0CEF01200680E000101
:103EC800D16F000E0001D06FABEC26F00001D1518C
:103ED800D12510EC23F00001D05110EC23F043EC75
:103EE80026F0D8800001D13510EC23F0010EB7EC94
:103EF80021F00001F56F010EB7EC21F000018B6F86
:103F0800010EB7EC21F000018A6F010EB7EC21F029
:103F18000001896F010EB7EC21F00001886F010ED6
:103F2800B7EC21F000018C6F000EB7EC21F0000116
:103F38008F6FA2EC26F0120038EC26F0DAEC26F0AF
:103F4800700ED36E0E0EC16E010E926E170E936E2A
:103F5800010E946E000E956E000E966E000E846E25
:103F6800000E456EF19E000EB26E030EB16EA00EED
:103F78000001CD6F860ECE6F010ECF6F000ED06F91
:103F8800FAEC26F0F0EC24F053EC19F055EC25F09F
:103F9800E8EC26F04B0E576E000E446E000E000142
:103FA800EB6F000EEA6F000EA9EC25F0120000EE90
:103FB800EAF0160EEE6AE806FDE100EE2DF02A0E94
:103FC800EE6AE806FDE1260EF66E440EF76E000E68
:103FD800F86E01EE00F010EE58F00900F5CFEEFF94
:103FE800E550E150FAE1D20EF66E450EF76E000E7E
:103FF800F86E00EE80F010EE4DF00900F5CFEEFF00
:10400800E550E150FAE13A0EF66E4E0EF76E000EEC
:10401800F86E0900F5CF57F0000EF86E000106EFB4
:104028000DF00101796F79C16BF101016C6B000E24
:1040380001016E6F0A0E6D6FBEEC19F06BC175F160
:104048006CC176F10101753B763BF00E7617755120
:104058000F0B7613F00E751779C167F10101686BC4
:10406800000E01016A6F0A0E696F73EC1CF0010102
:104078006751010175250101776F0101685101013F
:1040880076210101786F77C173F178C174F100D09E
:1040980012007CEC24F0CDC06DF1CEC06EF16DC184
:1040A800CDF06EC1CEF0000E0001D06F050ECF6FBF
:1040B80045EC24F0CDC0D5F0CEC0D6F081EC23F08D
:1040C800D5C058F1D6C059F1D7C05AF1000E010138
:1040D8005B6F800E01015C6F440E01015D6FDEECC9
:1040E80013F058C16AF159C16BF15AC16CF16AC138
:1040F80067F16BC168F16CC169F100D01200680EFC
:104108000001DB6F0E0E0001D76F0F0E0001D86F94
:10411800D7C0D0F00001DB5108EC24F00001D96FC2
:104128000001D95101090001D96FD7C0CFF0D9C01A
:10413800D0F00001DB5119EC25F0D8C0D0F0000117
:10414800DB5108EC24F00001DA6F0001DA51FE0BB4
:104158000001DA6FD8C0CFF0DAC0D0F00001DB512F
:1041680019EC25F053EC19F01200680E0001DB6F12
:104178000E0E0001D76F0F0E0001D86FD7C0D0F018
:104188000001DB5108EC24F00001D96F0001D9517E
:10419800FE0B0001D96FD7C0CFF0D9C0D0F0000115
:1041A800DB5119EC25F0D8C0D0F00001DB5108EC48
:1041B80024F00001DA6F0001DA51FE0B0001DA6F1A
:1041C800D8C0CFF0DAC0D0F00001DB5119EC25F0EF
:1041D80053EC19F012000001D6510001D711D8B4E0
:1041E8002BD0010E0001D86F07D00001D890D63728
:1041F800D7370001D82B00D00001D7BF02D0F5D7A0
:1042080000D00001D6510001D45D0001D751000152
:10421800D559D8A009D00001D6510001D45F0001BA
:10422800D7510001D55B00D00001D890D733D633E1
:104238000001D82FE6D700D0D4C0D4F0D5C0D5F02F
:1042480012000001E76FE7C0E8F00001E96B10D049
:10425800DFC0D4F0E1C0D5F0E2C0D6F0E3C0D7F0BB
:104268000001E851B7EC1BF00001E84BE92B00D046
:104278000001E051E7C0E4F00001E56B0001E4272C
:10428800000EE5230001E4510001E85D0001E95159
:10429800800A0001E66F0001E551800A0001E65935
:1042A800D8A0D6D7120021D00001F62B180E000195
:1042B800F619D8A425D0000E0001F66F21D0000110
:1042C800F72B3C0E0001F719D8A41AD0000E0001F4
:1042D800F76F16D00001F82B3C0E0001F819D8A48E
:1042E8000FD0000E0001F86F0BD04C50000AD8B464
:1042F800DBD7010AD8B4E3D7030AD8B4EBD700D088
:10430800CFEC16F01200D3C0CDF0D4C0CEF0000E22
:104318000001D06F7D0ECF6F45EC24F0CDC0D7F0F3
:10432800CEC0D8F0D7C0D5F0D8C0D6F00001D51F80
:10433800D61FD54BD62BFF0E0001D5250001D76F10
:10434800FF0E0001D6210001D86F030ED56ED7C02D
:10435800D6FF0001D851D76EF294D58E00D0F2A4C2
:10436800FED7D59E12000001CD6F11EC27F0000E8C
:104378000001CE6F070E0001CE6501D013D0EEEC20
:1043880026F083A204D0D8800001CF3706D00001E0
:10439800CF51CF250001CF6F00D00DEC27F00001E1
:1043A800CE2BE8D70001CD510001D8B403D0B4EC2E
:1043B80026F003D0FFEC26F000D00001CF5100D04A
:1043C8001200000E066E000E056E03500410D8B4DD
:1043D80021D0010E076E05D0D89003360436072A7F
:1043E80000D004BE02D0F8D700D0D89005360636E3
:1043F8000350015C04500258D8A006D00350015E57
:104408000450025A058000D0D89004320332072E97
:10441800ECD700D005C001F006C002F0120020451C
:104428004345333330314C20462732312046696EBC
:10443800616C0000000000000000000000A262E2C1
:104448002202C2E0A8906898B030187A10385A4210
:104458004A5230303A30303A30300030303A30302A
:104468003A30300030312F30312F30300030303A90
:1044780030303A3030001DD00001F651D8A404D0B5
:10448800170E0001F66F20D00001F6071DD00001BD
:10449800F751D8B407D00001F70716D00001F8513A
:1044A800D8A404D03B0E0001F76F0ED00001F80726
:1044B8000BD04C50000AD8B4DFD7010AD8B4E7D7DC
:1044C800030AD8B4EBD700D0CFEC16F012000001E5
:1044D800D36F2A0E62EC26F0000E58EC26F000018D
:1044E800D351542458EC26F0000E58EC26F0000165
:1044F800D151542458EC26F02B0E62EC26F0000E15
:1045080058EC26F00001D051562458EC26F0000E45
:1045180058EC26F00001D251562458EC26F02C0E07
:1045280062EC26F01200680E0001D16F070E000140
:10453800D06FABEC26F00001D151D12510EC23F05F
:104548000001D05110EC23F043EC26F0D880000194
:10455800D13510EC23F0010EB7EC21F0526E010EAC
:10456800B7EC21F0516E010EB7EC21F0506E000E41
:10457800B7EC21F04F6EA2EC26F01200CDC0D1F0BE
:10458800CEC0D2F004D00001D14BD22B00D0D1C084
:10459800D9FFD2C0DAFFDF50D8A4F5D7CDC0CFF00D
:1045A800CEC0D0F00001CF1FD01FCF4BD02B0001C1
:1045B800D1510001CF250001CD6F0001D25100017A
:1045C800D0210001CE6F00D01200000204061012A4
:1045D80014160403020105FF010630302F30302F76
:1045E80030300030303A30303A303000302E303011
:1045F80056003037354600303030300030373546D9
:10460800004F464600303030004F4646002B3235CA
:10461800002B3737003000000001CD6F000E00017D
:10462800CE6F070E0001CE6501D015D00001CDAFC9
:1046380003D011EC27F003D004EC27F000D0EEEC07
:1046480026F00DEC27F00001CD51CD250001CD6FEE
:104658000001CE2BE6D711EC27F0EEEC26F00DEC9E
:1046680027F012000A500B10D8B41DD0010E0C6EA2
:1046780005D0D8900A360B360C2A00D00BBE02D0D3
:10468800F8D700D00A50085C0B500958D8A005D0BC
:104698000A50085E0B50095A00D0D8900B320A32E3
:1046A8000C2EF0D700D008C008F009C009F012009D
:1046B800480E0001D46FAA0E0001D26FABEC26F0B1
:1046C8000001D451D42510EC23F00001D25110EC94
:1046D80023F043EC26F0D8800001D43510EC23F009
:1046E800000EB7EC21F00001D36FA2EC26F0D3C086
:1046F800D0F00001D16B00D01200000E0001D86F7D
:104708000001D6AF09D00001D56DD61FD8B0D62B81
:10471800010E0001D86F00D0D5C0CDF0D6C0CEF0C4
:104728000001CF6B8E0E0001D06FD8C0D1F03FECE6
:1047380016F0CDC0D5F0CEC0D6F0CFC0D7F000D09F
:104748001200B2CF6BF101016C6B000E01016E6FAC
:10475800020E6D6FBEEC19F06BC175F16CC176F18C
:10476800000EB26E75C1CDF076C1CEF0000E00011C
:10477800D06F3C0ECF6F45EC24F0CDC073F1CEC0A6
:1047880074F100D012000001D76F800E0001D761CC
:104798001BD09F0E0001D46501D016D0D4C0D0F034
:1047A8000001D7290001D16F0001D4290001D26F7F
:1047B8000001D7516BEC22F00001D65158EC26F0DD
:1047C8000001D55158EC26F012002A0E62EC26F0B2
:1047D800000E58EC26F0000E58EC26F0000E58ECAF
:1047E80026F07F0E58EC26F02B0E62EC26F0000E19
:1047F80058EC26F0000E58EC26F0000E58EC26F087
:104808009F0E58EC26F012000001D26FABEC26F098
:104818000001D251D22510EC23F00001D05110EC48
:1048280023F043EC26F0D8800001D23510EC23F0B9
:10483800000EB7EC21F00001D16FA2EC26F00001C8
:10484800D15100D012000001D16FD1C0CDF00F0EB0
:104858000001CD17D1C0CEF00001CE3B0F0ECE1710
:104868000001CE510A0D0001CD51F3240001CF6F94
:104878000001000EF4200001D06F0001CF5100D0DC
:1048880012000001CD510001CF03F3CFD1F0F4CFD6
:10489800D2F00001CD510001D003F3500001D2271E
:1048A8000001CE510001CF03F3500001D227D1C03F
:1048B800CDF0D2C0CEF000D01200CDC0D1F0CEC025
:1048C800D2F007D00001D14BD22B0001CF4BD02B17
:1048D80000D0CFC0F6FFD0C0F7FFD1C0D9FFD2C0FB
:1048E800DAFF0800F5CFDFFFDF50D8A4EBD71200BE
:1048F800C28200D0C2B2FED7C4500001D06FCF6BC5
:10490800C3500001CF250001D16F000E0001D02156
:104918000001D26FD1C0CDF0D2C0CEF000D01200CD
:1049280034C0CDF035C0CEF057C0CFF00001D06B09
:1049380053EC1EF00001CD51556E5550E2EC18F0C5
:104948004504D8A402D0818A02D0819A00D01200EE
:104958000001D86F0001D8510001CD6FCE6BCF6B2D
:104968008E0E0001D06F000E0001D16F3FEC16F0E3
:10497800CDC0D5F0CEC0D6F0CFC0D7F000D0120051
:104988000001CF6F000E0001CE6F3A0E0001CF611B
:1049980008D02F0E0001CF6504D0010E0001CE6FA4
:1049A80000D0CEC0CDF00001CD3100D012008388F8
:1049B8008396800EC76E300EC66E5CEC17F0E9EC7D
:1049C80023F067EC18F0360E62EC26F0C00E58ECB7
:1049D80026F0010E4E6E1200480E0001D26FAC0E8A
:1049E8000001CF6F020E0001D06F0001D2512DECF3
:1049F80025F0EE0E0001CF6F0001D251B9EC25F081
:104A08001200000E0001CE6F000ECD6F0001CD29FF
:104A180006E10001CE29D8B407D001D005D00001A5
:104A2800CD4BCE2BF3D7FBD712000001D16FABECE7
:104A380026F00001D151D12510EC23F00001CF510F
:104A480010EC23F00001D05110EC23F0A2EC26F07A
:104A580012000001D16FABEC26F00001D151D12535
:104A680010EC23F00001CF5110EC23F00001D051DD
:104A780010EC23F0A2EC26F0120001500302F3CF51
:104A880005F0F4CF06F001500402F3500626025058
:104A98000302F350062605C001F006C002F000D05C
:104AA8001200F292F090F092F288F086F088F19C71
:104AB800F19AF198000ECF6E000ECE6E9E909D80FA
:104AC800F28CF28E1200000E0001D46F800E0001ED
:104AD800D56FA00E0001D66FE0C0D7F0E1C0D8F0C6
:104AE800000E3CEC13F01200036E000E026E3A0E3C
:104AF800036006D02F0E036403D0010E026E00D0AF
:104B080002C001F0013000D012000001F351D8A416
:104B180004D0050E0001F36F03D00001F30700D0A5
:104B28000001F351E6EC0BF012000001F32B060E26
:104B38000001F319D8A404D0000E0001F36F00D0CF
:104B48000001F351C2EC0AF012000001CF6F00011E
:104B5800CF51010D800EF324D96E000EF420DA6EC9
:104B6800DF50806E05EC25F012000001D06FABEC31
:104B780026F00001D051D02510EC23F00001CF51D0
:104B880010EC23F0A2EC26F01200680E0D6EFE0E5B
:104B98000E6E000E106E070E0F6EEEEC07F0F09220
:104BA800010E0001F26F12000001FA2B6E0E0001D7
:104BB800FA6504D06E0E0001FA6F00D056EC1BF0B7
:104BC80012000001FA07320E0001FA6104D0320E19
:104BD8000001FA6F00D056EC1BF012004C50D8A41C
:104BE80003D0020E4C6E02D04C0600D04C50E6ECBE
:104BF8000BF012004C2A030E4C18D8A403D0000E58
:104C08004C6E00D04C50C2EC0AF0120090EC26F02A
:104C180005EC25F009EC27F005EC25F05550E2EC01
:104C280018F0120099EC26F005EC25F009EC27F0B5
:104C380005EC25F05550E2EC18F012009AEC1EF045
:104C480097EC22F062EC1FF0CEEC03F0000E476EFA
:104C580012000001CE6F9E96C9CFCDF0CEC0C9FF1D
:104C680000D0C7A0FED71200000E0001CE6F190EAB
:104C7800CD6F3C0EDFEC1EF0700ED36E12000DEC03
:104C880027F011EC27F0EEEC26F004EC27F00DEC01
:104C980027F012008394000E0001D46F640ED36FC6
:104CA80087EC21F0838412000001CF6F83988386FC
:104CB8000001CF512DEC26F0838812000001CF6F40
:104CC800839883960001CF512DEC26F0838812003B
:104CD8004550D8A402D0010E01D0000E456E847252
:104CE80012007C0ECB6E050ECA6E3E0EBB6E1C0EFD
:104CF800BA6E1200F3EC1AF062EC1FF0CEEC03F07F
:104D0800000E496E1200FAC057F062EC1FF0CEECAC
:104D180003F0000E486E1200F90ECB6E050ECA6E37
:104D28007C0EBB6E3C0EBA6E1200F90ECB6E070EEF
:104D3800CA6E7C0EBB6E3C0EBA6E12000DEC27F0EC
:104D480004EC27F0EEEC26F011EC27F0120011EC41
:104D580027F0EEEC26F004EC27F00DEC27F012001B
:104D680004EC27F0EEEC26F00DEC27F011EC27F020
:104D780012000001CD6F00D0ACA2FED7CDC0ADFFB0
:104D8800120062EC1FF0CEEC03F0000E496E120028
:104D980062EC1FF0CEEC03F0000E486E120062ECDD
:104DA8001FF0CEEC03F0000E476E1200010EC26E2B
:104DB8000E0EC16EA90EC06E1200016E00D0ACA21C
:104DC800FED701C0ADFF1200000E446E000E456E06
:104DD800849212009580060EE82EFED700D01200AD
:104DE800000E4B6EF19CCD909E901200EEEC26F0DA
:104DF80011EC27F01200EEEC26F00DEC27F0120073
:104E08008392959200D000D01200000EBA6E81965F
:104E180012008390959000D01200958200D000D0A7
:104E28001200F090010E466E1200000E4B6ECD90EF
:044E380012004B0019
:10FC7A0000000000000000005F000000070007000D
:10FC8A00147F147F14242A7F2A12231308646236ED
:10FC9A00495620500008070300001C224100004179
:10FCAA00221C002A1C7F1C2A08083E0808008070B3
:10FCBA0030000808080808000060600020100804E6
:10FCCA00023E5149453E00427F4000724949494639
:10FCDA002141494D331814127F1027454545393CB7
:10FCEA004A494931412111090736494949364649A4
:10FCFA0049291E00001400000040340000000814C6
:10FD0A00224114141414140041221408020159093E
:10FD1A00063E415D594E7C1211127C7F4949493693
:10FD2A003E414141227F4141413E7F494949417F0C
:10FD3A00090909013E414151737F0808087F0041C2
:10FD4A007F41002040413F017F081422417F40400B
:10FD5A0040407F021C027F7F0408107F3E414141E0
:10FD6A003E7F090909063E4151215E7F091929464C
:10FD7A00264949493203017F01033F4040403F1F62
:10FD8A002040201F3F4038403F6314081463030497
:10FD9A007804036159494D43007F414141020408F7
:10FDAA001020004141417F040201020440404040CA
:10FDBA0040000307080020545478407F2844443800
:10FDCA003844444428384444287F3854545418004A
:10FDDA00087E090218A4A49C787F080404780044C9
:10FDEA007D40002040403D007F1028440000417FB4
:10FDFA0040007C047804787C08040478384444443D
:10FE0A0038FC1824241818242418FC7C0804040834
:10FE1A00485454542404043F44243C4040207C1C4D
:10FE2A002040201C3C4030403C44281028444C9040
:10FE3A0090907C4464544C4400083641000000779A
:10FE4A0000000041360800020102040201000A0013
:10FE5A006400E80310270100100000010010494E59
:10FE6A00543220696E746572727570742070696E8E
:10FE7A002064657465637465642025640D0A002531
:10FE8A003032783A253032783A25303278202530A7
:10FE9A0032782F253032782F2530327800616C6124
:10FEAA00726D203D20256420486561746572203D8D
:10FEBA00202564200043616E6E6F742066696E644B
:10FECA0020627574746F6E200D0A00204543453315
:10FEDA003330314C20462732312046696E616C003E
:10FEEA0000454345333330314C20463B32312046BE
:10FEFA00696E616C00002054656D70203D20256498
:10FF0A002043203D202564204620004543453333C5
:10FF1A0030314C20462732312046696E616C0052DE
:10FF2A00504D203D20256420206463203D20256417
:10FF3A000D0A00303132333435363738396162636D
:10FF4A00646566004E45435F436F6465203D202526
:10FF5A00780D0A00536574204865617465722054EF
:10FF6A00656D700054656D70657261747572653A7D
:10FF7A0000485452205365742054656D70005469CA
:10FF8A006D652053657475700000202048656174A2
:10FF9A00657200200025783A25783A25780D0A00FE
:10FFAA00416C61726D2054696D650020205365743F
:10FFBA007570002000416C61726D2053570020203B
:10FFCA00416C61726D00202053657475700048544D
:10FFDA0052205357004461746500566F6C74004F89
:10FFEA004E20004F46460052504D00432F004443D6
:06FFFA0000524D00000062
:020000040020DA
:08000000FFFFFFFFFFFFFFFF00
:020000040030CA
:0E000000FF08191EFF8281FF0FC00FE00F40A6
:00000001FF
