:040000003BEF17F0CB
:1010000000010000000A00000064000000E8030086
:101010000010270000A086010040420F0080969833
:101020000000E1F50500CA9A3B00803FCDCC3DD7DA
:10103000233C12833AB7D138C62737388635C0D615
:1010400033CC2B32708930E7DB2EE53C1E42A20DFB
:1010500000803F00204100C842007A44401C4650B6
:10106000C34724744997184BBCBE4C6B6E4E031596
:101070005079AD60F34971524C203D2025660D0A30
:101080000A0A00005A0E666E000E676EFFD2250E29
:101090007918D8B404D07950DBEC17F0F7D2000EF1
:1010A000696E000E686E05D0FFD2698413D0EED24F
:1010B00011D058C0F6FF59C0F7FF584A592A080006
:1010C000F5CF79F07950000AD8B4EED2660AD8B4D8
:1010D000ECD7DCD2070E6914D8B4CAD2000E6B6EFE
:1010E000060E6A6E66C0D9FF67C0DAFFDECF76F003
:1010F000DECF77F0DDCF78F0030E6626000E672294
:1011000078AE11D076C00DF077C00EF078C00FF039
:101110008CEC17F00DC076F00EC077F00FC078F0B1
:10112000030E681200D0000E716E000E706E7650C5
:1011300077107810D8B485D0820E5D6EFF0E5E6E8B
:1011400076C05FF077C060F078C061F079C062F07F
:10115000100E05D0D8906232613260325F32E82ED4
:10116000F9D75F505D24706E000E5E20716E7006C0
:10117000D8A0710670C048F071C049F0000E4B6EE7
:10118000030E4A6E52EC17F048C070F049C071F07F
:1011900070C040F071C041F0000E436E0A0E426E06
:1011A00040EC14F040C070F041C071F071AE04D05A
:1011B0007006D8A0710600D07050000855EC0BF0F6
:1011C0004EC072F04FC073F050C074F072C01CF08B
:1011D00073C01DF074C01EF076C01FF077C020F001
:1011E00078C021F032EC12F01CC072F01DC073F018
:1011F0001EC074F072C001F073C002F074C003F03E
:10120000000E046E800E056E3F0E066EF5EC13F0B8
:10121000D8B004D07006D8A0710613D072C001F007
:1012200073C002F074C003F0000E046E200E056E51
:10123000410E066EF5EC13F0D8A003D0704A712A67
:1012400000D06BBE06D06B501CE10D0E6A5CD8B0AE
:1012500018D076C010F077C011F078C012F06A5044
:1012600021EC0FF04EC013F04FC014F050C015F039
:1012700043EC10F010C076F011C077F012C078F097
:1012800000D071BE06D0715020E10A0E705CD8B05B
:101290001CD0765077107810D8B46DD076C02BF073
:1012A00077C02CF078C02DF0AEEC12F02B502C1043
:1012B0002D102E10D8B471BE5ED0715006E1020E12
:1012C000705CD8B002D057D000D072C001F073C0AB
:1012D00002F074C003F0700E046E890E056E400EAD
:1012E000066EF5EC13F0D8B002D0F70E01D0F80E70
:1012F0007026FF0E712200D0705055EC0BF04EC0DE
:1013000072F04FC073F050C074F017D076C001F087
:1013100077C002F078C003F072C004F073C005F02B
:1013200074C006F0ADEC11F001C06CF002C06DF0BD
:1013300003C06EF004C06FF017D076C001F077C024
:1013400002F078C003F072C004F073C005F074C0FE
:1013500006F025EC11F001C06CF002C06DF003C086
:101360006EF004C06FF000D0000E766E000E776E47
:10137000000E786E33D076C02BF077C02CF078C09A
:101380002DF0AEEC12F02BC06CF02CC06DF02DC027
:101390006EF02EC06FF076C01CF077C01DF078C0E4
:1013A0001EF06CC009F06DC00AF06EC00BF06FC08B
:1013B0000CF087EC16F009C01FF00AC020F00BC03B
:1013C00021F0DCEC16F01CC076F01DC077F01EC0DA
:1013D00078F0000E716E000E706E00D0010E796E06
:1013E0000A0E7918D8B41CD001D01AD07950040D47
:1013F000010EF324F66E100EF420F76E0900F5507E
:101400006C5C0900F5506D580900F5506E580900E4
:10141000F5506F58D8A004D001D002D0792AE0D777
:10142000030E68145D6E000E69145E6E5D505E10F2
:10143000D8B449D02D0EDBEC17F045D06CC001F0CC
:101440006DC002F06EC003F06FC004F07950040D5F
:10145000010EF324F66E100EF420F76E0900F5CF9E
:1014600005F00900F5CF06F00900F5CF07F00A00F6
:10147000F5CF08F0D3EC14F001C072F002C073F0A5
:1014800003C074F004C075F072C001F073C002F0C4
:1014900074C003F075C004F00A0E056E000E066EEF
:1014A000000E076E000E086E17EC16F001C072F009
:1014B00002C073F003C074F004C075F07250300FB6
:1014C000DBEC17F000D079067928D8B409D0B6D76C
:1014D00007D0300EDBEC17F07006D8A0710600D0F4
:1014E00071BE05D07150F5E17004D8B0F2D76BBE73
:1014F00009D06B5004E1090E6A5CD8A003D0080E35
:10150000796E03D06AC079F000D079506A5E000E1F
:1015100079BEFF0E6B5A7950D8B404D02E0EDBEC96
:1015200017F000D0795055EC0BF04EC063F04FC06F
:1015300064F050C065F076C01FF077C020F078C02E
:1015400021F063C01CF064C01DF065C01EF032ECD9
:1015500012F01CC02BF01DC02CF01EC02DF0AEEC04
:1015600012F02BC06CF02CC06DF02DC06EF02EC0B0
:101570006FF06BD06CC001F06DC002F06EC003F074
:101580006FC004F07950040D010EF324F66E100EB6
:10159000F420F76E0900F5CF05F00900F5CF06F04D
:1015A0000900F5CF07F00A00F5CF08F0D3EC14F0EE
:1015B00001C072F002C073F003C074F004C075F093
:1015C00072C001F073C002F074C003F075C004F083
:1015D0000A0E056E000E066E000E076E000E086EF7
:1015E00017EC16F001C072F002C073F003C074F083
:1015F00004C075F07250300FDBEC17F06CC001F0D6
:101600006DC002F06EC003F06FC004F07950040D9D
:10161000010EF324F66E100EF420F76E0900F5CFDC
:1016200005F00900F5CF06F00900F5CF07F00A0034
:10163000F5CF08F017EC16F001C06CF002C06DF0A9
:1016400003C06EF004C06FF000D079067928D8B4DA
:1016500009D090D707D0300EDBEC17F06A06D8A07F
:101660006B0600D06A506B10D8B410D0F4D70ED0EF
:10167000030E68145D6E000E69145E6E5D505E10A0
:10168000D8B404D02D0EDBEC17F000D058C0F6FF14
:1016900059C0F7FF584A592A0800F5CF79F0795018
:1016A000D8B402D0F4D400D01200546E54AEEFD0AF
:1016B000546C5450800A120FD8A08DD0000E4B6E7F
:1016C000030E4A6E000E436E0A0E426E000E3D6E11
:1016D000640E3C6E54503A6E3B6A3ABE3B065BEC7D
:1016E00015F03AC040F03BC041F040EC14F0090E58
:1016F0004024486E000E4120496E52EC17F0290E2E
:101700004824F66E100E4920F76E0900F5CF1FF041
:101710000900F5CF20F00A00F5CF21F0000E436E4E
:10172000640E426E5450406E416A40BE410640EC29
:1017300014F0120E4024486E000E4120496E000E37
:101740004B6E030E4A6E52EC17F0290E4824F66ECB
:10175000100E4920F76E0900F5CF1CF00900F5CFF7
:101760001DF00A00F5CF1EF032EC12F01CC051F053
:101770001DC052F01EC053F051C01CF052C01DF0ED
:1017800053C01EF0000E4B6E030E4A6E000E3D6EEF
:101790000A0E3C6E54503A6E3B6A3ABE3B065BEC16
:1017A00015F03AC048F03BC049F052EC17F0290E52
:1017B0004824F66E100E4920F76E0900F5CF1FF091
:1017C0000900F5CF20F00A00F5CF21F032EC12F03D
:1017D00041D15AD154D05450800A750FD8A04FD05F
:1017E000000E436E0A0E426E5450406E416A40BE77
:1017F000410640EC14F0090E4024486E000E4120D2
:10180000496E000E4B6E030E4A6E52EC17F0290E15
:101810004824F66E100E4920F76E0900F5CF1CF033
:101820000900F5CF1DF00A00F5CF1EF0000E4B6E3B
:10183000030E4A6E000E3D6E0A0E3C6E54503A6E18
:101840003B6A3ABE3B065BEC15F03AC048F03BC041
:1018500049F052EC17F0290E4824F66E100E49207C
:10186000F76E0900F5CF1FF00900F5CF20F00A0050
:10187000F5CF21F032EC12F0EDD006D100D054506B
:10188000030D290EF324F66E100EF2D0FDD0545045
:10189000800A120FD8A08DD0000E4B6E030E4A6E38
:1018A000000E436E0A0E426E000E3D6E640E3C6EDC
:1018B00054503A6E3B6A3ABE3B065BEC15F03AC0B8
:1018C00040F03BC041F040EC14F0090E4024486E5B
:1018D000000E4120496E52EC17F0500E4824F66E6F
:1018E000100E4920F76E0900F5CF1FF00900F5CF63
:1018F00020F00A00F5CF21F0000E436E640E426E18
:101900005450406E416A40BE410640EC14F0120E45
:101910004024486E000E4120496E000E4B6E030EAF
:101920004A6E52EC17F0500E4824F66E100E492005
:10193000F76E0900F5CF1CF00900F5CF1DF00A0085
:10194000F5CF1EF032EC12F01CC051F01DC052F069
:101950001EC053F051C01CF052C01DF053C01EF009
:10196000000E4B6E030E4A6E000E3D6E0A0E3C6E6C
:1019700054503A6E3B6A3ABE3B065BEC15F03AC0F7
:1019800048F03BC049F052EC17F0500E4824F66E78
:10199000100E4920F76E0900F5CF1FF00900F5CFB2
:1019A00020F00A00F5CF21F032EC12F053D06CD0C9
:1019B00059D05450800A750FD8A054D0000E436EF1
:1019C0000A0E426E5450406E416A40BE410640ECE1
:1019D00014F0090E4024486E000E4120496E000E9E
:1019E0004B6E030E4A6E52EC17F0500E4824F66E02
:1019F000100E4920F76E0900F5CF1CF00900F5CF55
:101A00001DF00A00F5CF1EF0000E4B6E030E4A6E5D
:101A1000000E3D6E0A0E3C6E54503A6E3B6A3ABE62
:101A20003B065BEC15F03AC048F03BC049F052EC85
:101A300017F0500E4824F66E100E4920F76E09007C
:101A4000F5CF1FF00900F5CF20F00A00F5CF21F007
:101A500032EC12F01CC04EF01DC04FF01EC050F012
:101A600013D000D05450030D500EF324F66E100E18
:101A7000F420F76E0900F5CF4EF00900F5CF4FF0D6
:101A80000A00F5CF50F000D01200E8EC17F0C8ECD7
:101A900017F09268000E936E000E946E000E956E15
:101AA000000E966E000E816E826883688468839E45
:101AB000000E83BE010E0001946F838E000E83BE64
:101AC000010E0001956F000E0001966F200E0001BF
:101AD000976F410E0001986F120E0001996F830EEF
:101AE00000019A6F400E00019B6F00D0040EE2ECE3
:101AF00017F066EC17F001C09CF002C09DF0000EDC
:101B00001F6E800E206E400E216E9CC009F09DC09D
:101B10000AF01DEC17F009C01CF00AC01DF00BC044
:101B20001EF032EC12F01CC04CF01DC04DF01EC077
:101B30004EF08BEC14F04CC052F04DC053F04EC040
:101B400054F0000E556E7A0E566E440E576E21EC10
:101B500013F052C09FF053C0A0F054C0A1F09FC03A
:101B60001FF0A0C020F0A1C021F096C01CF097C0CB
:101B70001DF098C01EF032EC12F01CC052F01DC0D7
:101B800053F01EC054F099C013F09AC014F09BC0DB
:101B900015F09FC00DF0A0C00EF0A1C00FF08CECAE
:101BA00017F00DC010F00EC011F00FC012F043EC92
:101BB00010F010C055F011C056F012C057F021ECD3
:101BC00013F052C0A3F053C0A4F054C0A5F09FC0BE
:101BD0002BF0A0C02CF0A1C02DF0AEEC12F02B50D9
:101BE0000001A26F000E1F6E200E206E410E216EAE
:101BF0009FC013F0A0C014F0A1C015F00001A251C5
:101C000079EC17F009C00DF00AC00EF00BC00FF010
:101C10008CEC17F00DC010F00EC011F00FC012F0D8
:101C200043EC10F010C01CF011C01DF012C01EF0EB
:101C300032EC12F01CC02BF01DC02CF01EC02DF099
:101C4000AEEC12F02BC03AF02CC03BF0000E3D6E13
:101C50000A0E3C6E5BEC15F03A5000019E6FA3C07B
:101C600001F0A4C002F0A5C003F0000E046E200E27
:101C7000056E410E066EF5EC13F0D8B052D0A3C03D
:101C80002BF0A4C02CF0A5C02DF0AEEC12F02B5020
:101C90000001A26F000E1F6E200E206E410E216EFD
:101CA000A3C013F0A4C014F0A5C015F00001A25108
:101CB00079EC17F009C00DF00AC00EF00BC00FF060
:101CC0008CEC17F00DC010F00EC011F00FC012F028
:101CD00043EC10F010C01CF011C01DF012C01EF03B
:101CE00032EC12F01CC02BF01DC02CF01EC02DF0E9
:101CF000AEEC12F02BC03AF02CC03BF0000E3D6E63
:101D00000A0E3C6E5BEC15F03A5000019E6F00012C
:101D1000A251B7EC16F000019E51AEEC17F0839E75
:101D20005BD0A3C02BF0A4C02CF0A5C02DF0AEEC6E
:101D300012F02BC040F02CC041F0000E436E0A0E92
:101D4000426E40EC14F040500001A26F000E1F6E76
:101D5000200E206E410E216EA3C013F0A4C014F01B
:101D6000A5C015F00001A25179EC17F009C00DF0E3
:101D70000AC00EF00BC00FF08CEC17F00DC010F085
:101D80000EC011F00FC012F043EC10F010C01CF0A8
:101D900011C01DF012C01EF032EC12F01CC02BF06E
:101DA0001DC02CF01EC02DF0AEEC12F02BC03AF08E
:101DB0002CC03BF0000E3D6E0A0E3C6E5BEC15F045
:101DC0003A5000019E6F0001A251B7EC16F00001DD
:101DD0009E51AEEC17F0838EA3C001F0A4C002F0B8
:101DE000A5C003F0000E046E8C0E056E420E066E4A
:101DF000F5EC13F0D8B003D0D2EC17F003D0EDEC33
:101E000017F000D0A3C02BF0A4C02CF0A5C02DF07B
:101E1000AEEC12F02BC048F02CC049F0FEEC16F0EE
:101E2000770E586E100E596EA3C05AF0A4C05BF026
:101E3000A5C05CF042EC08F09EEC17F057D600EF1E
:101E400000F0576E6D0E57649BD0000E4B6E030E64
:101E50004A6E000E436E0A0E426E000E3D6E640E18
:101E60003C6E57C03AF03B6A5BEC15F03AC040F06C
:101E70003BC041F040EC14F0090E4024486E000EC7
:101E80004120496E52EC17F0290E4824F66E100ED0
:101E90004920F76E0900F5CF1FF00900F5CF20F0BB
:101EA0000A00F5CF21F0000E436E640E426E57C05B
:101EB00040F0416A40EC14F0120E4024486E000ECF
:101EC0004120496E000E4B6E030E4A6E52EC17F025
:101ED000290E4824F66E100E4920F76E0900F5CF42
:101EE0001CF00900F5CF1DF00A00F5CF1EF032EC12
:101EF00012F01CC054F01DC055F01EC056F0000E6C
:101F00004B6E030E4A6E000E3D6E0A0E3C6E57C0BD
:101F10003AF03B6A5BEC15F03AC048F03BC049F040
:101F200052EC17F0290E4824F66E100E4920F76E79
:101F30000900F5CF1FF00900F5CF20F00A00F5CF1A
:101F400021F054C01CF055C01DF056C01EF032ECFC
:101F500012F01CC051F01DC052F01EC053F051C011
:101F60001CF052C01DF053C01EF0000E1F6E000E7C
:101F7000206E3F0E216E32EC12F07DD083D062D005
:101F80000A0E57645FD0000E4B6E030E4A6E000EB1
:101F90003D6E0A0E3C6E57C03AF03B6A5BEC15F0A2
:101FA0003AC048F03BC049F052EC17F0290E4824E3
:101FB000F66E100E4920F76E0900F5CF1FF00900EC
:101FC000F5CF20F00A00F5CF21F0000E436E0A0E87
:101FD000426E57C040F0416A40EC14F0090E4024B4
:101FE000486E000E4120496E000E4B6E030E4A6E85
:101FF00052EC17F0290E4824F66E100E4920F76EA9
:102000000900F5CF1CF00900F5CF1DF00A00F5CF4F
:102010001EF032EC12F01CC054F01DC055F01EC072
:1020200056F054C01CF055C01DF056C01EF0000EF6
:102030001F6E000E206E3F0E216E32EC12F01BD090
:1020400021D000D05750030D290EF324F66E100E48
:10205000F420F76E0900F5CF1CF00900F5CF1DF054
:102060000A00F5CF1EF0000E1F6E000E206E3F0E10
:10207000216E32EC12F01CC04EF01DC04FF01EC09D
:1020800050F000D0120012C016F0176A186A11340E
:10209000163601E3178016501B6E15C016F0176A2E
:1020A000186A1434163601E3178016501A6E1B5046
:1020B000D8B40BD01A501B5CD8B00ED01B500008FF
:1020C0001A24166E180E166407D013C010F014C030
:1020D00011F015C012F0B8D01A50D8B40BD01B5064
:1020E0001A5CD8B00ED01A5000081B24166E180EB9
:1020F000166407D010C010F011C011F012C012F019
:10210000A3D0060E196E12AE02D0198E00D015BEE5
:10211000198C118EFF0E1016FF0E1116000E1216DE
:10212000148EFF0E1316FF0E1416000E15161A50FD
:102130001B5CD8B01ED0D8901336143615361A064C
:102140001B501A18D8B40FD0190619C016F0070E74
:102150001616D8B408D0EFD706D0D8901232113264
:1021600010321B2A00D01A501B18D8B424D0F5D72F
:1021700022D01B501A5CD8B01ED0D8901036113621
:1021800012361B061B501A18D8B40FD0190619C0E6
:1021900016F0070E1616D8B408D0EFD706D0D89090
:1021A0001532143213321A2A00D01A501B18D8B420
:1021B00002D0F5D700D019AE0CD0FF0E101AFF0ECA
:1021C000111AFF0E121A010E1026000E1122000E17
:1021D000122219AC0DD0FF0E131AFF0E141AFF0EA7
:1021E000151A010E1326000E1422000E152200D01F
:1021F000000E196E10501326115014221250152281
:1022000015AE0FD0FF0E131AFF0E141AFF0E151A7B
:10221000010E1326000E1422000E1522010E196E57
:1022200000D013C001F014C002F015C003F01BC0B1
:1022300004F019C005F092EC13F001C010F002C0D8
:1022400011F003C012F000D0120003C007F0086ABA
:10225000096A0234073601E3088007500F6E0F50F9
:10226000D8A402D05DD078D006C007F0086A096A09
:102270000534073601E3088007500E6E0E50D8A4CF
:1022800002D04ED069D0028EFF0E0116FF0E02164C
:10229000000E0316058EFF0E0416FF0E0516000E27
:1022A0000616000E0A6E000E0B6E000E0C6E000E6F
:1022B0000D6E7F0E0F5E0E50980F0F5E180E0E6E95
:1022C000D8900A360B360C360D360450015C05509A
:1022D000025806500358D8A007D00450015E05509C
:1022E000025A0650035A0A80D89001360236033645
:1022F0000E2EE6D700D00FAE10D00F50800A970FE9
:10230000D8B003D00DD028D000D0D8900D320C32E8
:102310000B320A320F3EF9D717D0170E0F6411D0C7
:10232000000E016E000E026E000E036E000E046EB3
:1023300013D007D0D8900A360B360C360D360F0660
:1023400000D00F50D8A4F6D70AC001F00BC002F09D
:102350000CC003F00DC004F01200033404340C6E02
:102360000C50D8A402D061D07CD0063407340B6E58
:102370000B50D8A402D059D074D0038EFF0E011692
:10238000FF0E0216FF0E0316000E0416068EFF0E39
:102390000416FF0E0516FF0E0616000E0716000E99
:1023A000076E000E086E000E096E000E0A6E7F0E9C
:1023B0000C5E0B50A00F0C5E200E0B6E00D0D89060
:1023C0000736083609360A360450015C05500258B3
:1023D0000650035807500458D8A00AD00450015E94
:1023E0000550025A0650035A0750045A078000D07D
:1023F000D89001360236033604360B2EE0D700D0D3
:102400000CAE10D00C50800A9F0FD8B003D00DD066
:1024100028D000D0D8900A320932083207320C3E58
:10242000F9D717D01F0E0C6411D0000E016E000EEC
:10243000026E000E036E000E046E13D007D0D8900B
:102440000736083609360A360C0600D00C50D8A4D8
:10245000F6D707C001F008C002F009C003F00AC0B7
:1024600004F012001EC022F0236A246A1D342236B2
:1024700001E323802250256E2550D8A402D00ED02F
:102480006CD021C022F0236A246A2034223601E372
:10249000238022502A6E2A50D8A407D0000E1C6E2A
:1024A000000E1D6E000E1E6E58D02A507B0F252682
:1024B0001EC02AF021502A1A800E2A161D8E208E48
:1024C000FF0E1F16FF0E2016000E2116000E266EA0
:1024D000000E276E000E286E070E296E00D01CA07D
:1024E00007D01F502626205027222150282200D016
:1024F000D8901E321D321C32D8901F36203621361D
:10250000292EEDD700D0090E296E00D01CA007D0CF
:102510001F502626205027222150282200D0D89054
:102520001E321D321C32D890283227322632292EF4
:10253000EDD700D026C001F027C002F028C003F07C
:1025400025C004F02AC005F092EC13F001C01CF085
:1025500002C01DF003C01EF000D012002DC02FF0ED
:10256000306A316A2C342F3601E330802F50396EB7
:102570003950D8A402D039D063D0170E2F6E2BC09B
:1025800030F02CC031F02DC032F02F28336E04D043
:10259000D890323231323032332EFAD73050346E56
:1025A0002C8EFF0E2B16FF0E2C16000E2D162B5008
:1025B000356E2C50366E2D50376E386A8E0E395E61
:1025C00039AE10D03950800A8F0FD8B003D00DD05B
:1025D00037D000D0D8903832373236323532393EA3
:1025E000F9D719D0170E396411D0000E2B6E000EDA
:1025F0002C6E000E2D6E000E2E6E22D007D0D890BD
:102600003536363637363836390600D03950D8B4F4
:1026100002D0F5D700D03450D8B409D0381E371EB8
:10262000361E356C000E36223722382200D035C0D7
:102630002BF036C02CF037C02DF038C02EF000D073
:10264000120054C058F0596A5A6A5334583601E39C
:10265000598058505F6E5F50D8A402D00ED061D020
:1026600057C058F0596A5A6A5634583601E35980AF
:102670005850606E6050D8A407D0000E526E000E05
:10268000536E000E546E4DD0000E5C6E000E5D6EEB
:10269000000E5E6E6050890F5F5E54C060F0575050
:1026A000601A800E6016538EFF0E5216FF0E5316E0
:1026B000000E5416568EFF0E5516FF0E5616000EBF
:1026C0005716180E5B6E00D0D8905C365D365E36BD
:1026D0005550525C5650535857505458D8A007D0B4
:1026E0005550525E5650535A5750545A5C80D890A9
:1026F0005236533654365B2EE7D700D05CC001F01B
:102700005DC002F05EC003F05FC004F060C005F081
:1027100092EC13F001C052F002C053F003C054F029
:1027200000D012000450D8B405D00150021003109C
:10273000D8A40ED0000E016E000E026E000E036EC5
:1027400053D006D0042AD89003320232013200D08E
:10275000000E0114066E000E0214076EFE0E031426
:10276000086E065007100810D8B40ED0EBD70CD066
:10277000042A010E0126000E0222000E0322D89028
:1027800003320232013200D0000E0114066E000E38
:102790000214076EFF0E0314086E0650071008108F
:1027A000D8B408D0E5D706D00406D8900136023652
:1027B000033600D002BE04D0020E0460F5D700D06C
:1027C00004B002D0029E00D0D8900432045003120C
:1027D0000550D8B402D0038E00D001C001F002C071
:1027E00002F003C003F000D0120003AE17D001C006
:1027F00007F002C008F003C009F0071E081E091EFA
:10280000072A000E08220922000E0724016E000E7E
:102810000820026E800E0920036E00D006AE17D08D
:1028200004C007F005C008F006C009F0071E081E26
:10283000091E072A000E08220922000E0724046E32
:10284000000E0820056E800E0920066E00D0000ED6
:10285000011A000E021A800E031A000E041A000E4E
:10286000051A800E061A0450015C055002580650E5
:102870000358D8B002D0D89002D0D88000D012002F
:10288000000E456E43AE07D0426C431ED8B0432ABB
:10289000010E456E00D041AE07D0406C411ED8B04D
:1028A000412A010E451A00D0000E476E000E466EFA
:1028B00042504310D8B421D0010E446E05D0D890B8
:1028C00042364336442A00D043BE02D0F8D700D067
:1028D000D890463647364250405C43504158D8A0C5
:1028E00006D04250405E4350415A468000D0D890B6
:1028F00043324232442EECD700D04550D8B405D0F4
:10290000466C471ED8B0472A00D046C040F047C0AA
:1029100041F000D012004CC044F04DC045F04EC014
:1029200046F019EC15F044C00DF045C00EF046C05D
:102930000FF08CEC17F00DC010F00EC011F00FC0AE
:1029400012F04CC013F04DC014F04EC015F043EC23
:1029500010F010C04FF011C050F012C051F04CC038
:1029600010F04DC011F04EC012F04FC013F050C027
:1029700014F051C015F043EC10F010C04CF011C031
:102980004DF012C04EF04CC044F04DC045F04EC06A
:1029900046F019EC15F044C04CF045C04DF046C06F
:1029A0004EF000D01200000E096E000E0A6E000EEE
:1029B0000B6E000E0C6E0550061007100810D8B4F0
:1029C0002FD0010E0D6E07D0D8900536063607368B
:1029D00008360D2A00D008BE02D0F6D700D0D89015
:1029E00009360A360B360C360550015C0650025883
:1029F0000750035808500458D8A00AD00550015E6B
:102A00000650025A0750035A0850045A098000D051
:102A1000D89008320732063205320D2EE0D700D0AA
:102A200009C001F00AC002F00BC003F00CC004F0B2
:102A3000120044C001F045C002F046C003F04A0E47
:102A4000046E000E056EDAEC15F04BAE07D0000EEA
:102A5000446E000E456E000E466E2CD04B5004E1C5
:102A6000150E4A5CD8A007D044C044F045C045F0DC
:102A700046C046F01FD044C02BF045C02CF046C0E5
:102A80002DF0AEEC12F02BC03AF02CC03BF02DC074
:102A90003CF02EC03DF09CEC15F03AC047F03BC036
:102AA00048F03CC049F047C044F048C045F049C038
:102AB00046F000D01200000E3F6E3BAE07D03A6CDD
:102AC0003B1ED8B03B2A010E3F6E00D03DAE05D074
:102AD0003C6C3D1ED8B03D2A00D03C503D10D8B4CF
:102AE0001DD0010E3E6E05D0D8903C363D363E2AB4
:102AF00000D03DBE02D0F8D700D03C503A5C3D50EB
:102B00003B58D8A005D03C503A5E3D503B5A00D0CF
:102B1000D8903D323C323E2EF0D700D03F50D8B452
:102B200005D03A6C3B1ED8B03B2A00D03AC03AF0F0
:102B30003BC03BF000D01200000E436E8E0E426E82
:102B40003DAE12D03D1E3C1E3B1E3A6C000E3B2299
:102B50003C223D22010E436E07D0D8903D323C32DC
:102B60003B323A32422A00D0000E3A143E6E000E3A
:102B70003B143F6E000E3C14406EFF0E3D14416E40
:102B80003E503F1040104110D8A4E7D73AC001F0A2
:102B90003BC002F03CC003F042C004F043C005F06B
:102BA00092EC13F001C03AF002C03BF003C03CF0DD
:102BB00000D01200015002100310D8A409D004C0A4
:102BC000D9FF05C0DAFF000EDE6E000EDD6E2ED0DE
:102BD00003507F0B066E076AD8900636073604C08E
:102BE000D9FF05C0DAFF06C0DEFF07C0DDFF02AE79
:102BF00003D0066A062A01D0066A065004C0D9FF2F
:102C000005C0DAFFDE12000EDD1204C0D9FF05C0D8
:102C1000DAFF820EDE26FF0EDD22038003820384AC
:102C200003860388038A039C029E00D0120005508D
:102C3000061007100810D8B429D0010E096E07D06D
:102C4000D8900536063607360836092A00D008BE61
:102C500002D0F6D700D00550015C0650025807504C
:102C6000035808500458D8A009D00550015E0650FA
:102C7000025A0750035A0850045A00D0D89008321C
:102C8000073206320532092EE6D700D001C001F026
:102C900002C002F003C003F004C004F01200036E8F
:102CA000000EAC6E000EAB6E03A002D0AC8800D05C
:102CB00003A203D0AC8CAB8C00D003A402D0AC8EAA
:102CC00000D003A602D0AB8802D0AB8A00D003B8F4
:102CD000AC849E9803AA02D0AB8600D003AC02D08D
:102CE0009D8A01D09D9A9E9A03AE02D09D8801D004
:102CF0009D9801C0AFFF0250B06EAC8AAB8E949C21
:102D0000948EACB8ACBE02D0948C00D012008E0E63
:102D1000116E07D0D8900C320B320A320932112AC8
:102D200000D0000E09140D6E000E0A140E6E000E77
:102D30000B140F6EFF0E0C14106E0D500E100F10B2
:102D40001010D8A4E7D709C001F00AC002F00BC0E8
:102D500003F011C004F0000E056E92EC13F001C0F8
:102D600009F002C00AF003C00BF000D01200066E9A
:102D70000650020D800EF324D96E000EF420DA6E98
:102D8000DECF07F0DDCF08F007503F0B826E07C0A3
:102D900001F008C002F0060E036E02340232013266
:102DA000032EFBD7010E0114046E056A04B002D095
:102DB000849201D0848212001F5020102110D8B4B8
:102DC00007D0000E1F1A000E201A800E211A00D004
:102DD0001CC010F01DC011F01EC012F01FC013F077
:102DE00020C014F021C015F043EC10F010C01CF00E
:102DF00011C01DF012C01EF000D0120049BE06D056
:102E0000495013E1460E485CD8B00FD048C040F09E
:102E100049C041F0000E436E0A0E426E40EC14F0C1
:102E200040C04AF041C04BF005D0000E4B6E070E7B
:102E30004A6E00D04AC081FF1200000E0C6E0AAE2E
:102E400007D0096C0A1ED8B00A2A010E0C6E00D0F9
:102E500009C001F00AC002F0036A8E0E046E0CC0B5
:102E600005F092EC13F001C009F002C00AF003C0B3
:102E70000BF000D012007B6A7A6A7C0EF66E2F0E81
:102E8000F76E000EF86E00EE80F010EE14F0090000
:102E9000F5CFEEFFE550E150FAE1000EF86E0001CB
:102EA00045EF0DF048504A02F3CF4CF0F4CF4DF00F
:102EB00048504B02F3504D2649504A02F3504D26DC
:102EC0004CC048F04DC049F000D01200C28200D082
:102ED000C2B2FED7C450046E036AC3500324056E09
:102EE000000E0420066E05C001F006C002F000D0FE
:102EF00012000C6E0C50016E026A036A8E0E046E94
:102F0000000E056E92EC13F001C009F002C00AF049
:102F100003C00BF000D012000D500E100F10D8B4EB
:102F200006D0000E0D1A000E0E1A800E0F1A0DC0DC
:102F30000DF00EC00EF00FC00FF01200000E026E6A
:102F4000000E016E012805E10228D8B406D001D098
:102F500004D0014A022AF6D7FCD71200036E0350B0
:102F6000020D800EF324D96E000EF420DA6EDECF4F
:102F700001F0DDCF02F001C083FF120001004F001D
:102F8000120006004C00240020000F000000040086
:102F9000000E026E190E016E3C0E4FEC16F0600E24
:102FA000D36E1200F90ECB6E050ECA6E4A0EBB6EC2
:102FB0003C0EBA6E1200016E00D0ACA2FED701C06A
:102FC000ADFF1200016E0150040DF328C26E120015
:102FD000190EC16EA90EC06E1200000EBA6E819657
:022FE0001200DD
:020000040020DA
:08000000FFFFFFFFFFFFFFFF00
:020000040030CA
:0E000000FF08191EFF8281FF0FC00FE00F40A6
:00000001FF
