:040000000CEF00F011
:10000800FACF03F0FBCF04F0E9CF05F00DED09F0CE
:100018004BEF09F0290E3C6E000E3D6E0DD2250EF9
:100028004518D8B404D0455031EC0DF005D2000E77
:10003800436E000E426E000E446E05D04484274A7B
:10004800282A01D00BD027C0F6FF28C0F7FF0800E8
:10005800F550300AD8B4F2D701D0F5D727C0F6FF4B
:1000680028C0F7FF0800F5508AEC0CF0D8A03DD066
:10007800000E436E000E426E00D042C011F043C025
:1000880012F0000E146E0A0E136E76EC0CF011C00E
:1000980042F012C043F0D00E356EFF0E366E27C008
:1000A800F6FF28C0F7FF0800F550376E386A35505C
:1000B8003726365038223750422638504322274AAE
:1000C800282A27C0F6FF28C0F7FF0800F5508AEC59
:1000D8000CF0D8A00AD0D1D708D0BCD1448805D01C
:1000E8001ED0448E1CD0A8D11AD027C0F6FF28C035
:1000F800F7FF274A282A0800F5CF45F04550000A9F
:10010800D8B4A8D1640AD8B40AD00D0AD8B407D094
:10011800050AD8B4E3D7140AD8B4E3D78DD144BEBE
:100128002FD044A80ED03CC0D9FF3DC0DAFFDECFA7
:100138003EF0DECF3FF0DECF40F0DECF41F0040EE0
:100148000ED03CC0D9FF3DC0DAFFDECF3EF0DDCF98
:100158003FF0000E3FBEFF0E406E416E020E3C2681
:10016800000E3D2200D041AE74D0030E4412411E51
:10017800401E3F1E3E6C000E3F224022412269D0A5
:1001880044A80ED03CC0D9FF3DC0DAFFDECF3EF018
:10019800DECF3FF0DECF40F0DECF41F0040E0FD0CF
:1001A8003CC0D9FF3DC0DAFFDECF35F0DDCF36F0F9
:1001B80035C03EF036C03FF0406A416A020E3C2628
:1001C800000E3D2246D0010E456E0A0E4518D8B4E1
:1001D80049D001D047D04550040D260EF324F66EC1
:1001E800FF0EF420F76E0900F5503E5C0900F5504B
:1001F8003F580900F55040580900F5504158D8A01B
:1002080031D001D02FD0452AE0D72CD0010E456E31
:10021800080E4518D8B426D001D024D04550040D76
:100228004E0EF324F66EFF0EF420F76E0900F5501B
:100238003E5C0900F5503F580900F5504058090048
:10024800F5504158D8A00ED001D00CD0452AE0D79F
:1002580009D04450800B000AD8B4B5D7800AD8B466
:10026800D5D700D042504310D8B40AD044C035F096
:10027800030E3516D8B404D04206D8A0430600D0E1
:10028800800E45BE7F0E356E4250455C4350800A55
:100298003558D8B007D04550425E000E45BEFF0E17
:1002A800435A05D0000E436E000E426E00D044A49F
:1002B8001AD044C035F0030E3516D8B404D02D0E2C
:1002C80031EC0DF000D042504310D8B426D0300E97
:1002D80031EC0DF04206D8A0430642504310D8B482
:1002E8001CD0F5D71AD042504310D8B40CD0200EE9
:1002F80031EC0DF04206D8A0430642504310D8B462
:1003080002D0F5D700D044C035F0030E3516D8B466
:1003180004D02D0E31EC0DF000D045503A6E3B6AFA
:100328003ABE3B067FD071D03AC035F03BC036F0BC
:10033800D89035363636D89035363636260E3524AA
:10034800F66EFF0E3620F76E0900F5CF15F009009E
:10035800F5CF16F00900F5CF17F00A00F5CF18F021
:100368003EC011F03FC012F040C013F041C014F07D
:1003780083EC08F011C01EF012C01FF013C020F06B
:1003880014C021F00A0E226E000E236E000E246E99
:10039800000E256E88EC09F01E50300F456E3ED0D9
:1003A8003EC011F03FC012F040C013F041C014F03D
:1003B8003AC035F03BC036F0D89035363636D8904E
:1003C800353636364E0E3524F66EFF0E3620F76E6D
:1003D8000900F5CF15F00900F5CF16F00900F5CFA3
:1003E80017F00A00F5CF18F083EC08F011500F0B46
:1003F800396E3950010DE10EF324F66EFF0EF4202C
:10040800F76E0800F5CF45F009D04450800B000A7C
:10041800D8B48AD7800AD8B4C3D700D0455031ECB5
:100428000DF000D03A06D8A03B063A28EEE13B286A
:10043800D8B402D0EAD700D027C0F6FF28C0F7FF0B
:10044800274A282A0800F5CF45F04550D8B402D0ED
:10045800E6D500D01200C6EC0BF03CEC08F0F8EC46
:1004680009F000D02BEC0AF063506E18D8B44DD0C8
:1004780063C06EF0E4EC0BF00001E86F0001E85196
:10048800116E126A11BE1206000E146E090E136E5A
:1004980076EC0CF011C017F012C018F0000E1A6EAE
:1004A800050E196EF1EC07F01750200F0001E76FE9
:1004B800990E276EFF0E286E5FC029F02A6A60C069
:1004C8002BF02C6A63C02DF02E6A61C02FF0306AC1
:1004D8005CC031F0326A6DC033F0346A0EEC00F063
:1004E8006E0E276EFF0E286E0001E851296E2A6AEB
:1004F80029BE2A060001E7512B6E2C6A2BBE2C065A
:100508000EEC00F019EC0CF000D04E044F10D8A4FB
:10051800A9D7000E4F6E000E4E6E47C052F0B70EB0
:10052800276EFF0E286E46C029F047C02AF048C043
:100538002BF049C02CF052C02DF02E6A0EEC00F0C2
:10054800F288F19C0001EB69000E0001EA6F000ED1
:10055800E96F0001EABF0AD00001EA511BE1150E5C
:100568000001E95DD8B016D001D014D0AA0E000160
:10057800E925D96E000E0001EA21DA6E5250DE1824
:10058800D8A403D0E9C0EBF000D00001E94BEA2B76
:10059800E0D700D00001EB29D8B446D0000E3C6E5D
:1005A8003C0E3B6E000E3E6E500E3D6E000E406ED1
:1005B800140E3F6E0001EB51020D800EF324D96E2C
:1005C800000EF420DA6EDECF41F0DDCF42F087EC8A
:1005D8000AF0000E1D6E3C0E1C6E000E1F6E500EB3
:1005E8001E6E000E216E140E206EFF0E236E226802
:1005F80035EC03F04D0E396E0001EB51040D000E81
:10060800F3243A6E010EF4203B6EFF0E3D6E3C68FB
:10061800000E3F6E000E3E6E010E406E340E85ECED
:1006280006F019EC0CF000D00001EB51040D000E9F
:100638000001E56F010E0001E66FF3500001E527A8
:10064800F4500001E623FA0E0001E51904E1FF0E5B
:100658000001E619D8A406D7F8EC09F003D70CEF87
:1006680000F020C024F021C025F0241E251E244AB5
:10067800252A010E24242A6E000E25202B6E000E3A
:10068800276E010E266E20C024F021C025F0D890D8
:1006980024362536241E251E244A252A24C028F05F
:1006A80025C029F0000E2D6E000E2C6E20C02EF0F5
:1006B80021C02FF01E502024186E22C019F023C02C
:1006C8001AF01C5031EC0CF0205000081E24186E53
:1006D80022C019F023C01AF01C5031EC0CF01EC0D7
:1006E80018F022C019F023C01AF01C50202431EC55
:1006F8000CF01EC018F022C019F023C01AF02050C8
:1007080000081C2431EC0CF078D02BBE0BD02E0640
:10071800D8A02F06020E2826000E292228502A26A5
:1007280029502B222C4A2D2A020E2626000E27227B
:1007380026502A2627502B221E502E24186E22C0FF
:1007480019F023C01AF01C502C2431EC0CF01E5068
:100758002E24186E22C019F023C01AF02C5000085D
:100768001C2431EC0CF02E5000081E24186E22C0F8
:1007780019F023C01AF01C502C2431EC0CF02E5028
:1007880000081E24186E22C019F023C01AF02C503D
:1007980000081C2431EC0CF01E502C24186E22C0CA
:1007A80019F023C01AF01C502E2431EC0CF01E5006
:1007B8002C24186E22C019F023C01AF02E500008FD
:1007C8001C2431EC0CF02C5000081E24186E22C09A
:1007D80019F023C01AF01C502E2431EC0CF02C50C8
:1007E80000081E24186E22C019F023C01AF02E50DB
:1007F80000081C2431EC0CF000D02E502C5C2D503D
:10080800800A246E2F50800A2458D8A07ED7120060
:10081800366E800E3660A6D09F0E2E6401D0A2D010
:100828003450D8A403D0010E346E00D01F0E2F64AC
:1008380004D07E0E2F6403D000D03F0E2F6E000E22
:10084800386E040E386401D08DD0530E2F6015D049
:10085800E00E2F24116E126AFF0E1222000E146E83
:10086800050E136E76EC0CF038501126000E12228D
:100878004B0E1124F66EFD0E14D0AD0E2F24116E02
:10088800126AFF0E1222000E146E050E136E76EC1D
:100898000CF038501126000E12224A0E1124F66E62
:1008A800FE0E1220F76E0800F5CF35F000D0000ECE
:1008B800376E060E376401D053D035A023D03404E8
:1008C800D8A40CD02E503724186E30C019F031C07F
:1008D8001AF03650382431EC0CF03ED03750340240
:1008E800F3502E24236E34C024F034C025F030C0D9
:1008F80026F031C027F038503402F350362400EC8B
:100908000BF02AD03050321804E131503318D8B4E3
:1009180023D03404D8A40CD02E503724186E32C0FB
:1009280019F033C01AF03650382431EC0CF014D0DA
:1009380037503402F3502E24236E34C024F034C0D0
:1009480025F032C026F033C027F038503402F35077
:10095800362400EC0BF000D0372AD8903532A9D7CE
:10096800382A6FD71200F2925350D8B494D0CE5090
:10097800CFCF01F0026A01C002F0016A01104A6E8D
:1009880002504B6E000ECF6E000ECE6E84D0000E5D
:10099800CF6E000ECE6E9E90900ECD6ECD80000E66
:1009A8005A6E000E466E000E476E000E486E000E20
:1009B800496E010E536E6DD07FD0350E4A5C210E04
:1009C8004B58D8A009D01C0E4A5C250E4B58D8B0FD
:1009D80003D0020E536E2AD05FEC0DF027D026D03C
:1009E8006BD0A10E4A5C0F0E4B58D8A009D0880EC8
:1009F8004A5C130E4B58D8B003D0030E536E49D03F
:100A08005FEC0DF046D045D057D0910E4A5C010EF0
:100A18004B58D8A008D0BC0E4A5C020E4B58D8B030
:100A280002D0040ED7D75FEC0DF000D0F19C44D073
:100A3800910E4A5C010E4B58D8A028D0080E4A5C8B
:100A4800070E4B58D8B022D0D8904634466E47345B
:100A5800476E4834486E4934496EE90E4A5C030EC5
:100A68004B58D8A007D0010E4626000E4722482230
:100A7800492200D05A2A1F0E5A64BFD7000E4F6E63
:100A8800010E4E6EF298000E536EB7D75FEC0DF064
:100A980000D0F18C11D05350000AD8B478D7010A8D
:100AA800D8B48BD7030AD8B49CD7010AD8B4ADD729
:100AB800070AD8B4BDD700D0120027C02FF028C02D
:100AC80030F02F1E301E2F4A302A010E2F24356E8B
:100AD800000E3020366E000E326E010E316E27C0C9
:100AE8002FF028C030F0D8902F3630362F1E301E09
:100AF8002F4A302A2FC033F030C034F0000E386E41
:100B0800000E376E27C039F028C03AF067D036BEDD
:100B18000BD03906D8A03A06020E3326000E34222E
:100B28003350352634503622374A382A020E3126B9
:100B3800000E3222315035263250362229A025D0D7
:100B4800395000082524186E395039242B242F6E6B
:100B58002F28196E2DC01AF02EC01BF023503724F1
:100B6800C9EC08F0375000082524186E3750372490
:100B78002B242F6E2F28196E2DC01AF02EC01BF0B3
:100B880023503924C9EC08F000D029A227D03950C5
:100B980000082524186E395039242B242F6E2F284D
:100BA800196E2DC01AF02EC01BF0375000082324F0
:100BB800C9EC08F0375000082524186E3750372440
:100BC8002B242F6E2F28196E2DC01AF02EC01BF063
:100BD800395000082324C9EC08F000D03950375C9C
:100BE8003850800A2F6E3A50800A2F58D8A08FD7D5
:100BF8001200010E29EC0DF0000E186E960E176EFD
:100C0800B0EC0AF0110E29EC0DF0010E186EF40E7E
:100C1800176EB0EC0AF0B10E29EC0DF0010E21ECC4
:100C28000DF02C0E21EC0DF02D0E21EC0DF0B20E76
:100C380029EC0DF0010E21EC0DF02C0E21EC0DF03D
:100C48002D0E21EC0DF0B30E29EC0DF0010E21EC68
:100C58000DF02C0E21EC0DF02D0E21EC0DF0010EF7
:100C680021EC0DF02C0E21EC0DF02D0E21EC0DF0E9
:100C7800B40E29EC0DF0070E21EC0DF0C00E29EC96
:100C88000DF0A20E21EC0DF0020E21EC0DF0840EF9
:100C980021EC0DF0C10E29EC0DF0C50E21EC0DF084
:100CA800C20E29EC0DF00A0E21EC0DF0000E21EC1D
:100CB8000DF0C30E29EC0DF08A0E21EC0DF02A0E72
:100CC80021EC0DF0C40E29EC0DF08A0E21EC0DF08C
:100CD800EE0E21EC0DF0C50E29EC0DF00E0E21ECF8
:100CE8000DF0200E29EC0DF0360E29EC0DF0C80E93
:100CF80021EC0DF03A0E29EC0DF0050E21EC0DF06B
:100D080012000001DE6FDEC0E4F039C0E3F03AC043
:100D180011F03BC012F069EC0BF011C0DFF012C00B
:100D2800E0F0000E0001E26F000EE16F64D06F503A
:100D3800D8B434D04050050D0001E451416E426AE8
:100D4800F3504126F450422242BE28D0425004E1DA
:100D5800810E415CD8A022D0000E0001E46F405003
:100D6800070DF3500001E325030F0001E36FA00E08
:100D78000001E36504D0A00E0001E36F00D000017C
:100D8800E1513A24D96E0001E2513B20DA6E200E7F
:100D9800DE18D8B42CD002D02AD000D0E3C02EF070
:100DA8000001E1513A24D96E0001E2513B20DA6E8C
:100DB800DF502F6E3CC030F03DC031F03EC032F005
:100DC8003FC033F040C034F00001E4510CEC04F0B3
:100DD8004050060DF3500001E4250001E46F800E39
:100DE8000001E46504D0800E0001E46F00D000012A
:100DF800E14BE22B00D00001DF510001E15D000171
:100E0800E0510001E259D8A092D71200E00E29EC77
:100E18000DF0020E21EC0DF01C0E21EC0DF0070E6A
:100E280021EC0DF0120E21EC0DF0370E21EC0DF037
:100E3800320E21EC0DF0290E21EC0DF02D0E21ECD7
:100E48000DF0290E21EC0DF0250E21EC0DF02B0EE6
:100E580021EC0DF0390E21EC0DF0000E21EC0DF017
:100E6800010E21EC0DF0030E21EC0DF0100E21EC1B
:100E78000DF0E10E29EC0DF0030E21EC0DF01D0E26
:100E880021EC0DF0070E21EC0DF0060E21EC0DF013
:100E98002E0E21EC0DF02C0E21EC0DF0290E21EC7C
:100EA8000DF02D0E21EC0DF02E0E21EC0DF02E0E76
:100EB80021EC0DF0370E21EC0DF03F0E21EC0DF07A
:100EC800000E21EC0DF0000E21EC0DF0020E21ECCD
:100ED8000DF0100E21EC0DF0130E29EC0DF0000EA4
:100EE800186E0A0E176EB0EC0AF0290E29EC0DF0F8
:100EF800000E186E640E176EB0EC0AF01200236E26
:100F0800800E236069D09F0E186401D065D0FF0E53
:100F18001D6EFF0E1E6E195023C01FF0206A1F267B
:100F2800000E20221D501F261E50202220BE0AD04F
:100F3800205004E1800E1F5CD8A004D02350000884
:100F4800800F196EFF0E1D6EFF0E1E6E1A5018C010
:100F58001FF0206A1F26000E20221D501F261E503B
:100F6800202220BE0BD0205004E1A00E1F5CD8A088
:100F780005D018500008A00F1A6E00D018C014F041
:100F8800235019241D6E1D04156E18501A241E6E48
:100F98001E04166E2350D9EC0AF01C50216E1BC09B
:100FA80022F0838683981AC018F01850D8B413D04A
:100FB80001D011D019C023F02350D8B40AD001D0E1
:100FC80008D02150E0EC0CF02250E0EC0CF02306A5
:100FD800F3D71806EAD783881200000E1C6E1AAEE3
:100FE80007D0196C1A1ED8B01A2A010E1C6E00D030
:100FF80018AE07D0176C181ED8B0182A010E1C1A84
:1010080000D0000E1E6E000E1D6E19501A10D8B4B6
:1010180021D0010E1B6E05D0D89019361A361B2A1E
:1010280000D01ABE02D0F8D700D0D8901D361E3690
:101038001950175C1A501858D8A006D01950175EC6
:101048001A50185A1D8000D0D8901A3219321B2E07
:10105800ECD700D01C50D8B405D01D6C1E1ED8B0DB
:101068001E2A00D01DC017F01EC018F000D01200B4
:10107800FDEC0CF061EC0CF0000E256E000E246EF9
:10108800BAEC0CF0BF0E506E000E516E50C011F04D
:1010980051C012F0CD0E136EFF0E146E00EC0CF062
:1010A800020E396E50C03AF051C03BF0FF0E3D6E53
:1010B8003C68000E3F6E000E3E6E010E406E020E42
:1010C80085EC06F050C011F051C012F0F20E136E0C
:1010D800FF0E146E00EC0CF00A0E396E50C03AF098
:1010E80051C03BF0FF0E3D6E3C68000E3F6E000E97
:1010F8003E6E010E406E320E85EC06F01200000EB8
:10110800196E000E1A6E000E1B6E000E1C6E155026
:10111800161017101810D8B42FD0010E1D6E07D056
:10112800D89015361636173618361D2A00D018BE30
:1011380002D0F6D700D0D89019361A361B361C368E
:101148001550115C1650125817501358185014584F
:10115800D8A00AD01550115E1650125A1750135ABB
:101168001850145A198000D0D890183217321632F5
:1011780015321D2EE0D700D019C011F01AC012F098
:101188001BC013F01CC014F01200226E800E2260E7
:101198003FD09F0E186401D03BD0FF0E1C6EFF0E8F
:1011A8001D6E195018C01EF01F6A1E26000E1F2241
:1011B8001C501E261D501F221FBE0BD01F5004E1BD
:1011C800A00E1E5CD8A005D018500008A00F196EFC
:1011D80000D01B50206E1AC021F018C014F022C095
:1011E80015F0185019241C6E1C04166E2250D9ECE8
:1011F8000AF08386839807D02050E0EC0CF0215049
:10120800E0EC0CF000D019061928D8A4F5D783888B
:1012180012000600EACF06F0E1CF07F0E2CF08F0AF
:10122800D9CF09F0DACF0AF0F3CF0BF0F4CF0CF0F6
:10123800F6CF0DF0F7CF0EF0F8CF0FF0F5CF10F096
:101248009EA003D03EEC0DF000D0F2A203D0B7EC84
:1012580004F000D010C0F5FF0FC0F8FF0EC0F7FF74
:101268000DC0F6FF0CC0F4FF0BC0F3FF0AC0DAFF95
:1012780009C0D9FF08C0E2FF07C0E1FF06C0EAFFC6
:1012880005C0E9FF04C0FBFF03C0FAFF110000EE30
:10129800BFF01F0EEE6AE806FDE100EE46F0280EEC
:1012A800EE6AE806FDE1BA0EF66E140EF76E000E51
:1012B800F86E01EE00F010EE54F00900F5CFEEFFE5
:1012C800E550E150FAE1920EF66E160EF76E000E3A
:1012D800F86E00EE80F010EE3FF00900F5CFEEFF5B
:1012E800E550E150FAE1C60EF66E1A0EF76E000EE2
:1012F800F86E0900F5CF6EF00900F5CF6FF0000E1B
:10130800F86E00012FEF02F0225023102410251050
:10131800D8B429D0010E266E07D0D89022362336AD
:1013280024362536262A00D025BE02D0F6D700D08E
:1013380022501E5C23501F582450205825502158F5
:10134800D8A009D022501E5E23501F5A2450205A7C
:101358002550215A00D0D890253224322332223207
:10136800262EE6D700D01EC01EF01FC01FF020C0DA
:1013780020F021C021F01200136E000EAC6E000E9A
:10138800AB6E13A002D0AC8800D013A203D0AC8CF3
:10139800AB8C00D013A402D0AC8E00D013A602D020
:1013A800AB8802D0AB8A00D013B8AC849E9813AA3D
:1013B80002D0AB8600D013AC02D09D8A01D09D9A92
:1013C8009E9A13AE02D09D8801D09D9811C0AFFFA0
:1013D8001250B06EAC8AAB8E949C948EACB8ACBEF6
:1013E80002D0948C00D01200680E136E000E146E9A
:1013F800000E636E000E606E190E5F6E050E5D6E58
:10140800280E5C6E100E616E210E6D6E0FEC0DF0E5
:1014180013501324A7EC0BF01450A7EC0BF06350F7
:10142800A7EC0BF06050A7EC0BF05F50A7EC0BF0AB
:101438005D50A7EC0BF05C50A7EC0BF06150A7ECEB
:101448000BF06D50A7EC0BF006EC0DF01200680ED7
:10145800156E000E146E0FEC0DF015501524A7EC48
:101468000BF01450A7EC0BF0D5EC0CF0D880153429
:10147800A7EC0BF0010E25EC0BF0636E010E25ECCA
:101488000BF0606E010E25EC0BF05F6E010E25EC83
:101498000BF05D6E010E25EC0BF05C6E010E25EC79
:1014A8000BF0616E000E25EC0BF06D6E06EC0DF086
:1014B800120043482D004348000043482B007C3C61
:1014C8003C003E3E7C003E7C7C00202D2000202BF2
:1014D80020004551200020302000313030003230CB
:1014E800300020312000203220002033200020341A
:1014F800200020352000203620002037200020380A
:101508002000203920003F5000083D24186ED88064
:101518003F34196E41C01AF042C01BF03B50C9EC71
:1015280008F03BC023F03CC024F03DC025F03EC08D
:1015380026F03FC027F040C028F0000E2A6E030EA8
:10154800296E000E2C6E000E2B6E41C02DF042C08D
:101558002EF061EC05F0120017C011F018C012F05F
:10156800000E146EFA0E136E76EC0CF011C01BF020
:1015780012C01CF01BC019F01CC01AF0191E1A1E4C
:10158800194A1A2AFF0E19241B6EFF0E1A201C6E08
:10159800B80EB16E1BC0D6FF1C50D76EA192B18099
:1015A80000D0A1A2FED7B1901200176E2A0E29EC26
:1015B8000DF0000E21EC0DF017505B2421EC0DF01E
:1015C800000E21EC0DF015505B2421EC0DF02B0ED4
:1015D80029EC0DF0000E21EC0DF01450622421ECE2
:1015E8000DF0000E21EC0DF01650622421EC0DF0E8
:1015F8002C0E29EC0DF012002B6E2BC02CF02D6A4E
:101608000ED023C018F025C019F026C01AF027C044
:101618001BF02C50C9EC08F02C4A2D2A00D024507D
:101628002BC028F0296A2826000E292228502C5C75
:101638002D50800A2A6E2950800A2A58D8A0E1D74E
:101648001200116E5BEC0DF0000E126E070E1264A4
:1016580001D00FD038EC0DF082A203D0D880133619
:1016680004D013501324136E00D057EC0DF0122A37
:10167800EDD71150D8B403D018EC0DF003D049ECD5
:101688000DF000D0135000D0120000F800F800F858
:101698001F001F00E0071FF81FF81FF800000000D8
:1016A8000000000000000000000000000000000032
:1016B80000000000A262E22202C2E0A8906898B08E
:1016C80030187A10385A424A520011C015F012C028
:1016D80016F003D0154A162A00D015C0D9FF16C037
:1016E800DAFFDF50D8A4F6D711C013F012C014F0F7
:1016F800131E141E134A142A15501324116E165063
:101708001420126E00D012002A0E29EC0DF0000EE3
:1017180021EC0DF0000E21EC0DF0000E21EC0DF087
:101728007F0E21EC0DF02B0E29EC0DF0000E21ECB4
:101738000DF0000E21EC0DF0000E21EC0DF09F0EC7
:1017480021EC0DF01200116E000E126E070E1264DD
:1017580001D011D011AE03D05BEC0DF003D04EECEC
:101768000DF000D038EC0DF057EC0DF011501124AD
:10177800116E122AEBD75BEC0DF038EC0DF057EC3C
:101788000DF01200EAEC0CF0700ED36E0F0EC16E65
:10179800010E936E000E946E000E956E000E966EFE
:1017A800F19E49EC0CF0A00E116E860E126E010E21
:1017B800136E000E146E44EC0DF0ABEC0CF012003E
:1017C800480E166EAA0E146E0FEC0DF01650162465
:1017D800A7EC0BF01450A7EC0BF0D5EC0CF0D8806C
:1017E8001634A7EC0BF0000E25EC0BF0156E06EC8A
:1017F8000DF0155000D0120011C015F012C016F0EF
:1018080005D0154A162A134A142A00D013C0F6FF29
:1018180014C0F7FF15C0D9FF16C0DAFF0800F5CFCE
:10182800DFFFDF50D8A4EDD712008482F4EC0CF06F
:10183800000E126E000E116E12BE08D0600E115C02
:10184800220E1258D8B005D001D003D0114A122A5E
:10185800F3D753EC0DF0849212001B6E800E1B60C0
:1018680013D09F0E186401D00FD018C014F01B2895
:10187800156E1828166E1B50D9EC0AF01A5021EC78
:101888000DF0195021EC0DF01200F292F19CF28843
:10189800000ECF6E000ECE6E9E909D80F28CF28E62
:1018A800000E4F6E000E4E6E000E466E000E476E16
:1018B800000E486E000E496E120083888396800ED3
:1018C800C76E300EC66EFDEC05F088EC0BF00AEC26
:1018D80007F0360E29EC0DF0C00E21EC0DF0010ECC
:1018E800556E120011501302F3CF15F0F4CF16F015
:1018F80011501402F350162612501302F3501626F4
:1019080015C011F016C012F000D01200136E000EB0
:10191800126E3A0E136006D02F0E136403D0010E18
:10192800126E00D012C011F0113000D01200156EE6
:101938000FEC0DF015501524A7EC0BF01350A7EC85
:101948000BF01450A7EC0BF006EC0DF01200480E4B
:10195800166EAC0E136E020E146E16509BEC0CF045
:10196800EE0E136E1650C8EC0CF01200000E186E36
:10197800800E196EA00E1A6E24C01BF025C01CF034
:10198800000E83EC07F01200146E0FEC0DF01450EB
:101998001424A7EC0BF01350A7EC0BF006EC0DF099
:1019A800120057EC0DF05BEC0DF038EC0DF04EEC3E
:1019B8000DF057EC0DF01200126E9E96C9CF11F083
:1019C80012C0C9FF00D0C7A0FED71200000E126EC9
:1019D800190E116E3C0EC0EC09F0700ED36E120099
:1019E800F90ECB6E050ECA6E4A0EBB6E3C0EBA6E71
:1019F80012008394000E186E640E176EB0EC0AF095
:101A08008384120057EC0DF04EEC0DF038EC0DF01D
:101A18005BEC0DF012005BEC0DF038EC0DF04EECC9
:101A28000DF057EC0DF012004EEC0DF038EC0DF007
:101A380057EC0DF05BEC0DF01200136E8398838663
:101A48001350E0EC0CF083881200136E8398839691
:101A58001350E0EC0CF083881200116E00D0ACA299
:101A6800FED711C0ADFF12009480060EE82EFED7F7
:101A780000D01200000E536EF19CCD909E90120083
:101A880038EC0DF05BEC0DF0120038EC0DF057EC73
:101A98000DF012008292949200D000D01200000E35
:101AA800BA6E819612008290949000D012009482AF
:101AB80000D000D01200000E536ECD901200FF012E
:10FD4A0000000000000000005F000000070007003C
:10FD5A00147F147F14242A7F2A122313086462361C
:10FD6A00495620500008070300001C2241000041A8
:10FD7A00221C002A1C7F1C2A08083E0808008070E2
:10FD8A003000080808080800006060002010080415
:10FD9A00023E5149453E00427F4000724949494668
:10FDAA002141494D331814127F1027454545393CE6
:10FDBA004A494931412111090736494949364649D3
:10FDCA0049291E00001400000040340000000814F5
:10FDDA00224114141414140041221408020159096E
:10FDEA00063E415D594E7C1211127C7F49494936C3
:10FDFA003E414141227F4141413E7F494949417F3C
:10FE0A00090909013E414151737F0808087F0041F1
:10FE1A007F41002040413F017F081422417F40403A
:10FE2A0040407F021C027F7F0408107F3E4141410F
:10FE3A003E7F090909063E4151215E7F091929467B
:10FE4A00264949493203017F01033F4040403F1F91
:10FE5A002040201F3F4038403F63140814630304C6
:10FE6A007804036159494D43007F41414102040826
:10FE7A001020004141417F040201020440404040F9
:10FE8A0040000307080020545478407F284444382F
:10FE9A003844444428384444287F38545454180079
:10FEAA00087E090218A4A49C787F080404780044F8
:10FEBA007D40002040403D007F1028440000417FE3
:10FECA0040007C047804787C08040478384444446C
:10FEDA0038FC1824241818242418FC7C0804040864
:10FEEA00485454542404043F44243C4040207C1C7D
:10FEFA002040201C3C4030403C44281028444C9070
:10FF0A0090907C4464544C440008364100000077C9
:10FF1A00000000413608000201020402010000004C
:10FF2A000A00000064000000E80300001027000037
:10FF3A00A086010040420F008096980000E1F50576
:10FF4A0000CA9A3B010000001000000000010000F6
:10FF5A000010000000000100000010000000000175
:10FF6A00000000102054656D7065726174757265C9
:10FF7A00203D202564206465677265657343203DD2
:10FF8A002025642064656772656573460D0A00253D
:10FF9A003032783A253032783A2530327820253096
:10FFAA0032782F253032782F25303278004E45436B
:10FFBA005F436F6465203D202530386C78202578B2
:10FFCA000D0A00454345333330314C2046616C6C91
:10FFDA002032312D5333003031323334353637380D
:10FFEA0039616263646566004C4142203130200009
:06FFFA004551200000004B
:020000040020DA
:08000000FFFFFFFFFFFFFFFF00
:020000040030CA
:0E000000FF08191EFF8281FF0FC00FE00F40A6
:00000001FF
