:0400000088EF7AF01B
:10F3F6008098808A12008088809A12008088808A8D
:10F406001200819A819C818E1200819A818C819E44
:10F416001200819A819C819E1200818A819C819E24
:10F4260012001B0EC16EA90EC06E1200016E0150B5
:10F43600040DF328C26E1200000E026E190E016E44
:10F446003C0EFDEC7AF0600ED36E120001004F0008
:10F45600120006004C00240020000F0000000400EB
:10F46600036E0350020D480EF324D96E000EF420ED
:10F47600DA6EDECF01F0DDCF02F001C083FF1200AD
:10F4860000D00CEC7AF000D010EC7AF000D008EC4A
:10F496007AF000D004EC7AF000D00CEC7AF012008E
:10F4A600000E026E000E016E012805E10228D8B496
:10F4B60006D001D004D0014A022AF6D7FCD71200A2
:10F4C600015002100310D8B406D0000E011A000E27
:10F4D600021A800E031A01C001F002C002F003C036
:10F4E60003F01200C28200D0C2B2FED7C450046E2E
:10F4F600036AC3500324056E000E0420066E05C081
:10F5060001F006C002F000D01200520EF66EF40EA4
:10F51600F76E000EF86E00EE48F010EE14F00900DB
:10F52600F5CFEEFFE550E150FAE100010FEF7FF075
:10F53600000E0C6E0AAE07D0096C0A1ED8B00A2A55
:10F54600010E0C6E00D009C001F00AC002F0036A79
:10F556008E0E046E0CC005F06AEC7CF001C009F05A
:10F5660002C00AF003C00BF000D012000ABE06D09B
:10F576000A5013E1460E095CD8B00FD009C001F05D
:10F586000AC002F0000E046E0A0E036E76EC7BF0E3
:10F5960001C00BF002C00CF005D0000E0C6E070E79
:10F5A6000B6E00D00BC081FF1200066E0650020DD6
:10F5B600480EF324D96E000EF420DA6EDECF07F083
:10F5C600DDCF08F007503F0B826E07C001F008C080
:10F5D60002F0060E036E023402320132032EFBD70E
:10F5E600010E0114046E056A04B002D0849201D0A3
:10F5F60084821200036E000EAC6E000EAB6E03A08A
:10F6060002D0AC8800D003A203D0AC8CAB8C00D067
:10F6160003A402D0AC8E00D003A602D0AB8802D0E1
:10F62600AB8A00D003B8AC849E9803AA02D0AB86FE
:10F6360000D003AC02D09D8A01D09D9A9E9A03AE5B
:10F6460002D09D8801D09D9801C0AFFF0250B06ED8
:10F65600AC8AAB8E949C948EACB8ACBE02D0948C23
:10F6660000D01200000E066E02AE07D0016C021E1C
:10F67600D8B0022A010E066E00D004AE05D0036C87
:10F68600041ED8B0042A00D003500410D8B41DD0EC
:10F69600010E056E05D0D89003360436052A00D033
:10F6A60004BE02D0F8D700D00350015C04500258C3
:10F6B600D8A005D00350015E0450025A00D0D8905D
:10F6C60004320332052EF0D700D00650D8B405D048
:10F6D600016C021ED8B0022A00D001C001F002C09F
:10F6E60002F000D01200000E066E04AE07D0036CC6
:10F6F600041ED8B0042A010E066E00D002AE07D052
:10F70600016C021ED8B0022A010E061A00D0000EA5
:10F71600086E000E076E03500410D8B421D0010EF7
:10F72600056E05D0D89003360436052A00D004BEEF
:10F7360002D0F8D700D0D890073608360350015CBF
:10F7460004500258D8A006D00350015E0450025A55
:10F75600078000D0D89004320332052EECD700D0B3
:10F766000650D8B405D0076C081ED8B0082A00D0B9
:10F7760007C001F008C002F000D0120003AE17D097
:10F7860001C007F002C008F003C009F0071E081EFA
:10F79600091E072A000E08220922000E0724016E00
:10F7A600000E0820026E800E0920036E00D006AE01
:10F7B60017D004C007F005C008F006C009F0071E00
:10F7C600081E091E072A000E08220922000E072419
:10F7D600046E000E0820056E800E0920066E00D00D
:10F7E600000E011A000E021A800E031A000E041AE9
:10F7F600000E051A800E061A0450015C05500258C8
:10F8060006500358D8B002D0D89002D0D88000D085
:10F8160012001CC00DF01DC00EF01EC00FF0000E31
:10F82600106EC80E116E420E126EB1EC7DF00DC058
:10F836001FF00EC020F00FC021F01FC001F020C045
:10F8460002F021C003F0000E046E200E056E400E7D
:10F85600066EC1EC7BF0D8B003D0FEEC79F000D098
:10F866001FC001F020C002F021C003F0000E046E9C
:10F87600200E056E400E066EC1EC7BF0D8A013D0AC
:10F886001FC001F020C002F021C003F09A0E046EE2
:10F89600590E056E400E066EC1EC7BF0D8B003D053
:10F8A600FBEC79F000D01FC001F020C002F021C0AF
:10F8B60003F09A0E046E590E056E400E066EC1ECEC
:10F8C6007BF0D8A003D001EC7AF000D012000450EF
:10F8D600D8B405D0015002100310D8A40ED0000EE3
:10F8E600016E000E026E000E036E53D006D0042A7F
:10F8F600D89003320232013200D0000E0114066E97
:10F90600000E0214076EFE0E0314086E0650071052
:10F916000810D8B40ED0EBD70CD0042A010E01265D
:10F92600000E0222000E0322D89003320232013268
:10F9360000D0000E0114066E000E0214076EFF0EB4
:10F946000314086E065007100810D8B408D0E5D77F
:10F9560006D00406D89001360236033600D002BE21
:10F9660004D0020E0460F5D700D004B002D0029E87
:10F9760000D0D8900432045003120550D8B402D0F7
:10F98600038E00D001C001F002C002F003C003F0F4
:10F9960000D012002AC02EF02F6A306A29342E3683
:10F9A60001E32F802E50356E3550D8A402D00ED0EC
:10F9B60061D02DC02EF02F6A306A2C342E3601E32A
:10F9C6002F802E50366E3650D8A407D0000E286EE3
:10F9D600000E296E000E2A6E4DD0000E326E000EFD
:10F9E600336E000E346E3650890F355E2AC036F0FF
:10F9F6002D50361A800E3616298EFF0E2816FF0E4B
:10FA06002916000E2A162C8EFF0E2B16FF0E2C160C
:10FA1600000E2D16180E316E00D0D89032363336C1
:10FA260034362B50285C2C5029582D502A58D8A0F3
:10FA360007D02B50285E2C50295A2D502A5A328036
:10FA4600D890283629362A36312EE7D700D032C04C
:10FA560001F033C002F034C003F035C004F036C004
:10FA660005F06AEC7CF001C028F002C029F003C062
:10FA76002AF000D0120003C005F0066A076A0234B5
:10FA8600053601E3068005500F6E0F50D8A402D04C
:10FA960039D063D0170E056E01C006F002C007F01C
:10FAA60003C008F00528096E04D0D8900832073242
:10FAB6000632092EFAD706500A6E028EFF0E01167E
:10FAC600FF0E0216000E031601500B6E02500C6E4E
:10FAD60003500D6E0E6A8E0E0F5E0FAE10D00F50D5
:10FAE600800A8F0FD8B003D00DD037D000D0D89071
:10FAF6000E320D320C320B320F3EF9D719D0170EDB
:10FB06000F6411D0000E016E000E026E000E036E21
:10FB1600000E046E22D007D0D8900B360C360D3668
:10FB26000E360F0600D00F50D8B402D0F5D700D04D
:10FB36000A50D8B409D00E1E0D1E0C1E0B6C000EFA
:10FB46000C220D220E2200D00BC001F00CC002F0D8
:10FB56000DC003F00EC004F000D012000FC013F069
:10FB6600146A156A0E34133601E314801350166EA8
:10FB76001650D8A402D00ED06CD012C013F0146A5E
:10FB8600156A1134133601E3148013501B6E1B5093
:10FB9600D8A407D0000E0D6E000E0E6E000E0F6E6E
:10FBA60058D01B507B0F16260FC01BF012501B1A85
:10FBB600800E1B160E8E118EFF0E1016FF0E1116DE
:10FBC600000E1216000E176E000E186E000E196E3D
:10FBD600070E1A6E00D00DA007D010501726115030
:10FBE60018221250192200D0D8900F320E320D3240
:10FBF600D8901036113612361A2EEDD700D0090ECF
:10FC06001A6E00D00DA007D01050172611501822DA
:10FC16001250192200D0D8900F320E320D32D890E1
:10FC26001932183217321A2EEDD700D017C001F04C
:10FC360018C002F019C003F016C004F01BC005F08E
:10FC46006AEC7CF001C00DF002C00EF003C00FF0AC
:10FC560000D012001EC022F0236A246A1D34223608
:10FC660001E323802250276E21C022F0236A246AF2
:10FC76002034223601E323802250266E2750D8B442
:10FC86000BD02650275CD8B00ED02750000826246B
:10FC9600226E180E226407D01FC01CF020C01DF073
:10FCA60021C01EF0B8D02650D8B40BD02750265C01
:10FCB600D8B00ED0265000082724226E180E2264D3
:10FCC60007D01CC01CF01DC01DF01EC01EF0A3D026
:10FCD600060E256E1EAE02D0258E00D021BE258CC6
:10FCE6001D8EFF0E1C16FF0E1D16000E1E16208EF4
:10FCF600FF0E1F16FF0E2016000E21162650275C3B
:10FD0600D8B01ED0D8901F3620362136260627506A
:10FD16002618D8B40FD0250625C022F0070E2216C5
:10FD2600D8B408D0EFD706D0D8901E321D321C3278
:10FD3600272A00D026502718D8B424D0F5D722D0A9
:10FD46002750265CD8B01ED0D8901C361D361E36DD
:10FD5600270627502618D8B40FD0250625C022F02E
:10FD6600070E2216D8B408D0EFD706D0D890213285
:10FD760020321F32262A00D026502718D8B402D0A7
:10FD8600F5D700D025AE0CD0FF0E1C1AFF0E1D1A9B
:10FD9600FF0E1E1A010E1C26000E1D22000E1E222C
:10FDA60025AC0DD0FF0E1F1AFF0E201AFF0E211ACA
:10FDB600010E1F26000E2022000E212200D0000E6A
:10FDC600256E1C501F261D5020221E50212221AEBA
:10FDD6000FD0FF0E1F1AFF0E201AFF0E211A010E5A
:10FDE6001F26000E2022000E2122010E256E00D0B5
:10FDF6001FC001F020C002F021C003F027C004F0AC
:10FE060025C005F06AEC7CF001C01CF002C01DF0B4
:10FE160003C01EF000D012001FEC7AF014EC7AF04A
:10FE2600070E926E000E936E000E946E000E956E87
:10FE3600000E966E000E816E8368846800D0000EF8
:10FE460019EC7AF075EC7AF001C043F002C044F088
:10FE560043C009F044C00AF09BEC7AF009C00DF0EB
:10FE66000AC00EF00BC00FF0000E106E800E116E61
:10FE7600400E126EB1EC7DF00DC040F00EC041F0A8
:10FE86000FC042F0600E1F6E810E206E440E216E72
:10FE960040C001F041C002F042C003F063EC7AF0CA
:10FEA60001C01CF002C01DF003C01EF02DEC7EF058
:10FEB6001CC028F01DC029F01EC02AF0000E2B6EB3
:10FEC600B00E2C6E400E2D6ECDEC7CF028C039F0B5
:10FED60029C03AF02AC03BF0660E106EE60E116E8F
:10FEE6003F0E126E39C00DF03AC00EF03BC00FF057
:10FEF600B1EC7DF00DC01CF00EC01DF00FC01EF061
:10FF0600000E1F6E000E206E420E216E2DEC7EF04E
:10FF16001CC03CF01DC03DF01EC03EF03CC001F0D0
:10FF26003DC002F03EC003F03EEC7DF001C046F05D
:10FF360002C047F046C001F047C002F0000E046E52
:10FF46000A0E036E35EC7BF00150456E4550376E58
:10FF5600386A371E381E374A382A46503724016E0B
:10FF660047503820026E000E046E0A0E036E76ECC1
:10FF76007BF001503F6E3F50D8EC7AF0455033ECA1
:10FF86007AF046C001F047C002F043EC7AF046C072
:10FF960009F047C00AF0B9EC7AF0020E19EC7AF0D3
:10FFA60075EC7AF001C043F002C044F043C009F09A
:10FFB60044C00AF09BEC7AF009C00DF00AC00EF0BE
:10FFC6000BC00FF0000E106E800E116E400E126EFA
:10FFD600B1EC7DF00DC040F00EC041F00FC042F014
:10FFE60040C01CF041C01DF042C01EF00CEC7CF07D
:0AFFF60053EC7AF024D700EF00F07E
:020000040020DA
:08000000FFFFFFFFFFFFFFFF00
:020000040030CA
:0E000000FF08191EFF8381FF0FC00FE00F40A5
:00000001FF
