:04000000CDEF7FF0D1
:10FF4E00A600230005008200C00067004100E40007
:10FF5E000F0EC16E000E946E000E956E00D0E0EC8A
:10FF6E007FF0FDD700EF00F0000E026E000E016E66
:10FF7E0002BE08D0680E015C420E0258D8B005D001
:10FF8E0001D003D0014A022AF3D712004E0EF66EAC
:10FF9E00FF0EF76E000EF86E00EE14F010EE10F07D
:10FFAE000900F5CFEEFFE550E150FAE10001AFEFA9
:10FFBE007FF020EE14F010EE03F00F0EDBCFE3FF18
:10FFCE00E806FCE2000E136E070E136401D010D08B
:10FFDE0013C08BFF1350020D030EF324D96E000EC7
:10FFEE00F420DA6EDF508C6EBBEC7FF0132AECD768
:02FFFE001200EF
:020000040020DA
:08000000FFFFFFFFFFFFFFFF00
:020000040030CA
:0E000000FF08191EFF8281FF0FC00FE00F40A6
:00000001FF
