:04000000CDEF7FF0D1
:10FF9A000001E2EF7FF0000E026E000E016E02BE5B
:10FFAA0008D0680E015C420E0258D8B005D001D0C4
:10FFBA0003D0014A022AF3D71200000E946E0F0EE4
:10FFCA00C16E000E046E000E036E04BE08D004500B
:10FFDA00F8E1080E035CD8B0F4D701D0F2D703C019
:10FFEA0082FFD0EC7FF0D0EC7FF0034A042AEDD7F1
:06FFFA00E8D700EF00F063
:020000040020DA
:08000000FFFFFFFFFFFFFFFF00
:020000040030CA
:0E000000FF08191EFF8281FF0FC00FE00F40A6
:00000001FF
