:0400000010EF7FF08E
:10FDEA00010EC26E1B0EC16EA90EC06E1200000E6D
:10FDFA00026E190E016E3C0E23EC7FF0600ED36E7C
:10FE0A00120001004F00120006004C0024002000DE
:10FE1A000F00000004000C0EF66EFE0EF76E000EC8
:10FE2A00F86E00EE2BF010EE14F00900F5CFEEFF9D
:10FE3A00E550E150FAE100015BEF7FF0036E000E3E
:10FE4A00AC6E000EAB6E03A002D0AC8800D003A249
:10FE5A0003D0AC8CAB8C00D003A402D0AC8E00D003
:10FE6A0003A602D0AB8802D0AB8A00D003B8AC8418
:10FE7A009E9803AA02D0AB8600D003AC02D09D8A1A
:10FE8A0001D09D9A9E9A03AE02D09D8801D09D987A
:10FE9A0001C0AFFF0250B06EAC8AAB8E949C948EB8
:10FEAA00ACB8ACBE02D0948C00D012000F0EC16E5A
:10FEBA00000E946E000E956E000E966EFCEC7EF0AF
:10FECA00F5EC7EF020EE2BF010EE07F0130EDBCFF0
:10FEDA00E3FFE806FCE200D0000E2A6E000E296E4F
:10FEEA002ABE08D02A50F8E10A0E295CD8B0F4D705
:10FEFA0001D0F2D7D8902934D96E2A34DA6E070E97
:10FF0A00D926000EDA22DECF1BF0DDCF1CF0D89006
:10FF1A002934D96E2A34DA6E070ED926000EDA226F
:10FF2A00DECF1FF0DDCF20F01BC083FF1F503F0B39
:10FF3A00826E1FC004F020C005F0060E066E05345E
:10FF4A0005320432062EFBD7010E04141D6E1E6AFA
:10FF5A001DB002D0849201D08482000E226E000E5F
:10FF6A00216E22BE08D0680E215C420E2258D8B0FB
:10FF7A0005D001D003D0214A222AF3D7000E246EDD
:10FF8A00000E236E24BE08D0680E235C420E24584D
:10FF9A00D8B005D001D003D0234A242AF3D7000EC3
:10FFAA00266E000E256E26BE08D0680E255C420E0F
:10FFBA002658D8B005D001D003D0254A262AF3D72F
:10FFCA00000E286E000E276E28BE08D0680E275C29
:10FFDA00420E2858D8B005D001D003D0274A282A83
:10FFEA00F3D7294A2A2A2ABE85D72A5001E17CD783
:06FFFA0073D700EF00F0D8
:020000040020DA
:08000000FFFFFFFFFFFFFFFF00
:020000040030CA
:0E000000FF08191EFF8281FF0FC00FE00F40A6
:00000001FF
